:100000000040002065190000AD190000AF19000084
:1000100000000000000000000000000000000000E0
:10002000000000000000000000000000B119000006
:100030000000000000000000B3190000B519000026
:10004000B7190000D1050000B7190000B71900006A
:100050008D17000000000000B7190000B71900005C
:10006000ED0B0000B7190000B7190000B719000028
:10007000B7190000B7190000B7190000B719000040
:10008000B7190000B7190000B7190000B719000030
:10009000B7190000B7190000B7190000B719000020
:1000A000B7190000B71900000000000000000000B0
:1000B0000000000000000000000000000000000040
:1000C00010B5064C2378002B07D1054B002B02D02E
:1000D000044800E000BF0123237010BD4404002049
:1000E000000000005420000008B5084B002B03D08E
:1000F0000748084900E000BF07480368002B00D10B
:1001000008BD064B002BFBD09847F9E70000000024
:10011000542000004804002040040020000000009B
:10012000164B002B00D1144B9D46402292029A1A86
:10013000924600218B460F461348144A121A01F0CA
:10014000F1FD0F4B002B00D098470E4B002B00D039
:1001500098470020002104000D000D48002802D01F
:100160000C4801F0B5FE01F0B9FD2000290000F0B7
:100170004BF801F0A3FDC04600000800004000203D
:10018000000000000000000044040020FC2F0020BC
:10019000D11E0000E11E000080B584B000AFF86001
:1001A000B9607A60FEE7C04680B582B000AF8023B8
:1001B000DA0580235B000021D1508023DB0501227A
:1001C0001A60C0468023DA0580235B00D358002BD9
:1001D000F8D000F01BFF031C7B607B683B603B6832
:1001E000002B06D03A68074B101C2D211A1CFFF774
:1001F000D3FF00F01DF900F0ABFC62B6BD4602B0C3
:1002000080BDC0460420000080B500AFFFF7CCFFE2
:1002100000F0B0F90A2000F0CFFC00F07DFB021CDA
:100220003C4B1A603B4B1B68002B00D170E03A4BF3
:1002300000221A70374B1B681B78181C052101F02F
:10024000BBFB031CDAB2354B1A70344B1B78002B06
:1002500052D001F01FF8031C1A1C304B1B789A4235
:100260004DD92F4B01221A702E4B00221A7039E003
:1002700000F090FF021C2C4B1A602B4B1B68002BCC
:100280002AD0294B1B68AA221A70284B00221A7008
:1002900016E0254B1A68254B1B780133D2181D4BED
:1002A0001B681F490978081C2049097841185B1808
:1002B0001B7813701D4B1B780133DAB21B4B1A707D
:1002C0001A4B1B78042BE4D900F08EFF144B1B78DB
:1002D0000533DAB2124B1A70124B1B780133DAB2C3
:1002E000104B1A700F4B1A780C4B1B789A42BFD3E5
:1002F000094B01221A7002E0074B01221A70064BCB
:100300001B78002B02D000F02FFB01E000F038FB3F
:1003100083E7C046A4040020980400209A0400202B
:10032000A1040020A00400209C04002099040020C7
:1003300080B582B000AF021CFB1D1A70064BFA1D7F
:100340001278111C1F220A40012191400A1C1A60D8
:10035000BD4602B080BDC04600E100E0B0B582B04D
:1003600000AF021C3960FB1D1A70FB1D1B787F2B30
:100370002FD92D4CFB1D1B781A1C0F231340083B53
:100380009908294AFB1D1B78181C0F230340083BC2
:100390009B0806339B00D3185B68FA1D1278101C6B
:1003A00003220240D200101CFF228240D2431A4096
:1003B0003B689B01FF200340F81D0078051C0320CB
:1003C0002840C00083401A438B1D9B00E3185A60ED
:1003D00026E0164CFB1D1B785BB29B081349FA1DE7
:1003E000127852B29208C03292005258F91D097820
:1003F000081C03210140C900081CFF218140C9439A
:1004000011403A689201FF200240F81D0078051C57
:1004100003202840C00082400A43C0339B001A5189
:10042000BD4602B0B0BDC04600ED00E000E100E016
:1004300080B500AF394B00221A70394B01221A7077
:10044000384A394B0421D150364AA123DB00002120
:10045000D150344AA223DB000121D150314A334B21
:100460003349D1502F4AA523DB003249D1502D4AC0
:10047000314B3249D1502B4AA423DB003049D150B3
:10048000284A304B0021D150264AA623DB00012107
:10049000D150244A2C4B0021D150224AA323DB0007
:1004A0002A49D1501F4A2A4B0221D1501D4A284BBC
:1004B000D35803221340022B09D11A4A254B26494F
:1004C000D150184AA723DB002449D15010E0154A27
:1004D0001F4BD35803221340012B09D1114A1D4B46
:1004E000FF21D1500F49A723DB000822FF32CA5059
:1004F0000C4A80239B000321D1500A4AC1239B0050
:100500001921D15001200021FFF728FF0120FFF71A
:100510000FFF032000F012F9BD4680BDAA040020A1
:10052000A8040020001000400C0500002405000075
:10053000E7C2C3C4C8C7C6C51C050000E7E7E7E7B4
:10054000C2C2C2002C05000014050000C8C8040186
:10055000340500003C050000FFFF000021100100F1
:1005600080B500AF024B01221A70BD4680BDC04667
:10057000A904002080B500AF024B00221A70BD46CE
:1005800080BDC046A904002080B500AF024B1B7897
:10059000181CBD4680BDC046AA04002080B582B0AC
:1005A00000AF021CFB1D1A70034BFA1D12781A7063
:1005B000BD4602B080BDC046A804002080B500AF93
:1005C000024B1B78181CBD4680BDC046A804002005
:1005D00080B582B000AF484A80235B00D358012B1E
:1005E0002ED1454AC1239B00D3580122134027D066
:1005F000414A80235B000021D150404B1B780122EF
:100600005340DBB2002B1BD000F006F9031C7B60CB
:100610007B68002B0CD0384A80239B002121D150CD
:1006200035497B68364A8B50364B01221A7007E0F9
:10063000314A80239B000321D150324B00221A7093
:100640002D4A86235B00D358012B32D12A4AC1237D
:100650009B00D358082213402BD0274A86235B00E7
:100660000021D150254B1B7801225340DBB2002BD7
:100670001FD0244B1B78002B1BD000F0CDF8031C9F
:100680007B607B68002B0CD01B4A80239B002121C0
:10069000D15019497B681A4A8B501A4B01221A70A3
:1006A00007E0154A80239B000321D150154B0022FF
:1006B0001A70114A88235B00D358012B18D10E4AB7
:1006C000C1239B00D3581022134011D00A4A88231B
:1006D0005B000021D150094B1B7801225340DBB253
:1006E000002B05D00120FFF759FF064B00221A709E
:1006F000BD4602B080BDC04600100040A9040020E5
:1007000004050000AA04002080B582B000AF786024
:10071000C046C046C046C046C046C046C046C046A9
:10072000C046C046C046C046C046C0467B68013B86
:100730007B60002BECD1BD4602B080BD80B582B09D
:1007400000AF786006E07B68013B7B60044B181CBF
:10075000FFF7DAFF7B68002BF5D1BD4602B080BD04
:10076000E703000080B582B000AF154B1B78282B43
:1007700021D8144B1B781A1CC8235A43124BD31888
:100780007B607A681149124BCB589A4206D1114BC3
:100790001B685A1C0F4B1A6000230DE0094B1B7895
:1007A0000133181C2E2101F07DFA0B1CDAB2054B27
:1007B0001A707B6800E00023181CBD4602B080BDA3
:1007C0006204002061040020AC04002000100040FE
:1007D000040500006404002080B500AF034B1B78C3
:1007E0000133DAB2014B1A70BD4680BD62040020AD
:1007F00080B500AF074B1B78002B03D1054B2D2292
:100800001A7005E0034B1B78013BDAB2014B1A70FA
:10081000BD4680BD6104002080B582B000AF124BA0
:100820001B78002B1AD0114B1B781A1CC8235A4373
:100830000F4BD3187B600D4B1B780133181C2E21F6
:1008400001F030FA0B1CDAB2084B1A70064B1B7819
:10085000013BDAB2044B1A707B6800E00023181CDD
:10086000BD4602B080BDC046620400206004002086
:10087000AC04002080B500AF024B1B78181CBD46AD
:1008800080BDC0466204002080B582B000AF0F4B2F
:100890001B78042B14D80E4B1B781A1CC8235A4300
:1008A0000C4BD3187B600A4B1B780133181C0521B5
:1008B00001F0F8F90B1CDAB2054B1A707B6800E006
:1008C0000023181CBD4602B080BDC0466A0400204B
:1008D000690400209C28002080B500AF034B1B78E2
:1008E0000133DAB2014B1A70BD4680BD6A040020A4
:1008F00080B500AF074B1B78002B03D1054B0422BA
:100900001A7005E0034B1B78013BDAB2014B1A70F9
:10091000BD4680BD6904002080B582B000AF0F4B9A
:100920001B78002B14D00E4B1B781A1CC8235A437B
:100930000C4BD3187B600A4B1B780133181C052124
:1009400001F0B0F90B1CDAB2054B1A707B6800E0BD
:100950000023181CBD4602B080BDC0466A040020BA
:10096000680400209C28002080B500AF034B1B7852
:10097000013BDAB2014B1A70BD4680BD6A0400200B
:1009800080B500AF074B1B78002B03D1054B042229
:100990001A7005E0034B1B78013BDAB2014B1A7069
:1009A000BD4680BD6804002080B500AF024B1B78B7
:1009B000181CBD4680BDC0466A04002080B582B0C8
:1009C00000AF021CFB1D1A70064BFA1D1278111C99
:1009D0001F220A40012191400A1C1A60BD4602B044
:1009E00080BDC04600E100E080B582B000AF021CCF
:1009F000FB1D1A70074AFB1D1B78191C1F230B4097
:100A0000012199400B1C191C8023D150BD4602B016
:100A100080BDC04600E100E080B582B000AF021C9E
:100A2000FB1D1A70074AFB1D1B78191C1F230B4066
:100A3000012199400B1C191CC0235B00D150BD46FD
:100A400002B080BD00E100E0B0B582B000AF021C92
:100A50003960FB1D1A70FB1D1B787F2B2FD92D4C85
:100A6000FB1D1B781A1C0F231340083B9908294AC9
:100A7000FB1D1B78181C0F230340083B9B08063303
:100A80009B00D3185B68FA1D1278101C03220240E9
:100A9000D200101CFF228240D2431A403B689B01C7
:100AA000FF200340F81D0078051C03202840C000EB
:100AB00083401A438B1D9B00E3185A6026E0164CB6
:100AC000FB1D1B785BB29B081349FA1D127852B2CA
:100AD0009208C03292005258F91D0978081C03216F
:100AE0000140C900081CFF218140C94311403A68F8
:100AF0009201FF200240F81D0078051C03202840C9
:100B0000C00082400A43C0339B001A51BD4602B068
:100B1000B0BDC04600ED00E000E100E080B582B06D
:100B200000AF7860C046C046C046C046C046C0461A
:100B3000C046C046C046C046C046C046C046C04685
:100B40007B68013B7B60002BECD1BD4602B080BDD1
:100B500080B500AF144B00221A70144B00225A705B
:100B6000134A144B0021D150114AA123DB00032169
:100B7000D1500F4AA223DB000421D1500C4980231D
:100B80009B0080225200CA500949C1239B00802249
:100B90005202CA5008200121FFF756FF0820FFF734
:100BA0000DFFBD4680BDC0464D2D0020842C002089
:100BB000008000400405000080B584B000AF78607C
:100BC0007B68FA2292005343FB600749A823DB00AD
:100BD000FA68CA50044B0122DA60034B01221A6002
:100BE000BD4604B080BDC0460080004080B584B0E2
:100BF00000AF974AA0235B00D358012B00D024E11B
:100C0000934AC1239B00D25880235B02134000D13A
:100C10001BE18F4AA0235B000021D150FFF734FE77
:100C2000031C7B607B68002B00D1E5E0FFF798FC9C
:100C3000884A80239B000321D150C046854AAA23BD
:100C4000DB00D3580F221340F8D1824AC2239B0005
:100C50001921D1500120FFF7C7FEFFF795FC031EB5
:100C600004D07C4A7C4BD358FB6008E0FFF7D4FDEE
:100C7000031CFB60FB68002B01D1784BFB60784BB9
:100C80001B78002B03D0FB6802221A7002E0FB687D
:100C900001221A706F49FB686F4A8B506D4A882396
:100CA0005B000021D1506B4B01221A60C046694A9B
:100CB00088235B00D358002BF9D0664A80239B0021
:100CC0000121D15063497B68634A8B50614A862376
:100CD0005B000021D1503223BB605E4B01225A6081
:100CE0000BE0BB685A1EBA60002B05DBFA239B00A1
:100CF000181CFFF713FF00E005E0564A86235B004F
:100D0000D358002BEDD0BB68002B33DB514A802336
:100D1000DB00D358012B27D1514B00221A70FFF76B
:100D2000DBFD7B681B78002B29D07B6801331B78A7
:100D3000FF2B24D17B6805331B785B09DBB21A1CBF
:100D40000123134003D0474B01221A7017E07B6840
:100D500005331B781B09DBB21A1C012313400ED08C
:100D6000404B00221A700AE03D4B01221A70FFF737
:100D7000BFFD04E03A4B01221A70FFF7B9FD354A76
:100D800088235B000021D150324B01221A61C046FA
:100D9000304A88235B00D358002BF9D02D4A862394
:100DA0005B000021D1502B4A80235B000021D150F1
:100DB000284A80239B000321D150264AC1239B004F
:100DC0001921D150FFF7D6FB0120FFF725FE0120A6
:100DD000FFF7F4FDFFF720FD031CFB60FB68002B11
:100DE00026D00020FFF7DAFB1A49FB681A4A8B501D
:100DF000184B01221A601BE0164AAA23DB00D358C5
:100E00000F22134014D0FFF7D9FB031E10D0FFF7B9
:100E100003FD031CFB60FB68002B09D00020FFF7DB
:100E2000BDFB0C49FB680C4A8B500A4B01221A602F
:100E30000C4B1B78002B05D0FA235B00181CFFF726
:100E4000BBFE02E00A20FFF7B7FEBD4604B080BD3E
:100E5000008000400010004004050000842C0020A9
:100E60004D2D00204C2D002080B58AB000AF3B1DD9
:100E7000186059609A603B1D1B78012B00D0AEE0D2
:100E8000584B1B6801331B78AA2B05D1564B1B68A6
:100E9000C6331A1C544B1A60524B1A68534B9A4271
:100EA00027D0504B1B6801331B78AA2B05D04D4B24
:100EB0001B6801331B78FF2B19D14A4B1B68013388
:100EC0001B78AA2B0BD1474B1B680133C6221A7023
:100ED000474B1B68C6331A1C454B1A6004E0414B54
:100EE0001B68013304221A70FFF776FC01E0FFF75C
:100EF0007FFC404B1A68404B9A4201D000F0BEF98B
:100F0000FFF730FC031CFB61FB69002B01D1374B61
:100F1000FB6100F089F9031C3B623B6A002B01D1A5
:100F2000354B3B622723FB1800221A7012E027235F
:100F3000FB181B78C7332722BA181278396A8A1827
:100F400011782E4AD1542723FB181A782723FB182F
:100F500001321A702723FB181B78052BE7D9FB6990
:100F600000221A70FB690133244A101C191CCD227F
:100F7000C72300F0C3FB031CBB611E4B3A6A1A6017
:100F8000184BFA691A60BB697B617B69002B06D03C
:100F90007A691B4B101C5F211A1CFFF7FDF8FFF745
:100FA0000DFB031E1BD0174AAA23DB00D3580F22C8
:100FB000134014D1FFF75EFC031E10D0FFF72CFC8A
:100FC000031C3B613B69002B09D00020FFF7E6FAC8
:100FD0000C493B690C4A8B500A4B01221A60BD46F2
:100FE0000AB080BD282E0020700400202C2E002086
:100FF0006C040020F42E0020502D0020582D0020DD
:1010000014200000001000400405000080B58CB0E2
:1010100000AF584B181C00F0E1F9031CBB62BB6A1F
:101020007B627B6A002B06D07A6A534B101C7821B6
:101030001A1CFFF7B1F83B1C19221A603B1C18223E
:101040005A603B1C1C229A603B1C1D22DA603B1C30
:1010500000221A743B1C01225A743B1C00229A7411
:101060003B1C0022DA743B1C181C00F0E7F9031C3F
:10107000BB62BB6A3B623B6A002B06D03A6A3E4BBE
:10108000101C8C211A1CFFF787F82F23FB18002255
:101090001A700CE02F23FB181B78384A0021D1541A
:1010A0002F23FB181A782F23FB1801321A702F23D5
:1010B000FB181B78052BEDD92F23FB1800221A7083
:1010C0000CE02F23FB181B782D4A0021D1542F232D
:1010D000FB181A782F23FB1801321A702F23FB18E4
:1010E0001B78CC2BEDD9FFF73DFB031CFB61FB69A3
:1010F000002B1ED0FB690133214A101C191CCD2284
:10110000C72300F0FBFA031CBB621E4B1B4A1A608C
:101110001D4BFA691A60BB6ABB61BB69002B07D023
:10112000BA69154B101CA1211A1CFFF735F81CE0F9
:101130001BE0134A154B101C191CCD22C72300F0CD
:10114000DDFA031CBB620F4B0C4A1A600E4B104AAF
:101150001A60BB6A7B617B69002B06D07A69064BFB
:10116000101CA8211A1CFFF717F80023181CBD46F5
:101170000CB080BD690E000014200000502D00202E
:10118000582D0020F42E0020282E00202D2E002087
:101190002C2E002080B582B000AF104B1B782A2B7C
:1011A00016D80F4B1B781A1C131C5B009B185B0096
:1011B0000C4A9B187B600A4B1B780133181C2B21AF
:1011C00000F070FD0B1CDAB2054B1A707B6800E072
:1011D0000023181CBD4602B080BDC0467604002026
:1011E00075040020F82E002080B500AF034B1B785B
:1011F0000133DAB2014B1A70BD4680BD760400207F
:1012000080B500AF074B1B78002B03D1054B2A227A
:101210001A7005E0034B1B78013BDAB2014B1A70E0
:10122000BD4680BD7504002080B582B000AF104B74
:101230001B78002B16D00F4B1B781A1C131C5B005D
:101240009B185B000C4A9B187B600A4B1B78013390
:10125000181C2B2100F026FD0B1CDAB2054B1A706E
:101260007B6800E00023181CBD4602B080BDC0466C
:101270007604002074040020F82E002080B500AF12
:10128000034B1B78013BDAB2014B1A70BD4680BD9F
:101290007604002080B500AF034B1B782B22D31AB5
:1012A000DBB2181CBD4680BD7604002080B582B03C
:1012B00000AF021CFB1D1A70064BFA1D1278111CA0
:1012C0001F220A40012191400A1C1A60BD4602B04B
:1012D00080BDC04600E100E080B582B000AF021CD6
:1012E000FB1D1A70074AFB1D1B78191C1F230B409E
:1012F000012199400B1C191CC0235B00D150BD4635
:1013000002B080BD00E100E0B0B582B000AF021CC9
:101310003960FB1D1A70FB1D1B787F2B2FD92D4CBC
:10132000FB1D1B781A1C0F231340083B9908294A00
:10133000FB1D1B78181C0F230340083B9B0806333A
:101340009B00D3185B68FA1D1278101C0322024020
:10135000D200101CFF228240D2431A403B689B01FE
:10136000FF200340F81D0078051C03202840C00022
:1013700083401A438B1D9B00E3185A6026E0164CED
:10138000FB1D1B785BB29B081349FA1D127852B201
:101390009208C03292005258F91D0978081C0321A6
:1013A0000140C900081CFF218140C94311403A682F
:1013B0009201FF200240F81D0078051C0320284000
:1013C000C00082400A43C0339B001A51BD4602B0A0
:1013D000B0BDC04600ED00E000E100E080B582B0A5
:1013E00000AF7860064B7A681A60054B1B68002BCB
:1013F00001D0002300E00E23181CBD4602B080BDC2
:101400009404002080B582B000AF7860034B7A6806
:101410001A60C046BD4602B080BDC04678040020B8
:1014200080B582B000AF7860034B7A681A60C0461E
:10143000BD4602B080BDC0467C04002080B584B0AB
:1014400000AF78607B68002B01D10E23BEE0A023A3
:10145000DA057B6818685F4B1B681902031CC133EF
:10146000FF339B009950A023DA057B68D8685A4B5C
:101470001B689900031CC133FF339B009950A023C4
:10148000DA057B685B68C133FF339B00002199500C
:10149000A023DA057B689B68C133FF339B000021E2
:1014A00099504E497B68DB684D4A8B504B497B68AD
:1014B0009A68A123DB00CA5048497B685A68A22376
:1014C000DB00CA5045497B681B68464A8B50434A3B
:1014D000A723DB000021D150404AA923DB000021D3
:1014E000D1500023BB600023FB607B681B7C012B79
:1014F0000BD002DC002B05D010E0022B08D0032B10
:1015000009D00BE00023BB600BE00223BB6008E0C6
:101510000423BB6005E00623BB6002E00723FB60F9
:10152000C046FB68002B01D0FB684FE07B685B7C0A
:10153000002B13D12949BB68012213432A4A8B503F
:10154000264A7B689B7C191C284BD150234A7B6818
:10155000DB7C191CB823DB00D15010E01F49224A64
:10156000BB688B501D4A7B689B7C191C1F4BD1505C
:101570001A4A7B68DB7C191CB823DB00D150174A60
:1015800082235B000021D150144A94235B00002188
:10159000D150124A80239B000421D150144B0022C9
:1015A0001A7004200021FFF7AFFE0420FFF794FE1D
:1015B0000A4AC1239B000F49D1500420FFF776FE51
:1015C000064AA023DB000221D150FB68181CBD464F
:1015D00004B080BD7C04002078040020004000405E
:1015E000140500000C050000540500005C05000017
:1015F000900400200204000090B585B000AF304B8D
:101600001B78DBB2022B08D0032B2CD0012B00D08F
:1016100053E02C4B01225A624FE03B1C00221A700F
:101620003B1C00225A603B1C00229A60264B1A6821
:101630000F23FB18511E8A411A700F23FB181B78C9
:1016400001225340DBB2002B05D0204B0020CB21E0
:101650001A1CFEF7A1FD1C4B1C683B1C186859683E
:101660009A68A04729E03B1C01221A70154A184BC2
:10167000D2583B1C5A60134A164BD2583B1C9A60F6
:10168000114B1A680E23FB18511E8A411A700E2343
:10169000FB181B7801225340DBB2002B05D00B4B0B
:1016A0000020D4211A1CFEF777FD074B1C683B1C59
:1016B000186859689A68A047C046BD4605B090BDF5
:1016C00090040020004000409404002020200000EE
:1016D0003C0500004C05000080B582B000AF021C44
:1016E000FB1D1A70044BFA1D12781A70FFF784FF65
:1016F000BD4602B080BDC0469004002080B586B0D3
:1017000000AFF860B960191CFB1D1A70BB1D0A1CE4
:101710001A70FB68002B02D0BB68002B01D10E238E
:1017200025E0154B1B78DBB2012B19D002DC002B16
:1017300002D018E0032B16DC104BFA681A60104B2D
:10174000BA681A60FB1D1A780E4B1A60BB1D1A7816
:101750000D4B1A6000237B610120FFF7BDFF05E000
:1017600008237B6102E003237B61C0467B69181C70
:10177000BD4606B080BDC046900400208004002015
:1017800084040020880400208C04002080B500AF71
:10179000234A94235B00D358002B29D0204A94235A
:1017A0005B000021D1501F4B1B78DBB2012B00D016
:1017B0001EE01B4A1C4B1B68191C1C4BD150184ABD
:1017C0001B4B1B68191C1B4BD15015491A4B1A682F
:1017D000A723DB00CA501249184B1A68A923DB0063
:1017E000CA500F4B01229A620220FFF775FFC046D4
:1017F0000B4A82235B00D358002B0ED0084A822369
:101800005B000021D150074B1B78DBB2022B00D0CC
:1018100003E00320FFF760FFC046BD4680BDC04621
:101820000040004090040020800400204405000097
:1018300084040020340500008C040020880400206B
:1018400080B500AF024B034A1A60BD4680BDC0465A
:10185000040000200024F40080B500AF00F01CF864
:10186000031E06D0094B0A4A1A600A4B8022120254
:101870001A6000F051F8031E05D08023DA05C12359
:10188000DB000121D150BD4680BDC04604050040AB
:10189000DFFF07C0186C004080B500AF1A4B1B6813
:1018A000FF221340012B2AD1184B1B680F22134033
:1018B00025D1174B1B68F022134006D1154B1B682E
:1018C000F022134001D101231AE0114B1B68F022D2
:1018D0001340102B06D10F4B1B68F022134001D18F
:1018E00001230DE00A4B1B68F0221340302B06D178
:1018F000084B1B68F022134001D1012300E00023B4
:10190000181CBD4680BDC046E00F00F0E40F00F09B
:10191000E80F00F0EC0F00F080B500AF0D4B1B6836
:10192000FF221340012B11D10B4B1B680F221340D8
:101930000CD10A4B1B68F0221340402B06D1084BF8
:101940001B68F022134001D1012300E00023181C82
:10195000BD4680BDE00F00F0E40F00F0E80F00F09E
:10196000EC0F00F003210A4802680A4302600948AC
:1019700002680A4302600849084A094B9B1A03DDC2
:10198000043BC858D050FBDC064880470648004757
:1019900024050040540500406020000000000020A5
:1019A000440400205918000021010000FEE7FEE772
:1019B000FEE7FEE7FEE7FEE7002243088B4274D312
:1019C00003098B425FD3030A8B4244D3030B8B4240
:1019D00028D3030C8B420DD3FF22090212BA030C49
:1019E0008B4202D31212090265D0030B8B4219D32A
:1019F00000E0090AC30B8B4201D3CB03C01A52414A
:101A0000830B8B4201D38B03C01A5241430B8B4291
:101A100001D34B03C01A5241030B8B4201D30B037A
:101A2000C01A5241C30A8B4201D3CB02C01A5241A1
:101A3000830A8B4201D38B02C01A5241430A8B4264
:101A400001D34B02C01A5241030A8B4201D30B024D
:101A5000C01A5241CDD2C3098B4201D3CB01C01A67
:101A6000524183098B4201D38B01C01A5241430971
:101A70008B4201D34B01C01A524103098B4201D35F
:101A80000B01C01A5241C3088B4201D3CB00C01ACC
:101A9000524183088B4201D38B00C01A5241430844
:101AA0008B4201D34B00C01A5241411A00D2014669
:101AB000524110467047FFE701B5002000F0FCF8E6
:101AC00002BDC0460029F7D003B5FFF775FF0EBC75
:101AD0004243891A1847C04603460B437FD400226D
:101AE00043088B4274D303098B425FD3030A8B42B2
:101AF00044D3030B8B4228D3030C8B420DD3FF221C
:101B0000090212BA030C8B4202D31212090265D0E9
:101B1000030B8B4219D300E0090AC30B8B4201D39C
:101B2000CB03C01A5241830B8B4201D38B03C01AE3
:101B30005241430B8B4201D34B03C01A5241030B5A
:101B40008B4201D30B03C01A5241C30A8B4201D30B
:101B5000CB02C01A5241830A8B4201D38B02C01AB6
:101B60005241430A8B4201D34B02C01A5241030A2D
:101B70008B4201D30B02C01A5241CDD2C3098B4212
:101B800001D3CB01C01A524183098B4201D38B018F
:101B9000C01A524143098B4201D34B01C01A524132
:101BA00003098B4201D30B01C01A5241C3088B4277
:101BB00001D3CB00C01A524183088B4201D38B0062
:101BC000C01A524143088B4201D34B00C01A524104
:101BD000411A00D201465241104670475DE0CA0FDB
:101BE00000D04942031000D34042534000229C469B
:101BF00003098B422DD3030A8B4212D3FC228901A5
:101C000012BA030A8B420CD3890192118B4208D37A
:101C1000890192118B4204D389013AD0921100E0DC
:101C20008909C3098B4201D3CB01C01A52418309F0
:101C30008B4201D38B01C01A524143098B4201D31D
:101C40004B01C01A524103098B4201D30B01C01A48
:101C50005241C3088B4201D3CB00C01A52418308C2
:101C60008B4201D38B00C01A5241D9D243088B4218
:101C700001D34B00C01A5241411A00D201466346BB
:101C800052415B10104601D34042002B00D549421F
:101C9000704763465B1000D3404201B5002000F05E
:101CA0000BF802BD0029F8D003B5FFF715FF0EBCF5
:101CB0004243891A1847C0467047C04610B50021F4
:101CC000041C00F081F8044B1868C36B002B00D093
:101CD0009847201C00F088F95020000070B50D4E88
:101CE0000D4D0024AD1BAD1005D0A300F3580134F9
:101CF0009847A542F9D100F079F9084E084D002423
:101D0000AD1BAD1005D0A300F35801349847A54290
:101D1000F9D170BD340400203404002034040020C4
:101D20003C04002070B583073FD0541E002A3BD0EE
:101D3000CEB2031C032503E0621E002C34D0141C19
:101D400001335A1E16702B42F6D1032C24D9FF25DD
:101D50000D402A0215432A0415430F2C11D9261CC5
:101D6000103E3609013636011A1C9B191560556064
:101D70009560D56010329342F8D10F221440032CA5
:101D80000AD9261FB6080136B6001A1C9B1920C2B4
:101D90009342FCD103221440002C05D0C9B21C1977
:101DA00019700133A342FBD170BD141C031CCCE796
:101DB00008B5034B002B02D0024800F089F808BD9B
:101DC00000000000E11E0000F0B556465F464D469B
:101DD0004446F0B40E1C3C4B87B01B680190039343
:101DE0004933FF330493A422039B52009F58002FD2
:101DF0004CD0049B984600239B46C4235B009C4622
:101E0000BC4463460293C6235B009A467C68BA448E
:101E1000A5007D19013C08D526E06B1DFF331B682A
:101E2000B34204D0043D013C1ED3002EF5D17B68A3
:101E30006A68013BA3423AD05B466B60002AF1D04E
:101E40007B68029999460123A340096805911942CC
:101E500023D190477B684B45C5D143461B68BB42A5
:101E6000C1D1043D013CE0D2184B002B0ED07B6861
:101E7000002B23D13B68002B24D04246381C136032
:101E800000E000BF43461F68002FB6D107B03CBC3E
:101E900090469946A246AB46F0BD514609681942A4
:101EA00007D12B1C8433196801989047D2E77C60D6
:101EB000C4E72B1C843318689047CBE73B68B846CF
:101EC0001F1CE1E70023FAE750200000000000009B
:101ED00008B5011C00220020002300F01BF808BDFB
:101EE00038B5094B094CE41AA41009D0084AA518C2
:101EF000AD00ED182B68013C9847043D002CF9D14A
:101F000000F07AF838BDC0463C04002040040020B0
:101F1000FFFFFF3FF8B544465F4656464D469B4699
:101F20002F4BF0B41C68A4235B00051CE0580E1C6A
:101F3000904600284BD043681F2B0DDC5C1C002D05
:101F400021D102339B0044601E5000203CBC9046CF
:101F50009946A246AB46F8BD224B002B3CD0C82088
:101F6000400000E000BF002836D0A4220023520029
:101F7000A15843600160A050403283500432835026
:101F80000124002DDDD09A009146814442468821EB
:101F90004F467A50C42252009046804442468739C8
:101FA000994012688A460A43944642466146116047
:101FB000842249465F4652008F50022DC1D1021C37
:101FC00055468D32FF3211680D431560B9E7201C6C
:101FD0004D30FF30E050AEE701204042B6E7C0464A
:101FE0005020000000000000FEE7C046F8B5C046E3
:101FF000F8BC08BC9E467047F8B5C046F8BC08BCA3
:102000009E4670472E2E2F6D61696E5F636D2E6345
:10201000000000002E2E2F7370692E630000000058
:102020002E2E2F2E2E2F2E2E2F2E2E2F2F536F751E
:102030007263652F7370695F736C6176652F73705F
:10204000695F736C6176652E6300000043000000D9
:08205000080000200000000060
:08205800C8E0FF7F0100000059
:10206000000000000024F40000000000F402002042
:102070005C030020C40300200000000000000000FA
:102080000000000000000000000000000000000050
:102090000000000000000000000000004C200000D4
:1020A0000000000000000000000000000000000030
:1020B0000000000000000000000000000000000020
:1020C0000000000000000000000000000000000010
:1020D0000000000000000000000000000000000000
:1020E00000000000000000000000000000000000F0
:1020F00000000000000000000000000000000000E0
:1021000000000000000000000000000000000000CF
:1021100001000000000000000E33CDAB34126DE66C
:10212000ECDE05000B0000000000000000000000D5
:10213000000000000000000000000000000000009F
:10214000000000000000000000000000000000008F
:10215000000000000000000000000000000000007F
:10216000000000000000000000000000000000006F
:1024900008000020B11D0000E9000000C10000009C
:0424A0000000000038
:04000003000019657B
:00000001FF
