:1000000000400020D51B00001D1C00001F1C00002C
:1000100000000000000000000000000000000000E0
:10002000000000000000000000000000211C000093
:100030000000000000000000231C0000251C000040
:10004000271C000015060000271C0000271C0000CC
:10005000FD19000000000000271C0000271C000004
:100060002D0D0000271C0000271C0000271C00008D
:10007000271C0000271C0000271C0000271C000074
:10008000271C0000271C0000271C0000271C000064
:10009000271C0000271C0000271C0000271C000054
:1000A000271C0000271C00000000000000000000CA
:1000B0000000000000000000000000000000000040
:1000C00010B5064C2378002B07D1054B002B02D02E
:1000D000044800E000BF0123237010BD4404002049
:1000E00000000000C822000008B5084B002B03D018
:1000F0000748084900E000BF07480368002B00D10B
:1001000008BD064B002BFBD09847F9E70000000024
:10011000C822000048040020400400200000000025
:10012000164B002B00D1144B9D46402292029A1A86
:10013000924600218B460F461348144A121A01F0CA
:1001400029FF0F4B002B00D098470E4B002B00D0FF
:1001500098470020002104000D000D48002802D01F
:100160000C4801F0EDFF01F0F1FE2000290000F045
:100170004BF801F0DBFEC046000008000040002004
:10018000000000000000000044040020B42F002004
:10019000412100005121000080B584B000AFF8601B
:1001A000B9607A60FEE7C04680B582B000AF8023B8
:1001B000DA0580235B000021D1508023DB0501227A
:1001C0001A60C0468023DA0580235B00D358002BD9
:1001D000F8D001F055F8031C7B607B683B603B68FE
:1001E000002B06D03A68074B101C2D211A1CFFF774
:1001F000D3FF00F01FF900F04BFD62B6BD4602B020
:1002000080BDC0467422000080B500AFFFF7CCFF70
:1002100000F02EFB00F0D0F9C82000F06DFD00F0DA
:1002200019FC021C3C4B1A603B4B1B68002B00D195
:1002300070E03A4B00221A70374B1B681B78181C71
:10024000052101F0F1FC031CDAB2354B1A70344B76
:100250001B78002B52D001F055F9031C1A1C304BAF
:100260001B789A424DD92F4B01221A702E4B002237
:100270001A7039E001F0C6F8021C2C4B1A602B4BA7
:100280001B68002B2AD0294B1B68AA221A70284B06
:1002900000221A7016E0254B1A68254B1B78013393
:1002A000D2181D4B1B681F490978081C2049097882
:1002B00041185B181B7813701D4B1B780133DAB2A1
:1002C0001B4B1A701A4B1B78042BE4D901F0C4F8AD
:1002D000144B1B780533DAB2124B1A70124B1B7891
:1002E0000133DAB2104B1A700F4B1A780C4B1B7893
:1002F0009A42BFD3094B01221A7002E0074B012238
:100300001A70064B1B78002B02D000F0CDFB01E0E9
:1003100000F0D6FB83E7C046A80400209C04002020
:100320009E040020A5040020A4040020A0040020B6
:100330009D04002080B582B000AF021CFB1D1A7026
:10034000064BFA1D1278111C1F220A400121914010
:100350000A1C1A60BD4602B080BDC04600E100E044
:10036000B0B582B000AF021C3960FB1D1A70FB1DD6
:100370001B787F2B2FD92D4CFB1D1B781A1C0F23AC
:100380001340083B9908294AFB1D1B78181C0F23B2
:100390000340083B9B0806339B00D3185B68FA1D9B
:1003A0001278101C03220240D200101CFF2282404F
:1003B000D2431A403B689B01FF200340F81D0078A0
:1003C000051C03202840C00083401A438B1D9B005E
:1003D000E3185A6026E0164CFB1D1B785BB29B08A5
:1003E0001349FA1D127852B29208C0329200525844
:1003F000F91D0978081C03210140C900081CFF21D0
:100400008140C94311403A689201FF200240F81D23
:100410000078051C03202840C00082400A43C033F6
:100420009B001A51BD4602B0B0BDC04600ED00E0D1
:1004300000E100E080B500AF3B4B00221A603B4B6F
:1004400000221A703A4B01221A703A4A3A4B0421A0
:10045000D150384AA123DB000721D150354AA223CD
:10046000DB000121D150334A344B3549D150314A58
:10047000A523DB003349D1502E4A334B3349D150A9
:100480002C4AA423DB003249D1502A4A314B0021A7
:10049000D150284AA623DB000121D150254A2E4BFA
:1004A0000021D150234AA323DB002C49D150214AFB
:1004B0002B4B0221D1501F4A294BD3580322134002
:1004C000022B09D11B4A274B2749D150194AA72390
:1004D000DB002649D15010E0164A214BD3580322A5
:1004E0001340012B09D1134A1E4BFF21D150114952
:1004F000A723DB000822FF32CA500E4A80239B004C
:100500000321D1500B4AC1239B001921D150012056
:100510000021FFF725FF0120FFF70CFF032000F06B
:1005200093F9BD4680BDC046B0040020AE04002053
:10053000AC040020001000400C0500002405000061
:10054000E7C2C3C4C8C7C6C51C050000E7E7E7E7A4
:10055000C2C2C2002C050000140500008282040102
:10056000340500003C050000FFFF000021100100E1
:1005700080B500AF024B1B78181CBD4680BDC0463D
:100580006004002080B582B000AF021CFB1D1A7011
:10059000034BFA1D12781A70BD4602B080BDC046EA
:1005A0006004002080B500AF024B01221A70BD46E6
:1005B00080BDC046AD04002080B500AF024B0022D4
:1005C0001A70BD4680BDC046AD04002080B500AFA6
:1005D000024B1B78181CBD4680BDC046AE040020EF
:1005E00080B582B000AF021CFB1D1A70034BFA1DD0
:1005F00012781A70BD4602B080BDC046AC0400201F
:1006000080B500AF024B1B78181CBD4680BDC046AC
:10061000AC04002080B584B000AF724A80235B0038
:10062000D358012B58D16F4AC1239B00D3580122C4
:10063000134051D06B4A80235B000021D1506A4B9C
:100640001B7801225340DBB2002B45D000F086F925
:10065000031C7B607B68002B36D0624A80239B00A2
:100660002121D1505F497B68604A8B50604B012249
:100670001A7000F0C3F87B6801331B78802B2BD1F4
:100680000223FB6018E0FB687A68D3181B781A1CF9
:10069000584B1B780133D31A5A1E9341DAB2564B8A
:1006A0001A70554B1B78002B03D0534B00221A7045
:1006B00005E0FB680133FB60FB68412BE3DD7B68F1
:1006C0009A784C4B1A7007E0464A80239B0003211E
:1006D000D150474B00221A70424A86235B00D35800
:1006E000012B5CD13F4AC1239B00D3580822134001
:1006F00055D03C4A86235B000021D1503A4B1B78F1
:1007000001225340DBB2002B49D0394B1B78002B20
:1007100045D000F023F9031C7B607B68002B36D0AA
:10072000304A80239B002121D1502E497B682F4ADB
:100730008B502F4B01221A7000F060F87B68013358
:100740001B78802B2BD10223BB6018E0BB687A6832
:10075000D3181B781A1C274B1B780133D31A5A1E47
:100760009341DAB2244B1A70234B1B78002B03D031
:10077000214B00221A7005E0BB680133BB60BB68E7
:10078000412BE3DD7B689A781A4B1A7007E0154A13
:1007900080239B000321D150154B00221A70114A6F
:1007A00088235B00D358012B18D10E4AC1239B002C
:1007B000D3581022134011D00A4A88235B0000212D
:1007C000D150094B1B7801225340DBB2002B05D0DE
:1007D0000120FFF705FF064B00221A70BD4604B04A
:1007E00080BDC04600100040AD040020040500009C
:1007F000AE040020600400206104002080B500AF3A
:10080000034B1B6880331A1C014B1A60BD4680BD28
:10081000B004002080B582B000AF7860C046C0460A
:10082000C046C046C046C046C046C046C046C04698
:10083000C046C046C046C0467B68013B7B60002B7B
:10084000ECD1BD4602B080BD80B582B000AF78600B
:1008500006E07B68013B7B60044B181CFFF7DAFF66
:100860007B68002BF5D1BD4602B080BDE7030000D8
:1008700080B582B000AF0B4B00221A70094B80226A
:100880005A7002237B6007E0064A7B68D318002277
:100890001A707B6801337B607B68412BF4DDBD46B9
:1008A00002B080BD181E002080B582B000AF174B8B
:1008B0001B78302B1FD8164B1B68002B04DD144B04
:1008C0001B685A1E124B1A60124B1B781A1C131C01
:1008D0009B019B185B00104A9B187B600D4B1B789B
:1008E0000133181C322101F015FB0B1CDAB2094B45
:1008F0001A707B6805E0064B1B685A1C044B1A6093
:100900000023181CBD4602B080BDC046660400200E
:100910006804002065040020B404002080B500AF06
:10092000034B1B780133DAB2014B1A70BD4680BD10
:100930006604002080B500AF074B1B78002B03D165
:10094000054B31221A7005E0034B1B78013BDAB2EC
:10095000014B1A70BD4680BD6504002080B582B091
:1009600000AF0F4B1B78002B14D00E4B7B600E4B4F
:100970001B780133181C322101F0CCFA0B1CDAB2BF
:10098000094B1A70064B1B78013BDAB2044B1A7004
:100990007B6800E00023181CBD4602B080BDC04645
:1009A00066040020181E00206404002080B500AFFB
:1009B000024B1B78181CBD4680BDC0466604002053
:1009C00080B582B000AF104B1B781D2B16D80F4B93
:1009D0001B781A1C131C9B019B185B000C4A9B186C
:1009E0007B600A4B1B780133181C1E2101F092FA20
:1009F0000B1CDAB2054B1A707B6800E00023181C50
:100A0000BD4602B080BDC0466E0400206D040020CB
:100A10009C1E002080B500AF034B1B780133DAB277
:100A2000014B1A70BD4680BD6E04002080B500AF3A
:100A3000074B1B78002B03D1054B1D221A7005E0D4
:100A4000034B1B78013BDAB2014B1A70BD4680BDE7
:100A50006D04002080B582B000AF104B1B78002BD6
:100A600016D00F4B1B781A1C131C9B019B185B00A4
:100A70000C4A9B187B600A4B1B780133181C1E2103
:100A800001F048FA0B1CDAB2054B1A707B6800E0E3
:100A90000023181CBD4602B080BDC0466E04002075
:100AA0006C0400209C1E002080B500AF034B1B7817
:100AB000013BDAB2014B1A70BD4680BD6E040020C6
:100AC00080B500AF074B1B781D2B03D1054B0022CF
:100AD0001A7005E0034B1B780133DAB2014B1A7030
:100AE000BD4680BD6C04002080B500AF024B1B7872
:100AF000181CBD4680BDC0466E04002080B582B083
:100B000000AF021CFB1D1A70064BFA1D1278111C57
:100B10001F220A40012191400A1C1A60BD4602B002
:100B200080BDC04600E100E080B582B000AF021C8D
:100B3000FB1D1A70074AFB1D1B78191C1F230B4055
:100B4000012199400B1C191C8023D150BD4602B0D5
:100B500080BDC04600E100E080B582B000AF021C5D
:100B6000FB1D1A70074AFB1D1B78191C1F230B4025
:100B7000012199400B1C191CC0235B00D150BD46BC
:100B800002B080BD00E100E0B0B582B000AF021C51
:100B90003960FB1D1A70FB1D1B787F2B2FD92D4C44
:100BA000FB1D1B781A1C0F231340083B9908294A88
:100BB000FB1D1B78181C0F230340083B9B080633C2
:100BC0009B00D3185B68FA1D1278101C03220240A8
:100BD000D200101CFF228240D2431A403B689B0186
:100BE000FF200340F81D0078051C03202840C000AA
:100BF00083401A438B1D9B00E3185A6026E0164C75
:100C0000FB1D1B785BB29B081349FA1D127852B288
:100C10009208C03292005258F91D0978081C03212D
:100C20000140C900081CFF218140C94311403A68B6
:100C30009201FF200240F81D0078051C0320284087
:100C4000C00082400A43C0339B001A51BD4602B027
:100C5000B0BDC04600ED00E000E100E080B582B02C
:100C600000AF7860C046C046C046C046C046C046D9
:100C7000C046C046C046C046C046C046C046C04644
:100C80007B68013B7B60002BECD1BD4602B080BD90
:100C900080B500AF144B00221A70144B00225A701A
:100CA000134A144B0021D150114AA123DB00032128
:100CB000D1500F4AA223DB000421D1500C498023DC
:100CC0009B0080225200CA500949C1239B00802208
:100CD0005202CA5008200121FFF756FF0820FFF7F3
:100CE0000DFFBD4680BDC0465A2E0020D82D0020E5
:100CF000008000400405000080B584B000AF78603B
:100D00007B68FA2292005343FB600749A823DB006B
:100D1000FA68CA50044B0122DA60034B01221A60C0
:100D2000BD4604B080BDC0460080004090B589B08B
:100D300000AF0B23FB1800221A70C94AA0235B00E6
:100D4000D358012B00D088E1C54AC1239B00D2585B
:100D500080235B02134000D17FE1C14AA0235B00E6
:100D60000021D150FFF72CFE031C7B607B68002B19
:100D700000D124E1FFF716FCBA4A80239B0003212F
:100D8000D150C046B74AAA23DB00D3580F221340E4
:100D9000F8D1B44AC2239B001921D1500120FFF79A
:100DA000C3FEFFF713FC031E04D0AE4AAE4BD3586C
:100DB000FB6138E0FFF7D2FD031CFB61FB69002BF0
:100DC00002D1AA4BFB612EE0FFF718FDFB6901334E
:100DD0001B78802B27D102237B611BE07B69FA699A
:100DE000D3181B781C1CFFF7C3FB031C5A1C0B23D6
:100DF000FB18A21A511E8A411A700B23FB181B788C
:100E0000002B04D00B23FB1800221A7005E07B692D
:100E100001337B617B69412BE0DDFB6902331B7889
:100E2000181CFFF7AFFB924B1B78002B03D0FB691C
:100E300002221A7002E0FB6901221A708949FB69DB
:100E4000894A8B50874A88235B000021D150854B0B
:100E500001221A60C046834A88235B00D358002BC6
:100E6000F9D0804A80239B000121D1507D497B68C5
:100E70007D4A8B507B4A86235B000021D1500A2398
:100E8000BB61784B01225A600BE0BB695A1EBA6104
:100E9000002B05DBFA239B00181CFFF7DFFE00E0A8
:100EA00005E0704A86235B00D358002BEDD0BB6968
:100EB000002B11DB6B4A8023DB00D358012B05D1BB
:100EC0006B4B00221A70FFF7A5FD0AE0684B012268
:100ED0001A70FFF7ABFD04E0654B01221A70FFF7B3
:100EE000A5FD604A88235B000021D1505D4B0122A3
:100EF0001A61C0465B4A88235B00D358002BF9D0A7
:100F0000584A86235B000021D150564A80235B005B
:100F10000021D150534A80239B000321D150514AD4
:100F2000C1239B001921D150FFF746FB0120FFF799
:100F300013FE0120FFF7E2FDFFF710FD031CFB612C
:100F4000FB69002B00D185E00020FFF749FB4549F4
:100F5000FB69454A8B50434B01221A60FFF74EFC58
:100F6000FB6901331B78802B00D073E002233B61C7
:100F70001BE03B69FA69D3181B781C1CFFF7F8FAD1
:100F8000031C5A1C0B23FB18A21A511E8A411A700B
:100F90000B23FB181B78002B04D00B23FB1800221B
:100FA0001A7005E03B6901333B613B69412BE0DD91
:100FB000FB6902331B78181CFFF7E4FA4AE0294A60
:100FC000AA23DB00D3580F22134043D0FFF718FBAE
:100FD000031E3FD0FFF7C2FC031CFB61FB69002B23
:100FE00038D00020FFF7FCFA1E49FB691E4A8B50DF
:100FF0001C4B01221A60FFF701FCFB6901331B78CF
:10100000802B27D10223FB601BE0FB68FA69D31811
:101010001B781C1CFFF7ACFA031C5A1C0B23FB1893
:10102000A21A511E8A411A700B23FB181B78002B41
:1010300004D00B23FB1800221A7005E0FB68013373
:10104000FB60FB68412BE0DDFB6902331B78181C59
:10105000FFF798FAC820FFF74FFEBD4609B090BDD4
:10106000008000400010004004050000D82D002042
:101070005A2E002090B58DB000AF3B1D186059600E
:101080009A601F23FB1800221A703B1D1B78012B4E
:1010900000D0DEE0704B1B6801331B78AA2B05D112
:1010A0006E4B1B6880331A1C6C4B1A606A4B1A68B3
:1010B0006B4B9A4227D0684B1B6801331B78AA2BD5
:1010C00005D0654B1B6801331B78FF2B19D1624B90
:1010D0001B6801331B78AA2B0BD15F4B1B680133B4
:1010E00080221A705F4B1B6880331A1C5D4B1A609C
:1010F00004E0594B1B68013304221A70FFF70EFC01
:1011000001E0FFF717FC584B1A68584B9A4201D080
:1011100000F0ECF9FFF7C8FB031C7B627B6A002B35
:1011200001D14F4B7B6200F0B7F9031CBB62BB6A75
:10113000002B01D14D4BBB622F23FB1800221A70EC
:1011400012E02F23FB181B7881332F22BA18127854
:10115000B96A8A181178464AD1542F23FB181A7895
:101160002F23FB1801321A702F23FB181B78052B35
:10117000E7D97B6A00221A707B6A01333C4A101C53
:10118000191C8722812300F0F1FB031CBB61364B45
:10119000BA6A1A60304B7A6A1A60BB697B617B69F4
:1011A000002B06D07A69334B101C60211A1CFEF705
:1011B000F3FFFFF725FA031E4BD02F4AAA23DB00CB
:1011C000D3580F22134044D1FFF7F0FB031E132B1B
:1011D0003FD9FFF7C3FB031C3B613B69002B38D0B1
:1011E0000020FFF7FDF924493B69244A8B50224B2C
:1011F00001221A60FFF702FB3B6901331B78802B49
:1012000027D102233B621BE03B6A3A69D3181B7863
:101210001C1CFFF7ADF9031C5A1C1F23FB18A21A54
:10122000511E8A411A701F23FB181B78002B04D013
:101230001F23FB1800221A7005E03B6A01333B6252
:101240003B6A412BE0DD3B6902331B78181CFFF73A
:1012500099F9BD460DB090BDEC2E0020740400201D
:10126000F02E002070040020742F00205C2E00203F
:10127000642E0020842200000010004004050000BD
:1012800080B58CB000AF584B181C00F0DFF9031C80
:10129000BB62BB6A7B627B6A002B06D07A6A534BC7
:1012A000101C8D211A1CFEF777FF3B1C04221A60CC
:1012B0003B1C06225A603B1C00229A603B1C022207
:1012C000DA603B1C00221A743B1C01225A743B1C3E
:1012D00000229A743B1C0022DA743B1C181C00F09C
:1012E000E5F9031CBB62BB6A3B623B6A002B06D07C
:1012F0003A6A3E4B101C99211A1CFEF74DFF2F2312
:10130000FB1800221A700CE02F23FB181B78384AB8
:101310000021D1542F23FB181A782F23FB180132F8
:101320001A702F23FB181B78052BEDD92F23FB18E0
:1013300000221A700CE02F23FB181B782D4A002185
:10134000D1542F23FB181A782F23FB1801321A705F
:101350002F23FB181B78862BEDD9FFF7A5FA031C6A
:10136000FB61FB69002B1ED0FB690133214A101C75
:10137000191C8722812300F0F9FA031CBB621E4B63
:101380001B4A1A601D4BFA691A60BB6ABB61BB69D4
:10139000002B07D0BA69154B101CBD211A1CFEF793
:1013A000FBFE1CE01BE0134A154B101C191C872286
:1013B000822300F0DBFA031CBB620F4B0C4A1A605D
:1013C0000E4B0F4A1A60BB6A7B617B69002B06D00B
:1013D0007A69064B101CC4211A1CFEF7DDFE00239F
:1013E000181CBD460CB080BD7510000084220000A2
:1013F0005C2E0020642E0020742F0020EC2E002094
:10140000F02E002080B582B000AF104B1B78092B66
:1014100016D80F4B1B781A1C131C5B009B185B0023
:101420000C4A9B187B600A4B1B780133181C0A215D
:1014300000F070FD0B1CDAB2054B1A707B6800E0FF
:101440000023181CBD4602B080BDC0467A040020AF
:1014500079040020782F002080B500AF034B1B7863
:101460000133DAB2014B1A70BD4680BD7A04002008
:1014700080B500AF074B1B78002B03D1054B092229
:101480001A7005E0034B1B78013BDAB2014B1A706E
:10149000BD4680BD7904002080B582B000AF104BFE
:1014A0001B78002B16D00F4B1B781A1C131C5B00EB
:1014B0009B185B000C4A9B187B600A4B1B7801331E
:1014C000181C0A2100F026FD0B1CDAB2054B1A701D
:1014D0007B6800E00023181CBD4602B080BDC046FA
:1014E0007A04002078040020782F002080B500AF17
:1014F000034B1B78013BDAB2014B1A70BD4680BD2D
:101500007A04002080B500AF034B1B780A22D31A5F
:10151000DBB2181CBD4680BD7A04002080B582B0C5
:1015200000AF021CFB1D1A70064BFA1D1278111C2D
:101530001F220A40012191400A1C1A60BD4602B0D8
:1015400080BDC04600E100E080B582B000AF021C63
:10155000FB1D1A70074AFB1D1B78191C1F230B402B
:10156000012199400B1C191CC0235B00D150BD46C2
:1015700002B080BD00E100E0B0B582B000AF021C57
:101580003960FB1D1A70FB1D1B787F2B2FD92D4C4A
:10159000FB1D1B781A1C0F231340083B9908294A8E
:1015A000FB1D1B78181C0F230340083B9B080633C8
:1015B0009B00D3185B68FA1D1278101C03220240AE
:1015C000D200101CFF228240D2431A403B689B018C
:1015D000FF200340F81D0078051C03202840C000B0
:1015E00083401A438B1D9B00E3185A6026E0164C7B
:1015F000FB1D1B785BB29B081349FA1D127852B28F
:101600009208C03292005258F91D0978081C032133
:101610000140C900081CFF218140C94311403A68BC
:101620009201FF200240F81D0078051C032028408D
:10163000C00082400A43C0339B001A51BD4602B02D
:10164000B0BDC04600ED00E000E100E080B582B032
:1016500000AF7860064B7A681A60054B1B68002B58
:1016600001D0002300E00E23181CBD4602B080BD4F
:101670009804002080B582B000AF7860034B7A6890
:101680001A60C046BD4602B080BDC0467C04002042
:1016900080B582B000AF7860034B7A681A60C046AC
:1016A000BD4602B080BDC0468004002080B584B035
:1016B00000AF78607B68002B01D10E23BEE0A02331
:1016C000DA057B6818685F4B1B681902031CC1337D
:1016D000FF339B009950A023DA057B68D8685A4BEA
:1016E0001B689900031CC133FF339B009950A02352
:1016F000DA057B685B68C133FF339B00002199509A
:10170000A023DA057B689B68C133FF339B0000216F
:1017100099504E497B68DB684D4A8B504B497B683A
:101720009A68A123DB00CA5048497B685A68A22303
:10173000DB00CA5045497B681B68464A8B50434AC8
:10174000A723DB000021D150404AA923DB00002160
:10175000D1500023BB600023FB607B681B7C012B06
:101760000BD002DC002B05D010E0022B08D0032B9D
:1017700009D00BE00023BB600BE00223BB6008E054
:101780000423BB6005E00623BB6002E00723FB6087
:10179000C046FB68002B01D0FB684FE07B685B7C98
:1017A000002B13D12949BB68012213432A4A8B50CD
:1017B000264A7B689B7C191C284BD150234A7B68A6
:1017C000DB7C191CB823DB00D15010E01F49224AF2
:1017D000BB688B501D4A7B689B7C191C1F4BD150EA
:1017E0001A4A7B68DB7C191CB823DB00D150174AEE
:1017F00082235B000021D150144A94235B00002116
:10180000D150124A80239B000421D150144B002256
:101810001A7004200021FFF7AFFE0420FFF794FEAA
:101820000A4AC1239B000F49D1500420FFF776FEDE
:10183000064AA023DB000221D150FB68181CBD46DC
:1018400004B080BD800400207C04002000400040E3
:10185000140500000C050000540500005C050000A4
:10186000940400200204000090B585B000AF304B16
:101870001B78DBB2022B08D0032B2CD0012B00D01D
:1018800053E02C4B01225A624FE03B1C00221A709D
:101890003B1C00225A603B1C00229A60264B1A68AF
:1018A0000F23FB18511E8A411A700F23FB181B7857
:1018B00001225340DBB2002B05D0204B0020CA216F
:1018C0001A1CFEF769FC1C4B1C683B1C1868596805
:1018D0009A68A04729E03B1C01221A70154A184B50
:1018E000D2583B1C5A60134A164BD2583B1C9A6084
:1018F000114B1A680E23FB18511E8A411A700E23D1
:10190000FB181B7801225340DBB2002B05D00B4B98
:101910000020D3211A1CFEF73FFC074B1C683B1C20
:10192000186859689A68A047C046BD4605B090BD82
:101930009404002000400040980400209022000001
:101940003C0500004C05000080B582B000AF021CD1
:10195000FB1D1A70044BFA1D12781A70FFF784FFF2
:10196000BD4602B080BDC0469404002080B586B05C
:1019700000AFF860B960191CFB1D1A70BB1D0A1C72
:101980001A70FB68002B02D0BB68002B01D10E231C
:1019900025E0154B1B78DBB2012B19D002DC002BA4
:1019A00002D018E0032B16DC104BFA681A60104BBB
:1019B000BA681A60FB1D1A780E4B1A60BB1D1A78A4
:1019C0000D4B1A6000237B610120FFF7BDFF05E08E
:1019D00008237B6102E003237B61C0467B69181CFE
:1019E000BD4606B080BDC04694040020840400209B
:1019F000880400208C0400209004002080B500AFF3
:101A0000234A94235B00D358002B29D0204A9423E7
:101A10005B000021D1501F4B1B78DBB2012B00D0A3
:101A20001EE01B4A1C4B1B68191C1C4BD150184A4A
:101A30001B4B1B68191C1B4BD15015491A4B1A68BC
:101A4000A723DB00CA501249184B1A68A923DB00F0
:101A5000CA500F4B01229A620220FFF775FFC04661
:101A60000B4A82235B00D358002B0ED0084A8223F6
:101A70005B000021D150074B1B78DBB2022B00D05A
:101A800003E00320FFF760FFC046BD4680BDC046AF
:101A9000004000409404002084040020440500001D
:101AA0008804002034050000900400208C040020ED
:101AB00080B500AF024B034A1A60BD4680BDC046E8
:101AC000040000200024F40080B500AF00F01CF8F2
:101AD000031E06D0094B0A4A1A600A4B80221202E2
:101AE0001A6000F051F8031E05D08023DA05C123E7
:101AF000DB000121D150BD4680BDC0460405004039
:101B0000DFFF07C0186C004080B500AF1A4B1B68A0
:101B1000FF221340012B2AD1184B1B680F221340C0
:101B200025D1174B1B68F022134006D1154B1B68BB
:101B3000F022134001D101231AE0114B1B68F0225F
:101B40001340102B06D10F4B1B68F022134001D11C
:101B500001230DE00A4B1B68F0221340302B06D105
:101B6000084B1B68F022134001D1012300E0002341
:101B7000181CBD4680BDC046E00F00F0E40F00F029
:101B8000E80F00F0EC0F00F080B500AF0D4B1B68C4
:101B9000FF221340012B11D10B4B1B680F22134066
:101BA0000CD10A4B1B68F0221340402B06D1084B86
:101BB0001B68F022134001D1012300E00023181C10
:101BC000BD4680BDE00F00F0E40F00F0E80F00F02C
:101BD000EC0F00F003210A4802680A43026009483A
:101BE00002680A4302600849084A094B9B1A03DD50
:101BF000043BC858D050FBDC0648804706480047E5
:101C00002405004054050040D422000000000020BC
:101C100044040020C91A000021010000FEE7FEE78D
:101C2000FEE7FEE7FEE7FEE7002243088B4274D39F
:101C300003098B425FD3030A8B4244D3030B8B42CD
:101C400028D3030C8B420DD3FF22090212BA030CD6
:101C50008B4202D31212090265D0030B8B4219D3B7
:101C600000E0090AC30B8B4201D3CB03C01A5241D7
:101C7000830B8B4201D38B03C01A5241430B8B421F
:101C800001D34B03C01A5241030B8B4201D30B0308
:101C9000C01A5241C30A8B4201D3CB02C01A52412F
:101CA000830A8B4201D38B02C01A5241430A8B42F2
:101CB00001D34B02C01A5241030A8B4201D30B02DB
:101CC000C01A5241CDD2C3098B4201D3CB01C01AF5
:101CD000524183098B4201D38B01C01A52414309FF
:101CE0008B4201D34B01C01A524103098B4201D3ED
:101CF0000B01C01A5241C3088B4201D3CB00C01A5A
:101D0000524183088B4201D38B00C01A52414308D1
:101D10008B4201D34B00C01A5241411A00D20146F6
:101D2000524110467047FFE701B5002000F0FCF873
:101D300002BDC0460029F7D003B5FFF775FF0EBC02
:101D40004243891A1847C04603460B437FD40022FA
:101D500043088B4274D303098B425FD3030A8B423F
:101D600044D3030B8B4228D3030C8B420DD3FF22A9
:101D7000090212BA030C8B4202D31212090265D077
:101D8000030B8B4219D300E0090AC30B8B4201D32A
:101D9000CB03C01A5241830B8B4201D38B03C01A71
:101DA0005241430B8B4201D34B03C01A5241030BE8
:101DB0008B4201D30B03C01A5241C30A8B4201D399
:101DC000CB02C01A5241830A8B4201D38B02C01A44
:101DD0005241430A8B4201D34B02C01A5241030ABB
:101DE0008B4201D30B02C01A5241CDD2C3098B42A0
:101DF00001D3CB01C01A524183098B4201D38B011D
:101E0000C01A524143098B4201D34B01C01A5241BF
:101E100003098B4201D30B01C01A5241C3088B4204
:101E200001D3CB00C01A524183088B4201D38B00EF
:101E3000C01A524143088B4201D34B00C01A524191
:101E4000411A00D201465241104670475DE0CA0F68
:101E500000D04942031000D34042534000229C4628
:101E600003098B422DD3030A8B4212D3FC22890132
:101E700012BA030A8B420CD3890192118B4208D308
:101E8000890192118B4204D389013AD0921100E06A
:101E90008909C3098B4201D3CB01C01A524183097E
:101EA0008B4201D38B01C01A524143098B4201D3AB
:101EB0004B01C01A524103098B4201D30B01C01AD6
:101EC0005241C3088B4201D3CB00C01A5241830850
:101ED0008B4201D38B00C01A5241D9D243088B42A6
:101EE00001D34B00C01A5241411A00D20146634649
:101EF00052415B10104601D34042002B00D54942AD
:101F0000704763465B1000D3404201B5002000F0EB
:101F10000BF802BD0029F8D003B5FFF715FF0EBC82
:101F20004243891A1847C0467047C04610B5002181
:101F3000041C00F081F8044B1868C36B002B00D020
:101F40009847201C00F088F9C422000070B50D4E9F
:101F50000D4D0024AD1BAD1005D0A300F358013486
:101F60009847A542F9D100F079F9084E084D0024B0
:101F7000AD1BAD1005D0A300F35801349847A5421E
:101F8000F9D170BD34040020340400203404002052
:101F90003C04002070B583073FD0541E002A3BD07C
:101FA000CEB2031C032503E0621E002C34D0141CA7
:101FB00001335A1E16702B42F6D1032C24D9FF256B
:101FC0000D402A0215432A0415430F2C11D9261C53
:101FD000103E3609013636011A1C9B1915605560F2
:101FE0009560D56010329342F8D10F221440032C33
:101FF0000AD9261FB6080136B6001A1C9B1920C242
:102000009342FCD103221440002C05D0C9B21C1904
:1020100019700133A342FBD170BD141C031CCCE723
:1020200008B5034B002B02D0024800F089F808BD28
:102030000000000051210000F0B556465F464D46B5
:102040004446F0B40E1C3C4B87B01B6801900393D0
:102050004933FF330493A422039B52009F58002F5F
:102060004CD0049B984600239B46C4235B009C46AF
:10207000BC4463460293C6235B009A467C68BA441C
:10208000A5007D19013C08D526E06B1DFF331B68B8
:10209000B34204D0043D013C1ED3002EF5D17B6831
:1020A0006A68013BA3423AD05B466B60002AF1D0DC
:1020B0007B68029999460123A3400968059119425A
:1020C00023D190477B684B45C5D143461B68BB4233
:1020D000C1D1043D013CE0D2184B002B0ED07B68EF
:1020E000002B23D13B68002B24D04246381C1360C0
:1020F00000E000BF43461F68002FB6D107B03CBCCC
:1021000090469946A246AB46F0BD51460968194231
:1021100007D12B1C8433196801989047D2E77C6063
:10212000C4E72B1C843318689047CBE73B68B8465C
:102130001F1CE1E70023FAE7C422000000000000B2
:1021400008B5011C00220020002300F01BF808BD88
:1021500038B5094B094CE41AA41009D0084AA5184F
:10216000AD00ED182B68013C9847043D002CF9D1D7
:1021700000F07AF838BDC0463C040020400400203E
:10218000FFFFFF3FF8B544465F4656464D469B4627
:102190002F4BF0B41C68A4235B00051CE0580E1CF8
:1021A000904600284BD043681F2B0DDC5C1C002D93
:1021B00021D102339B0044601E5000203CBC90465D
:1021C0009946A246AB46F8BD224B002B3CD0C82016
:1021D000400000E000BF002836D0A42200235200B7
:1021E000A15843600160A0504032835004328350B4
:1021F0000124002DDDD09A00914681444246882179
:102200004F467A50C4225200904680444246873955
:10221000994012688A460A439446424661461160D4
:10222000842249465F4652008F50022DC1D1021CC4
:1022300055468D32FF3211680D431560B9E7201CF9
:102240004D30FF30E050AEE701204042B6E7C046D7
:10225000C422000000000000FEE7C046F8B5C046FA
:10226000F8BC08BC9E467047F8B5C046F8BC08BC30
:102270009E4670472E2E2F6D61696E5F636D2E63D3
:10228000000000002E2E2F7370692E6300000000E6
:102290002E2E2F2E2E2F2E2E2F2E2E2F2E2E2F2F58
:1022A000536F757263652F7370695F736C617665C8
:1022B0002F7370695F736C6176652E630000000098
:0C22C000430000000800002000000000A7
:0822CC0054DEFF7F0100000059
:1022D400000000000024F40000000000F4020020CC
:1022E4005C030020C4030020000000000000000084
:1022F40000000000000000000000000000000000DA
:10230400000000000000000000000000C0220000E7
:1023140000000000000000000000000000000000B9
:1023240000000000000000000000000000000000A9
:102334000000000000000000000000000000000099
:102344000000000000000000000000000000000089
:102354000000000000000000000000000000000079
:102364000000000000000000000000000000000069
:102374000000000000000000000000000000000059
:1023840001000000000000000E33CDAB34126DE6F6
:10239400ECDE05000B00000000000000000000005F
:1023A4000000000000000000000000000000000029
:1023B4000000000000000000000000000000000019
:1023C4000000000000000000000000000000000009
:1023D40000000000000000000000000000000000F9
:102704000800002021200000E9000000C1000000B2
:0427140000000000C1
:0400000300001BD509
:00000001FF
