:1000000000400020B1190000F9190000FB190000A0
:1000100000000000000000000000000000000000E0
:10002000000000000000000000000000FD190000BA
:100030000000000000000000FF190000011A00008D
:10004000031A0000DD050000031A0000031A000077
:10005000D917000000000000031A0000031A000076
:10006000810C0000031A0000031A0000031A0000AC
:10007000031A0000031A0000031A0000031A00000C
:10008000031A0000031A0000031A0000031A0000FC
:10009000031A0000031A0000031A0000031A0000EC
:1000A000031A0000031A0000000000000000000016
:1000B0000000000000000000000000000000000040
:1000C00010B5064C2378002B07D1054B002B02D02E
:1000D000044800E000BF0123237010BD4404002049
:1000E00000000000A420000008B5084B002B03D03E
:1000F0000748084900E000BF07480368002B00D10B
:1001000008BD064B002BFBD09847F9E70000000024
:10011000A42000004804002040040020000000004B
:10012000164B002B00D1144B9D46402292029A1A86
:10013000924600218B460F461348144A121A01F0CA
:1001400017FE0F4B002B00D098470E4B002B00D012
:1001500098470020002104000D000D48002802D01F
:100160000C4801F0DBFE01F0DFFD2000290000F06B
:100170004BF801F0C9FDC046000008000040002017
:10018000000000000000000044040020302F002088
:100190001D1F00002D1F000080B584B000AFF86067
:1001A000B9607A60FEE7C04680B582B000AF8023B8
:1001B000DA0580235B000021D1508023DB0501227A
:1001C0001A60C0468023DA0580235B00D358002BD9
:1001D000F8D000F043FF031C7B607B683B603B680A
:1001E000002B06D03A68074B101C2D211A1CFFF774
:1001F000D3FF00F01DF900F0F5FC62B6BD4602B079
:1002000080BDC0465020000080B500AFFFF7CCFF96
:1002100000F0B6F9C82000F019FD00F0C5FB021C83
:100220003C4B1A603B4B1B68002B00D170E03A4BF3
:1002300000221A70374B1B681B78181C052101F02F
:10024000E1FB031CDAB2354B1A70344B1B78002BE0
:1002500052D001F045F8031C1A1C304B1B789A420F
:100260004DD92F4B01221A702E4B00221A7039E003
:1002700000F0B6FF021C2C4B1A602B4B1B68002BA6
:100280002AD0294B1B68AA221A70284B00221A7008
:1002900016E0254B1A68254B1B780133D2181D4BED
:1002A0001B681F490978081C2049097841185B1808
:1002B0001B7813701D4B1B780133DAB21B4B1A707D
:1002C0001A4B1B78042BE4D900F0B4FF144B1B78B5
:1002D0000533DAB2124B1A70124B1B780133DAB2C3
:1002E000104B1A700F4B1A780C4B1B789A42BFD3E5
:1002F000094B01221A7002E0074B01221A70064BCB
:100300001B78002B02D000F079FB01E000F082FBAB
:1003100083E7C046A80400209C0400209E0400201F
:10032000A5040020A4040020A00400209D040020B7
:1003300080B582B000AF021CFB1D1A70064BFA1D7F
:100340001278111C1F220A40012191400A1C1A60D8
:10035000BD4602B080BDC04600E100E0B0B582B04D
:1003600000AF021C3960FB1D1A70FB1D1B787F2B30
:100370002FD92D4CFB1D1B781A1C0F231340083B53
:100380009908294AFB1D1B78181C0F230340083BC2
:100390009B0806339B00D3185B68FA1D1278101C6B
:1003A00003220240D200101CFF228240D2431A4096
:1003B0003B689B01FF200340F81D0078051C0320CB
:1003C0002840C00083401A438B1D9B00E3185A60ED
:1003D00026E0164CFB1D1B785BB29B081349FA1DE7
:1003E000127852B29208C03292005258F91D097820
:1003F000081C03210140C900081CFF218140C9439A
:1004000011403A689201FF200240F81D0078051C57
:1004100003202840C00082400A43C0339B001A5189
:10042000BD4602B0B0BDC04600ED00E000E100E016
:1004300080B500AF3B4B00221A603B4B00221A7084
:100440003A4B01221A703A4A3A4B0421D150384AA9
:10045000A123DB000721D150354AA223DB00012173
:10046000D150334A344B3549D150314AA523DB00B2
:100470003349D1502E4A334B3349D1502C4AA4230F
:10048000DB003249D1502A4A314B0021D150284A51
:10049000A623DB000121D150254A2E4B0021D1504B
:1004A000234AA323DB002C49D150214A2B4B0221A4
:1004B000D1501F4A294BD35803221340022B09D194
:1004C0001B4A274B2749D150194AA723DB0026494D
:1004D000D15010E0164A214BD35803221340012B70
:1004E00009D1134A1E4BFF21D1501149A723DB002C
:1004F0000822FF32CA500E4A80239B000321D150AC
:100500000B4AC1239B001921D15001200021FFF784
:1005100025FF0120FFF70CFF032000F053F9BD4633
:1005200080BDC046B0040020AE040020AC04002012
:10053000001000400C05000024050000E7C2C3C401
:10054000C8C7C6C51C050000E7E7E7E7C2C2C2008E
:100550002C0500001405000082820401340500000F
:100560003C050000FFFF00002110010080B500AF36
:10057000024B01221A70BD4680BDC046AD0400206A
:1005800080B500AF024B00221A70BD4680BDC04648
:10059000AD04002080B500AF024B1B78181CBD468F
:1005A00080BDC046AE04002080B582B000AF021C02
:1005B000FB1D1A70034BFA1D12781A70BD4602B06B
:1005C00080BDC046AC04002080B500AF024B1B7854
:1005D000181CBD4680BDC046AC04002080B582B06A
:1005E00000AF5F4A80235B00D358012B5AD15C4A8D
:1005F000C1239B00D3580122134053D0584A802373
:100600005B000021D150574B1B7801225340DBB2D5
:10061000002B47D000F044F9031C3B603B68002BE3
:1006200038D04F4A80239B002121D1504C493B6850
:100630004D4A8B504D4B01221A7000F09DF83B68DB
:100640001B78AA2B25D13B6801331B78802B20D146
:1006500002237B601AE07B683A68D3181A78444B0F
:100660001B78D31A5A1E9341DAB2424B1A70414B8F
:100670001B78002B07D03F4B00221A703B689A78FA
:100680003B4B1A7005E07B6801337B607B68412B34
:10069000E1DD07E0324A80239B000321D150334B38
:1006A00000221A702E4A86235B00D358012B34D1C6
:1006B0002B4AC1239B00D358082213402DD0284A2F
:1006C00086235B000021D150264B1B78012253402A
:1006D000DBB2002B21D0254B1B78002B1DD000F066
:1006E000DFF8031C3B603B68002B0ED01C4A8023C4
:1006F0009B002121D1501A493B681B4A8B501B4B50
:1007000001221A7000F038F807E0154A80239B0098
:100710000321D150154B00221A70114A88235B0027
:10072000D358012B18D10E4AC1239B00D358102255
:10073000134011D00A4A88235B000021D150094B95
:100740001B7801225340DBB2002B05D00120FFF7BC
:100750002BFF064B00221A70BD4602B080BDC0467A
:1007600000100040AD04002004050000AE0400208D
:10077000600400206104002080B500AF034B1B68BB
:1007800080331A1C014B1A60BD4680BDB0040020A6
:1007900080B582B000AF7860C046C046C046C04653
:1007A000C046C046C046C046C046C046C046C04619
:1007B000C046C0467B68013B7B60002BECD1BD4648
:1007C00002B080BD80B582B000AF786006E07B6883
:1007D000013B7B60044B181CFFF7DAFF7B68002BA2
:1007E000F5D1BD4602B080BDE703000080B582B000
:1007F00000AF174B1B78302B1FD8164B1B68002BF4
:1008000004DD144B1B685A1E124B1A60124B1B78E6
:100810001A1C131C9B019B185B00104A9B187B60E1
:100820000D4B1B780133181C322101F061FA0B1CAF
:10083000DAB2094B1A707B6805E0064B1B685A1C3C
:10084000044B1A600023181CBD4602B080BDC04690
:10085000660400206804002065040020B404002021
:1008600080B500AF034B1B780133DAB2014B1A702D
:10087000BD4680BD6604002080B500AF074B1B78E5
:10088000002B03D1054B31221A7005E0034B1B7876
:10089000013BDAB2014B1A70BD4680BD65040020F1
:1008A00080B582B000AF134B1B78002B1CD0124BCD
:1008B0001B781A1C131C9B019B185B000F4A9B188A
:1008C0007B600D4B1B780133181C322101F010FAAC
:1008D0000B1CDAB2084B1A70064B1B78013BDAB2DC
:1008E000044B1A707B6800E00023181CBD4602B060
:1008F00080BDC0466604002064040020B4040020CB
:1009000080B500AF024B1B78181CBD4680BDC046A9
:100910006604002080B582B000AF104B1B781D2B01
:1009200016D80F4B1B781A1C131C9B019B185B00DD
:100930000C4A9B187B600A4B1B780133181C1E2144
:1009400001F0D6F90B1CDAB2054B1A707B6800E097
:100950000023181CBD4602B080BDC0466E040020B6
:100960006D040020181E002080B500AF034B1B78DB
:100970000133DAB2014B1A70BD4680BD6E0400200F
:1009800080B500AF074B1B78002B03D1054B1D2210
:100990001A7005E0034B1B78013BDAB2014B1A7069
:1009A000BD4680BD6D04002080B582B000AF104B05
:1009B0001B78002B16D00F4B1B781A1C131C9B01A5
:1009C0009B185B000C4A9B187B600A4B1B78013319
:1009D000181C1E2101F08CF90B1CDAB2054B1A70A1
:1009E0007B6800E00023181CBD4602B080BDC046F5
:1009F0006E0400206C040020181E002080B500AF9B
:100A0000034B1B78013BDAB2014B1A70BD4680BD27
:100A10006E04002080B500AF074B1B781D2B03D15F
:100A2000054B00221A7005E0034B1B780133DAB244
:100A3000014B1A70BD4680BD6C04002080B500AF2C
:100A4000024B1B78181CBD4680BDC0466E040020BA
:100A500080B582B000AF021CFB1D1A70064BFA1D58
:100A60001278111C1F220A40012191400A1C1A60B1
:100A7000BD4602B080BDC04600E100E080B582B056
:100A800000AF021CFB1D1A70074AFB1D1B78191CC6
:100A90001F230B40012199400B1C191C8023D150AE
:100AA000BD4602B080BDC04600E100E080B582B026
:100AB00000AF021CFB1D1A70074AFB1D1B78191C96
:100AC0001F230B40012199400B1C191CC0235B0004
:100AD000D150BD4602B080BD00E100E0B0B582B0AB
:100AE00000AF021C3960FB1D1A70FB1D1B787F2BA9
:100AF0002FD92D4CFB1D1B781A1C0F231340083BCC
:100B00009908294AFB1D1B78181C0F230340083B3A
:100B10009B0806339B00D3185B68FA1D1278101CE3
:100B200003220240D200101CFF228240D2431A400E
:100B30003B689B01FF200340F81D0078051C032043
:100B40002840C00083401A438B1D9B00E3185A6065
:100B500026E0164CFB1D1B785BB29B081349FA1D5F
:100B6000127852B29208C03292005258F91D097898
:100B7000081C03210140C900081CFF218140C94312
:100B800011403A689201FF200240F81D0078051CD0
:100B900003202840C00082400A43C0339B001A5102
:100BA000BD4602B0B0BDC04600ED00E000E100E08F
:100BB00080B582B000AF7860C046C046C046C0462F
:100BC000C046C046C046C046C046C046C046C046F5
:100BD000C046C0467B68013B7B60002BECD1BD4624
:100BE00002B080BD80B500AF144B00221A70144BC8
:100BF00000225A70134A144B0021D150114AA123EC
:100C0000DB000321D1500F4AA223DB000421D15085
:100C10000C4980239B0080225200CA500949C123FD
:100C20009B0080225202CA5008200121FFF756FF84
:100C30000820FFF70DFFBD4680BDC046D62D002021
:100C4000542D0020008000400405000080B584B0D1
:100C500000AF78607B68FA2292005343FB6007493B
:100C6000A823DB00FA68CA50044B0122DA60034B68
:100C700001221A60BD4604B080BDC046008000401D
:100C800080B584B000AF854AA0235B00D358012B08
:100C900000D0FFE0814AC1239B00D25880235B0231
:100CA000134000D1F6E07D4AA0235B000021D15023
:100CB000FFF730FE031C7B607B68002B00D1C8E08F
:100CC000FFF754FC764A80239B000321D150C04695
:100CD000734AAA23DB00D3580F221340F8D1704A7D
:100CE000C2239B001921D1500120FFF7C7FEFFF757
:100CF00051FC031E04D06A4A6A4BD358FB600BE0D8
:100D0000FFF7CEFD031CFB60FB68002B02D1664B96
:100D1000FB6001E0FFF730FD644B1B78002B03D034
:100D2000FB6802221A7002E0FB6801221A705C491B
:100D3000FB685C4A8B505A4A88235B000021D150E3
:100D4000574B01221A60C046554A88235B00D3588E
:100D5000002BF9D0524A80239B000121D1505049E9
:100D60007B68504A8B504E4A86235B000021D1504D
:100D70000A23BB604A4B01225A600BE0BB685A1E33
:100D8000BA60002B05DBFA239B00181CFFF710FF4D
:100D900000E005E0424A86235B00D358002BEDD0EB
:100DA000BB68002B11DB3E4A8023DB00D358012BAC
:100DB00005D13E4B00221A70FFF7D6FD0AE03B4BEF
:100DC00001221A70FFF7DCFD04E0384B01221A7093
:100DD000FFF7D6FD324A88235B000021D150304B0B
:100DE00001221A61C0462E4A88235B00D358002B8B
:100DF000F9D02B4A86235B000021D150284A80235A
:100E00005B000021D150264A80239B000321D15052
:100E1000234AC1239B001921D150FFF7B1FB0120C8
:100E2000FFF744FE0120FFF713FEFFF739FD031C17
:100E3000FB60FB68002B2AD00020FFF7B5FB1849A8
:100E4000FB68184A8B50164B01221A60FFF794FC7E
:100E50001DE0134AAA23DB00D3580F22134016D0FB
:100E6000FFF7B2FB031E12D0FFF71AFD031CFB6055
:100E7000FB68002B0BD00020FFF796FB0849FB68AE
:100E8000084A8B50064B01221A60FFF775FCC820F8
:100E9000FFF7DCFEBD4604B080BDC04600800040C8
:100EA0000010004004050000542D0020D62D002025
:100EB00080B58AB000AF3B1D186059609A603B1D39
:100EC0001B78012B00D0B1E05A4B1B6801331B7813
:100ED000AA2B05D1584B1B6880331A1C564B1A603D
:100EE000544B1A68554B9A4227D0524B1B6801331A
:100EF0001B78AA2B05D04F4B1B6801331B78FF2BA7
:100F000019D14C4B1B6801331B78AA2B0BD1494BD1
:100F10001B68013380221A70494B1B6880331A1CEE
:100F2000474B1A6004E0434B1B68013304221A70DC
:100F3000FFF796FC01E0FFF79FFC424B1A68424B1B
:100F40009A4201D000F0C0F9FFF750FC031CFB618E
:100F5000FB69002B01D1394BFB6100F08BF9031CBD
:100F60003B623B6A002B01D1374B3B622723FB18C6
:100F700000221A7012E02723FB181B7881332722E6
:100F8000BA181278396A8A181178304AD15427234E
:100F9000FB181A782723FB1801321A702723FB1835
:100FA0001B78052BE7D9FB6900221A70FB69013316
:100FB000264A101C191C8722812300F0C5FB031C44
:100FC000BB61204B3A6A1A601A4BFA691A60BB6916
:100FD0007B617B69002B06D07A691D4B101C5E215A
:100FE0001A1CFFF7D9F8FFF7EFFA031E1ED0194AB3
:100FF000AA23DB00D3580F22134017D1FFF780FC40
:10100000031E132B12D9FFF74BFC031C3B613B69FA
:10101000002B0BD00020FFF7C7FA0E493B690E4AA0
:101020008B500C4B01221A60FFF7A6FBBD460AB09D
:1010300080BDC046682E0020740400206C2E002065
:1010400070040020F02E0020D82D0020E02D00207C
:1010500060200000001000400405000080B58CB046
:1010600000AF584B181C00F0DFF9031CBB62BB6AD1
:101070007B627B6A002B06D07A6A534B101C792165
:101080001A1CFFF789F83B1C04221A603B1C06223D
:101090005A603B1C00229A603B1C0222DA603B1C17
:1010A00000221A743B1C01225A743B1C00229A74C1
:1010B0003B1C0022DA743B1C181C00F0E5F9031CF1
:1010C000BB62BB6A3B623B6A002B06D03A6A3E4B6E
:1010D000101C85211A1CFFF75FF82F23FB18002234
:1010E0001A700CE02F23FB181B78384A0021D154CA
:1010F0002F23FB181A782F23FB1801321A702F2385
:10110000FB181B78052BEDD92F23FB1800221A7032
:101110000CE02F23FB181B782D4A0021D1542F23DC
:10112000FB181A782F23FB1801321A702F23FB1893
:101130001B78862BEDD9FFF759FB031CFB61FB697C
:10114000002B1ED0FB690133214A101C191C872279
:10115000812300F0F9FA031CBB621E4B1B4A1A6084
:101160001D4BFA691A60BB6ABB61BB69002B07D0D3
:10117000BA69154B101CA9211A1CFFF70DF81CE0C9
:101180001BE0134A154B101C191C8722822300F008
:10119000DBFA031CBB620F4B0C4A1A600E4B0F4A62
:1011A0001A60BB6A7B617B69002B06D07A69064BAB
:1011B000101CB0211A1CFEF7EFFF0023181CBD46BF
:1011C0000CB080BDB10E000060200000D82D0020C2
:1011D000E02D0020F02E0020682E00206C2E002034
:1011E00080B582B000AF104B1B78092B16D80F4B7F
:1011F0001B781A1C131C5B009B185B000C4A9B1885
:101200007B600A4B1B780133181C0A2100F070FD2B
:101210000B1CDAB2054B1A707B6800E00023181C27
:10122000BD4602B080BDC0467A040020790400208B
:10123000F42E002080B500AF034B1B780133DAB2E7
:10124000014B1A70BD4680BD7A04002080B500AF06
:10125000074B1B78002B03D1054B09221A7005E0C0
:10126000034B1B78013BDAB2014B1A70BD4680BDBF
:101270007904002080B582B000AF104B1B78002BA2
:1012800016D00F4B1B781A1C131C5B009B185B00BD
:101290000C4A9B187B600A4B1B780133181C0A21EF
:1012A00000F026FD0B1CDAB2054B1A707B6800E0DB
:1012B0000023181CBD4602B080BDC0467A04002041
:1012C00078040020F42E002080B500AF034B1B787B
:1012D000013BDAB2014B1A70BD4680BD7A04002092
:1012E00080B500AF034B1B780A22D31ADBB2181C5F
:1012F000BD4680BD7A04002080B582B000AF021CDC
:10130000FB1D1A70064BFA1D1278111C1F220A4091
:10131000012191400A1C1A60BD4602B080BDC04642
:1013200000E100E080B582B000AF021CFB1D1A7026
:10133000074AFB1D1B78191C1F230B4001219940F4
:101340000B1C191CC0235B00D150BD4602B080BDF0
:1013500000E100E0B0B582B000AF021C3960FB1DB7
:101360001A70FB1D1B787F2B2FD92D4CFB1D1B7872
:101370001A1C0F231340083B9908294AFB1D1B78B0
:10138000181C0F230340083B9B0806339B00D3180F
:101390005B68FA1D1278101C03220240D200101C58
:1013A000FF228240D2431A403B689B01FF2003404A
:1013B000F81D0078051C03202840C00083401A4314
:1013C0008B1D9B00E3185A6026E0164CFB1D1B7812
:1013D0005BB29B081349FA1D127852B29208C032D0
:1013E00092005258F91D0978081C03210140C900D8
:1013F000081CFF218140C94311403A689201FF2037
:101400000240F81D0078051C03202840C0008240DF
:101410000A43C0339B001A51BD4602B0B0BDC0465E
:1014200000ED00E000E100E080B582B000AF786040
:10143000064B7A681A60054B1B68002B01D000230D
:1014400000E00E23181CBD4602B080BD98040020A9
:1014500080B582B000AF7860034B7A681A60C046EE
:10146000BD4602B080BDC0467C04002080B582B07D
:1014700000AF7860034B7A681A60C046BD4602B080
:1014800080BDC0468004002080B584B000AF786085
:101490007B68002B01D10E23BEE0A023DA057B6818
:1014A00018685F4B1B681902031CC133FF339B0094
:1014B0009950A023DA057B68D8685A4B1B689900BD
:1014C000031CC133FF339B009950A023DA057B68CE
:1014D0005B68C133FF339B0000219950A023DA05DC
:1014E0007B689B68C133FF339B00002199504E49B4
:1014F0007B68DB684D4A8B504B497B689A68A12317
:10150000DB00CA5048497B685A68A223DB00CA50F6
:1015100045497B681B68464A8B50434AA723DB003A
:101520000021D150404AA923DB000021D1500023E3
:10153000BB600023FB607B681B7C012B0BD002DCB3
:10154000002B05D010E0022B08D0032B09D00BE0B4
:101550000023BB600BE00223BB6008E00423BB60F8
:1015600005E00623BB6002E00723FB60C046FB6882
:10157000002B01D0FB684FE07B685B7C002B13D114
:101580002949BB68012213432A4A8B50264A7B68AB
:101590009B7C191C284BD150234A7B68DB7C191C8F
:1015A000B823DB00D15010E01F49224ABB688B50A2
:1015B0001D4A7B689B7C191C1F4BD1501A4A7B68C3
:1015C000DB7C191CB823DB00D150174A82235B0057
:1015D0000021D150144A94235B000021D150124ABB
:1015E00080239B000421D150144B00221A70042048
:1015F0000021FFF7AFFE0420FFF794FE0A4AC12343
:101600009B000F49D1500420FFF776FE064AA02325
:10161000DB000221D150FB68181CBD4604B080BD20
:10162000800400207C0400200040004014050000DD
:101630000C050000540500005C0500009404002027
:101640000204000090B585B000AF304B1B78DBB2D0
:10165000022B08D0032B2CD0012B00D053E02C4BB5
:1016600001225A624FE03B1C00221A703B1C0022F0
:101670005A603B1C00229A60264B1A680F23FB1805
:10168000511E8A411A700F23FB181B780122534008
:10169000DBB2002B05D0204B0020CA211A1CFEF71C
:1016A0007BFD1C4B1C683B1C186859689A68A04756
:1016B00029E03B1C01221A70154A184BD2583B1CDA
:1016C0005A60134A164BD2583B1C9A60114B1A6849
:1016D0000E23FB18511E8A411A700E23FB181B782B
:1016E00001225340DBB2002B05D00B4B0020D3214D
:1016F0001A1CFEF751FD074B1C683B1C1868596803
:101700009A68A047C046BD4605B090BD940400202D
:1017100000400040980400206C2000003C050000C0
:101720004C05000080B582B000AF021CFB1D1A7092
:10173000044BFA1D12781A70FFF784FFBD4602B001
:1017400080BDC0469404002080B586B000AFF8602C
:10175000B960191CFB1D1A70BB1D0A1C1A70FB68AE
:10176000002B02D0BB68002B01D10E2325E0154BC6
:101770001B78DBB2012B19D002DC002B02D018E061
:10178000032B16DC104BFA681A60104BBA681A600B
:10179000FB1D1A780E4B1A60BB1D1A780D4B1A6090
:1017A00000237B610120FFF7BDFF05E008237B617B
:1017B00002E003237B61C0467B69181CBD4606B06E
:1017C00080BDC046940400208404002088040020CA
:1017D0008C0400209004002080B500AF234A94239D
:1017E0005B00D358002B29D0204A94235B000021B2
:1017F000D1501F4B1B78DBB2012B00D01EE01B4ADF
:101800001C4B1B68191C1C4BD150184A1B4B1B68E6
:10181000191C1B4BD15015491A4B1A68A723DB0022
:10182000CA501249184B1A68A923DB00CA500F4B43
:1018300001229A620220FFF775FFC0460B4A8223FD
:101840005B00D358002B0ED0084A82235B00002196
:10185000D150074B1B78DBB2022B00D003E00320F2
:10186000FFF760FFC046BD4680BDC0460040004057
:101870009404002084040020440500008804002013
:1018800034050000900400208C04002080B500AFD7
:10189000024B034A1A60BD4680BDC04604000020CA
:1018A0000024F40080B500AF00F01CF8031E06D041
:1018B000094B0A4A1A600A4B802212021A6000F091
:1018C00051F8031E05D08023DA05C123DB00012176
:1018D000D150BD4680BDC04604050040DFFF07C0B3
:1018E000186C004080B500AF1A4B1B68FF221340F4
:1018F000012B2AD1184B1B680F22134025D1174BFF
:101900001B68F022134006D1154B1B68F0221340D0
:1019100001D101231AE0114B1B68F0221340102B58
:1019200006D10F4B1B68F022134001D101230DE0BB
:101930000A4B1B68F0221340302B06D1084B1B6862
:10194000F022134001D1012300E00023181CBD4602
:1019500080BDC046E00F00F0E40F00F0E80F00F09B
:10196000EC0F00F080B500AF0D4B1B68FF22134059
:10197000012B11D10B4B1B680F2213400CD10A4BCA
:101980001B68F0221340402B06D1084B1B68F02245
:10199000134001D1012300E00023181CBD4680BD87
:1019A000E00F00F0E40F00F0E80F00F0EC0F00F0A3
:1019B00003210A4802680A430260094802680A4390
:1019C00002600849084A094B9B1A03DD043BC858CA
:1019D000D050FBDC064880470648004724050040FD
:1019E00054050040B0200000000000204404002006
:1019F000A518000021010000FEE7FEE7FEE7FEE774
:101A0000FEE7FEE7002243088B4274D303098B42B2
:101A10005FD3030A8B4244D3030B8B4228D3030CBE
:101A20008B420DD3FF22090212BA030C8B4202D360
:101A30001212090265D0030B8B4219D300E0090A88
:101A4000C30B8B4201D3CB03C01A5241830B8B4291
:101A500001D38B03C01A5241430B8B4201D34B037A
:101A6000C01A5241030B8B4201D30B03C01A5241DF
:101A7000C30A8B4201D3CB02C01A5241830A8B4264
:101A800001D38B02C01A5241430A8B4201D34B024D
:101A9000C01A5241030A8B4201D30B02C01A5241B1
:101AA000CDD2C3098B4201D3CB01C01A5241830965
:101AB0008B4201D38B01C01A524143098B4201D39F
:101AC0004B01C01A524103098B4201D30B01C01ACA
:101AD0005241C3088B4201D3CB00C01A5241830844
:101AE0008B4201D38B00C01A524143088B4201D371
:101AF0004B00C01A5241411A00D2014652411046D1
:101B00007047FFE701B5002000F0FCF802BDC046B9
:101B10000029F7D003B5FFF775FF0EBC4243891AC1
:101B20001847C04603460B437FD4002243088B422C
:101B300074D303098B425FD3030A8B4244D3030B54
:101B40008B4228D3030C8B420DD3FF22090212BA19
:101B5000030C8B4202D31212090265D0030B8B4295
:101B600019D300E0090AC30B8B4201D3CB03C01A7F
:101B70005241830B8B4201D38B03C01A5241430B5A
:101B80008B4201D34B03C01A5241030B8B4201D34A
:101B90000B03C01A5241C30A8B4201D3CB02C01AB5
:101BA0005241830A8B4201D38B02C01A5241430A2D
:101BB0008B4201D34B02C01A5241030A8B4201D31C
:101BC0000B02C01A5241CDD2C3098B4201D3CB01C3
:101BD000C01A524183098B4201D38B01C01A524172
:101BE00043098B4201D34B01C01A524103098B4276
:101BF00001D30B01C01A5241C3088B4201D3CB0061
:101C0000C01A524183088B4201D38B00C01A524143
:101C100043088B4201D34B00C01A5241411A00D2F3
:101C200001465241104670475DE0CA0F00D049425C
:101C3000031000D34042534000229C4603098B42CC
:101C40002DD3030A8B4212D3FC22890112BA030A54
:101C50008B420CD3890192118B4208D389019211D6
:101C60008B4204D389013AD0921100E08909C3095B
:101C70008B4201D3CB01C01A524183098B4201D35D
:101C80008B01C01A524143098B4201D34B01C01A48
:101C9000524103098B4201D30B01C01A5241C308C0
:101CA0008B4201D3CB00C01A524183088B4201D32F
:101CB0008B00C01A5241D9D243088B4201D34B004A
:101CC000C01A5241411A00D20146634652415B108C
:101CD000104601D34042002B00D54942704763466D
:101CE0005B1000D3404201B5002000F00BF802BDAC
:101CF0000029F8D003B5FFF715FF0EBC4243891A3F
:101D00001847C0467047C04610B50021041C00F0BB
:101D100081F8044B1868C36B002B00D09847201C37
:101D200000F088F9A020000070B50D4E0D4D002484
:101D3000AD1BAD1005D0A300F35801349847A54260
:101D4000F9D100F079F9084E084D0024AD1BAD1013
:101D500005D0A300F35801349847A542F9D170BDCE
:101D60003404002034040020340400203C0400200B
:101D700070B583073FD0541E002A3BD0CEB2031C5F
:101D8000032503E0621E002C34D0141C01335A1EBC
:101D900016702B42F6D1032C24D9FF250D402A02C0
:101DA00015432A0415430F2C11D9261C103E360961
:101DB000013636011A1C9B19156055609560D56077
:101DC00010329342F8D10F221440032C0AD9261F57
:101DD000B6080136B6001A1C9B1920C29342FCD1EA
:101DE00003221440002C05D0C9B21C19197001330C
:101DF000A342FBD170BD141C031CCCE708B5034BF8
:101E0000002B02D0024800F089F808BD0000000055
:101E10002D1F0000F0B556465F464D464446F0B4CF
:101E20000E1C3C4B87B01B68019003934933FF3372
:101E30000493A422039B52009F58002F4CD0049B74
:101E4000984600239B46C4235B009C46BC446346E3
:101E50000293C6235B009A467C68BA44A5007D19AC
:101E6000013C08D526E06B1DFF331B68B34204D04C
:101E7000043D013C1ED3002EF5D17B686A68013B0E
:101E8000A3423AD05B466B60002AF1D07B6802998E
:101E900099460123A34009680591194223D190472F
:101EA0007B684B45C5D143461B68BB42C1D1043D4D
:101EB000013CE0D2184B002B0ED07B68002B23D1C5
:101EC0003B68002B24D04246381C136000E000BF62
:101ED00043461F68002FB6D107B03CBC90469946D8
:101EE000A246AB46F0BD51460968194207D12B1CEA
:101EF0008433196801989047D2E77C60C4E72B1CB3
:101F0000843318689047CBE73B68B8461F1CE1E76D
:101F10000023FAE7A02000000000000008B5011C23
:101F200000220020002300F01BF808BD38B5094B43
:101F3000094CE41AA41009D0084AA518AD00ED1800
:101F40002B68013C9847043D002CF9D100F07AF849
:101F500038BDC0463C04002040040020FFFFFF3F86
:101F6000F8B544465F4656464D469B462F4BF0B467
:101F70001C68A4235B00051CE0580E1C904600283A
:101F80004BD043681F2B0DDC5C1C002D21D102338C
:101F90009B0044601E5000203CBC90469946A246DF
:101FA000AB46F8BD224B002B3CD0C820400000E0DF
:101FB00000BF002836D0A42200235200A15843605D
:101FC0000160A05040328350043283500124002D20
:101FD000DDD09A0091468144424688214F467A508E
:101FE000C422520090468044424687399940126884
:101FF0008A460A4394464246614611608422494615
:102000005F4652008F50022DC1D1021C55468D32C1
:10201000FF3211680D431560B9E7201C4D30FF30C9
:10202000E050AEE701204042B6E7C046A0200000E5
:1020300000000000FEE7C046F8B5C046F8BC08BC8A
:102040009E467047F8B5C046F8BC08BC9E4670472F
:102050002E2E2F6D61696E5F636D2E630000000090
:102060002E2E2F7370692E63000000002E2E2F2E4F
:102070002E2F2E2E2F2E2E2F2E2E2F2F536F75728A
:1020800063652F7370695F736C6176652F73706918
:102090005F736C6176652E630000000043000000F2
:0820A000080000200000000010
:0820A80078E0FF7F0100000059
:1020B000000000000024F40000000000F4020020F2
:1020C0005C030020C40300200000000000000000AA
:1020D0000000000000000000000000000000000000
:1020E0000000000000000000000000009C20000034
:1020F00000000000000000000000000000000000E0
:1021000000000000000000000000000000000000CF
:1021100000000000000000000000000000000000BF
:1021200000000000000000000000000000000000AF
:10213000000000000000000000000000000000009F
:10214000000000000000000000000000000000008F
:10215000000000000000000000000000000000007F
:1021600001000000000000000E33CDAB34126DE61C
:10217000ECDE05000B000000000000000000000085
:10218000000000000000000000000000000000004F
:10219000000000000000000000000000000000003F
:1021A000000000000000000000000000000000002F
:1021B000000000000000000000000000000000001F
:1024E00008000020FD1D0000E9000000C100000000
:0424F00000000000E8
:04000003000019B12F
:00000001FF
