:1000000000400020151A00005D1A00005F1A000071
:1000100000000000000000000000000000000000E0
:10002000000000000000000000000000611A000055
:100030000000000000000000631A0000651A0000C4
:10004000671A0000F5050000671A0000671A000033
:100050003D18000000000000671A0000671A000049
:10006000710C0000671A0000671A0000671A000090
:10007000671A0000671A0000671A0000671A00007C
:10008000671A0000671A0000671A0000671A00006C
:10009000671A0000671A0000671A0000671A00005C
:1000A000671A0000671A000000000000000000004E
:1000B0000000000000000000000000000000000040
:1000C00010B5064C2378002B07D1054B002B02D02E
:1000D000044800E000BF0123237010BD4404002049
:1000E000000000000421000008B5084B002B03D0DD
:1000F0000748084900E000BF07480368002B00D10B
:1001000008BD064B002BFBD09847F9E70000000024
:1001100004210000480400204004002000000000EA
:10012000164B002B00D1144B9D46402292029A1A86
:10013000924600218B460F461348144A121A01F0CA
:1001400049FE0F4B002B00D098470E4B002B00D0E0
:1001500098470020002104000D000D48002802D01F
:100160000C4801F00DFF01F011FE2000290000F005
:100170004BF801F0FBFDC0460000080000400020E5
:10018000000000000000000044040020302F002088
:10019000811F0000911F000080B584B000AFF8609F
:1001A000B9607A60FEE7C04680B582B000AF8023B8
:1001B000DA0580235B000021D1508023DB0501227A
:1001C0001A60C0468023DA0580235B00D358002BD9
:1001D000F8D000F073FF031C7B607B683B603B68DA
:1001E000002B06D03A68074B101C2D211A1CFFF774
:1001F000D3FF00F029F900F0EDFC62B6BD4602B075
:1002000080BDC046B420000080B500AFFFF7CCFF32
:1002100000F0C2F9322000F011FD00F0BDFB021C1D
:100220003C4B1A603B4B1B68002B00D170E03A4BF3
:1002300000221A70374B1B681B78181C052101F02F
:1002400013FC031CDAB2354B1A70344B1B78002BAD
:1002500052D001F077F8031C1A1C304B1B789A42DD
:100260004DD92F4B01221A702E4B00221A7039E003
:1002700000F0E8FF021C2C4B1A602B4B1B68002B74
:100280002AD0294B1B68AA221A70284B00221A7008
:1002900016E0254B1A68254B1B780133D2181D4BED
:1002A0001B681F490978081C2049097841185B1808
:1002B0001B7813701D4B1B780133DAB21B4B1A707D
:1002C0001A4B1B78042BE4D900F0E6FF144B1B7883
:1002D0000533DAB2124B1A70124B1B780133DAB2C3
:1002E000104B1A700F4B1A780C4B1B789A42BFD3E5
:1002F000094B01221A7002E0074B01221A70064BCB
:100300001B78002B02D000F071FB01E000F07AFBBB
:1003100083E7C046A4040020980400209A0400202B
:10032000A1040020A00400209C04002099040020C7
:1003300080B582B000AF021CFB1D1A70064BFA1D7F
:100340001278111C1F220A40012191400A1C1A60D8
:10035000BD4602B080BDC04600E100E0B0B582B04D
:1003600000AF021C3960FB1D1A70FB1D1B787F2B30
:100370002FD92D4CFB1D1B781A1C0F231340083B53
:100380009908294AFB1D1B78181C0F230340083BC2
:100390009B0806339B00D3185B68FA1D1278101C6B
:1003A00003220240D200101CFF228240D2431A4096
:1003B0003B689B01FF200340F81D0078051C0320CB
:1003C0002840C00083401A438B1D9B00E3185A60ED
:1003D00026E0164CFB1D1B785BB29B081349FA1DE7
:1003E000127852B29208C03292005258F91D097820
:1003F000081C03210140C900081CFF218140C9439A
:1004000011403A689201FF200240F81D0078051C57
:1004100003202840C00082400A43C0339B001A5189
:10042000BD4602B0B0BDC04600ED00E000E100E016
:1004300080B500AF034B1B685A1C024B1A60BD46C7
:1004400080BDC046A804002080B500AF3B4B002211
:100450001A603B4B00221A703A4B01221A703A4A3A
:100460003A4B0421D150384AA123DB000721D15057
:10047000354AA223DB000121D150334A344B3549A0
:10048000D150314AA523DB003349D1502E4A334B9A
:100490003349D1502C4AA423DB003249D1502A4A97
:1004A000314B0021D150284AA623DB000121D15035
:1004B000254A2E4B0021D150234AA323DB002C498F
:1004C000D150214A2B4B0221D1501F4A294BD358DE
:1004D00003221340022B09D11B4A274B2749D15035
:1004E000194AA723DB002649D15010E0164A214BB8
:1004F000D35803221340012B09D1134A1E4BFF216D
:10050000D1501149A723DB000822FF32CA500E4AFE
:1005100080239B000321D1500B4AC1239B0019214A
:10052000D15001200021FFF719FF0120FFF700FF44
:10053000032000F033F9BD4680BDC046B004002062
:10054000AE040020AC040020001000400C050000A8
:1005500024050000E7C2C3C4C8C7C6C51C05000007
:10056000E7E7E7E7C2C2C2002C050000140500005F
:1005700082820401340500003C050000FFFF0000FA
:100580002110010080B500AF024B01221A70BD4658
:1005900080BDC046AD04002080B500AF024B0022F4
:1005A0001A70BD4680BDC046AD04002080B500AFC6
:1005B000024B1B78181CBD4680BDC046AE0400200F
:1005C00080B582B000AF021CFB1D1A70034BFA1DF0
:1005D00012781A70BD4602B080BDC046AC0400203F
:1005E00080B500AF024B1B78181CBD4680BDC046CD
:1005F000AC04002080B582B000AF514A80235B007C
:10060000D358012B37D14E4AC1239B00D358012226
:10061000134030D04A4A80235B000021D150494B1F
:100620001B7801225340DBB2002B24D000F030F9BC
:10063000031C7B607B68002B15D07B6801331B7823
:10064000AA2B01D1FFF7F4FE3D4A80239B00212114
:10065000D1503B497B683C4A8B503C4B01221A707D
:1006600000F076F807E0364A80239B000321D15042
:10067000364B00221A70324A86235B00D358012B76
:100680003BD12F4AC1239B00D3580822134034D0BA
:100690002B4A86235B000021D1502A4B1B78012274
:1006A0005340DBB2002B28D0284B1B78002B24D0E2
:1006B00000F0EEF8031C7B607B68002B15D07B6894
:1006C00001331B78AA2B01D1FFF7B2FE1C4A80230D
:1006D0009B002121D1501A497B681B4A8B501B4B30
:1006E00001221A7000F034F807E0154A80239B00BD
:1006F0000321D150154B00221A70114A88235B0048
:10070000D358012B18D10E4AC1239B00D358102275
:10071000134011D00A4A88235B000021D150094BB5
:100720001B7801225340DBB2002B05D00120FFF7DC
:1007300047FF064B00221A70BD4602B080BDC0467E
:1007400000100040AD04002004050000AE040020AD
:1007500080B500AF034B1B6880331A1C014B1A6035
:10076000BD4680BDB004002080B582B000AF786087
:10077000C046C046C046C046C046C046C046C04649
:10078000C046C046C046C046C046C0467B68013B26
:100790007B60002BECD1BD4602B080BD80B582B03D
:1007A00000AF786006E07B68013B7B60044B181C5F
:1007B000FFF7DAFF7B68002BF5D1BD4602B080BDA4
:1007C000E703000080B582B000AF1B4A1B4BD25834
:1007D0001B4B1B78191C0B1C9B015B185B001949F8
:1007E0005B189A4207D1184B1B780133DAB2164BCB
:1007F0001A7000231BE0154B1B78302B16D8104BBA
:100800001B781A1C131C9B019B185B000D4A9B183C
:100810007B600B4B1B780133181C322101F09AFAD4
:100820000B1CDAB2064B1A707B6800E00023181C20
:10083000BD4602B080BDC046001000400405000067
:1008400061040020B404002063040020620400203E
:1008500080B500AF034B1B780133DAB2014B1A703D
:10086000BD4680BD6204002080B500AF074B1B78F9
:10087000002B03D1054B31221A7005E0034B1B7886
:10088000013BDAB2014B1A70BD4680BD6104002005
:1008900080B582B000AF134B1B78002B1CD0124BDD
:1008A0001B781A1C131C9B019B185B000F4A9B189A
:1008B0007B600D4B1B780133181C322101F04AFA82
:1008C0000B1CDAB2084B1A70064B1B78013BDAB2EC
:1008D000044B1A707B6800E00023181CBD4602B070
:1008E00080BDC0466204002060040020B4040020E3
:1008F00080B500AF024B1B78181CBD4680BDC046BA
:100900006204002080B582B000AF104B1B781D2B15
:1009100016D80F4B1B781A1C131C9B019B185B00ED
:100920000C4A9B187B600A4B1B780133181C1E2154
:1009300001F010FA0B1CDAB2054B1A707B6800E06C
:100940000023181CBD4602B080BDC04666040020CE
:1009500065040020181E002080B500AF034B1B78F3
:100960000133DAB2014B1A70BD4680BD6604002027
:1009700080B500AF074B1B78002B03D1054B1D2220
:100980001A7005E0034B1B78013BDAB2014B1A7079
:10099000BD4680BD6504002080B582B000AF104B1D
:1009A0001B78002B16D00F4B1B781A1C131C9B01B5
:1009B0009B185B000C4A9B187B600A4B1B78013329
:1009C000181C1E2101F0C6F90B1CDAB2054B1A7077
:1009D0007B6800E00023181CBD4602B080BDC04605
:1009E0006604002064040020181E002080B500AFBB
:1009F000034B1B78013BDAB2014B1A70BD4680BD38
:100A00006604002080B500AF074B1B78002B03D194
:100A1000054B1D221A7005E0034B1B78013BDAB22F
:100A2000014B1A70BD4680BD6404002080B500AF44
:100A3000024B1B78181CBD4680BDC04666040020D2
:100A400080B582B000AF021CFB1D1A70064BFA1D68
:100A50001278111C1F220A40012191400A1C1A60C1
:100A6000BD4602B080BDC04600E100E080B582B066
:100A700000AF021CFB1D1A70074AFB1D1B78191CD6
:100A80001F230B40012199400B1C191C8023D150BE
:100A9000BD4602B080BDC04600E100E080B582B036
:100AA00000AF021CFB1D1A70074AFB1D1B78191CA6
:100AB0001F230B40012199400B1C191CC0235B0014
:100AC000D150BD4602B080BD00E100E0B0B582B0BB
:100AD00000AF021C3960FB1D1A70FB1D1B787F2BB9
:100AE0002FD92D4CFB1D1B781A1C0F231340083BDC
:100AF0009908294AFB1D1B78181C0F230340083B4B
:100B00009B0806339B00D3185B68FA1D1278101CF3
:100B100003220240D200101CFF228240D2431A401E
:100B20003B689B01FF200340F81D0078051C032053
:100B30002840C00083401A438B1D9B00E3185A6075
:100B400026E0164CFB1D1B785BB29B081349FA1D6F
:100B5000127852B29208C03292005258F91D0978A8
:100B6000081C03210140C900081CFF218140C94322
:100B700011403A689201FF200240F81D0078051CE0
:100B800003202840C00082400A43C0339B001A5112
:100B9000BD4602B0B0BDC04600ED00E000E100E09F
:100BA00080B582B000AF7860C046C046C046C0463F
:100BB000C046C046C046C046C046C046C046C04605
:100BC000C046C0467B68013B7B60002BECD1BD4634
:100BD00002B080BD80B500AF144B00221A70144BD8
:100BE00000225A70134A144B0021D150114AA123FC
:100BF000DB000321D1500F4AA223DB000421D15096
:100C00000C4980239B0080225200CA500949C1230D
:100C10009B0080225202CA5008200121FFF756FF94
:100C20000820FFF70DFFBD4680BDC046D62D002031
:100C3000542D0020008000400405000080B584B0E1
:100C400000AF78607B68FA2292005343FB6007494B
:100C5000A823DB00FA68CA50044B0122DA60034B78
:100C600001221A60BD4604B080BDC046008000402D
:100C700080B584B000AF8F4AA0235B00D358012B0E
:100C800000D014E18B4AC1239B00D25880235B0221
:100C9000134000D10BE1874AA0235B000021D15013
:100CA000FFF730FE031C7B607B68002B00D1D6E091
:100CB000FFF768FC804A80239B000321D150C04687
:100CC0007D4AAA23DB00D3580F221340F8D17A4A79
:100CD000C2239B001921D1500120FFF7C7FEFFF767
:100CE00065FC031E04D0744A744BD358FB6012E0B9
:100CF000FFF7CEFD031CFB60FB68002B02D1704B9D
:100D0000FB6008E0FB6801331B78AA2B01D1FFF7D9
:100D10008FFBFFF71DFD6B4B1B78002B03D0FB688F
:100D200002221A7002E0FB6801221A706249FB6815
:100D3000624A8B50604A88235B000021D1505E4B91
:100D400001221A60C0465C4A88235B00D358002BFE
:100D5000F9D0594A80239B000121D15056497B6824
:100D6000564A8B50544A86235B000021D1503223CF
:100D7000BB60514B01225A600BE0BB685A1EBA603F
:100D8000002B05DBFA239B00181CFFF709FF00E08E
:100D900005E0494A86235B00D358002BEDD0BB68A1
:100DA000002B11DB444A8023DB00D358012B05D1F3
:100DB000444B00221A70FFF7CFFD0AE0414B01229D
:100DC0001A70FFF7D5FD04E03E4B01221A70FFF7C1
:100DD000CFFD394A88235B000021D150364B0122D8
:100DE0001A61C046344A88235B00D358002BF9D0DF
:100DF000314A86235B000021D1502F4A80235B00BB
:100E00000021D1502C4A80239B000321D1502A4A33
:100E1000C1239B001921D150FFF7BEFB0120FFF732
:100E20003DFE0120FFF70CFEFFF732FD031CFB60C7
:100E3000FB68002B38D0FB6801331B78AA2B01D14B
:100E4000FFF7F6FA0020FFF7BBFB1B49FB681B4AC4
:100E50008B50194B01221A60FFF77AFC24E0164AE6
:100E6000AA23DB00D3580F2213401DD0FFF7B8FB95
:100E7000031E19D0FFF70CFD031CFB60FB68002B61
:100E800012D0FB6801331B78AA2B01D1FFF7D0FAEF
:100E90000020FFF795FB0849FB68084A8B50064B7A
:100EA00001221A60FFF754FC3220FFF7C7FEBD464F
:100EB00004B080BD00800040001000400405000028
:100EC000542D0020D62D002080B58AB000AF3B1DE8
:100ED000186059609A603B1D1B78012B00D0D3E04D
:100EE0006B4B1B6801331B78AA2B05D1694B1B6820
:100EF00080331A1C674B1A60654B1B6801331B78E3
:100F0000FF2B04D1634B1B681A1D624B1A60604BA8
:100F10001A68614B9A4238D05D4B1B6801331B78CD
:100F2000AA2B05D05A4B1B6801331B78FF2B2AD103
:100F3000574B1B6801331B78AA2B0BD1544B1B68F2
:100F4000013380221A70554B1B6880331A1C534B97
:100F50001A6009E04E4B1B68013304221A704F4B94
:100F60001B681A1D4D4B1A60FFF772FC484B1B683B
:100F700001331B78AA2B05D1494B1B685A1C484BDF
:100F80001A6002E001E0FFF76FFC464B1A68464B1F
:100F90009A4201D000F0CAF9FFF714FC031CFB6170
:100FA000FB69002B01D13C4BFB6100F095F9031C60
:100FB0003B623B6A002B01D13B4B3B622723FB1872
:100FC00000221A7012E02723FB181B788133272296
:100FD000BA181278396A8A181178344AD1542723FA
:100FE000FB181A782723FB1801321A702723FB18E5
:100FF0001B78052BE7D9FB6900221A70FB690133C6
:101000002A4A101C191C8722812300F0CFFB031CE5
:10101000BB61244B3A6A1A601D4BFA691A60BB69BE
:101020007B617B69002B06D07A69214B101C7321F0
:101030001A1CFFF7B1F8FFF7D3FA031E24D01D4A9C
:10104000AA23DB00D3580F2213401DD1FFF750FC19
:10105000031E19D0FFF71CFC031C3B613B69002BEE
:1010600012D03B6901331B78AA2B01D1FFF7E0F9BD
:101070000020FFF7A5FA0F493B690F4A8B500D4B33
:1010800001221A60FFF764FBBD460AB080BDC0466E
:10109000682E00206C0400206C2E002068040020C4
:1010A00070040020F02E0020D82D0020E02D00201C
:1010B000C4200000001000400405000080B58CB082
:1010C00000AF584B181C00F0E1F9031CBB62BB6A6F
:1010D0007B627B6A002B06D07A6A534B101CA321DB
:1010E0001A1CFFF759F83B1C19221A603B1C1822E6
:1010F0005A603B1C1C229A603B1C1D22DA603B1C80
:1011000000221A743B1C01225A743B1C00229A7460
:101110003B1C0022DA743B1C181C00F0E7F9031C8E
:10112000BB62BB6A3B623B6A002B06D03A6A3E4B0D
:10113000101CB7211A1CFFF72FF82F23FB180022D1
:101140001A700CE02F23FB181B78384A0021D15469
:101150002F23FB181A782F23FB1801321A702F2324
:10116000FB181B78052BEDD92F23FB1800221A70D2
:101170000CE02F23FB181B782D4A0021D1542F237C
:10118000FB181A782F23FB1801321A702F23FB1833
:101190001B78862BEDD9FFF715FB031CFB61FB6960
:1011A000002B1ED0FB690133214A101C191C872219
:1011B000812300F0FBFA031CBB621E4B1B4A1A6022
:1011C0001D4BFA691A60BB6ABB61BB69002B07D073
:1011D000BA69154B101CDB211A1CFEF7DDFF1CE061
:1011E0001BE0134A154B101C191C8722812300F0A9
:1011F000DDFA031CBB620F4B0C4A1A600E4B104AFF
:101200001A60BB6A7B617B69002B06D07A69064B4A
:10121000101CE2211A1CFEF7BFFF0023181CBD465C
:101220000CB080BDC90E0000C4200000D82D0020E5
:10123000E02D0020F02E0020682E00206D2E0020D2
:101240006C2E002080B582B000AF104B1B78092BAC
:1012500016D80F4B1B781A1C131C5B009B185B00E5
:101260000C4A9B187B600A4B1B780133181C0A211F
:1012700000F070FD0B1CDAB2054B1A707B6800E0C1
:101280000023181CBD4602B080BDC0467604002075
:1012900075040020F42E002080B500AF034B1B78AE
:1012A0000133DAB2014B1A70BD4680BD76040020CE
:1012B00080B500AF074B1B78002B03D1054B0922EB
:1012C0001A7005E0034B1B78013BDAB2014B1A7030
:1012D000BD4680BD7504002080B582B000AF104BC4
:1012E0001B78002B16D00F4B1B781A1C131C5B00AD
:1012F0009B185B000C4A9B187B600A4B1B780133E0
:10130000181C0A2100F026FD0B1CDAB2054B1A70DE
:101310007B6800E00023181CBD4602B080BDC046BB
:101320007604002074040020F42E002080B500AF65
:10133000034B1B78013BDAB2014B1A70BD4680BDEE
:101340007604002080B500AF034B1B780A22D31A25
:10135000DBB2181CBD4680BD7604002080B582B08B
:1013600000AF021CFB1D1A70064BFA1D1278111CEF
:101370001F220A40012191400A1C1A60BD4602B09A
:1013800080BDC04600E100E080B582B000AF021C25
:10139000FB1D1A70074AFB1D1B78191C1F230B40ED
:1013A000012199400B1C191CC0235B00D150BD4684
:1013B00002B080BD00E100E0B0B582B000AF021C19
:1013C0003960FB1D1A70FB1D1B787F2B2FD92D4C0C
:1013D000FB1D1B781A1C0F231340083B9908294A50
:1013E000FB1D1B78181C0F230340083B9B0806338A
:1013F0009B00D3185B68FA1D1278101C0322024070
:10140000D200101CFF228240D2431A403B689B014D
:10141000FF200340F81D0078051C03202840C00071
:1014200083401A438B1D9B00E3185A6026E0164C3C
:10143000FB1D1B785BB29B081349FA1D127852B250
:101440009208C03292005258F91D0978081C0321F5
:101450000140C900081CFF218140C94311403A687E
:101460009201FF200240F81D0078051C032028404F
:10147000C00082400A43C0339B001A51BD4602B0EF
:10148000B0BDC04600ED00E000E100E080B582B0F4
:1014900000AF7860064B7A681A60054B1B68002B1A
:1014A00001D0002300E00E23181CBD4602B080BD11
:1014B0009404002080B582B000AF7860034B7A6856
:1014C0001A60C046BD4602B080BDC0467804002008
:1014D00080B582B000AF7860034B7A681A60C0466E
:1014E000BD4602B080BDC0467C04002080B584B0FB
:1014F00000AF78607B68002B01D10E23BEE0A023F3
:10150000DA057B6818685F4B1B681902031CC1333E
:10151000FF339B009950A023DA057B68D8685A4BAB
:101520001B689900031CC133FF339B009950A02313
:10153000DA057B685B68C133FF339B00002199505B
:10154000A023DA057B689B68C133FF339B00002131
:1015500099504E497B68DB684D4A8B504B497B68FC
:101560009A68A123DB00CA5048497B685A68A223C5
:10157000DB00CA5045497B681B68464A8B50434A8A
:10158000A723DB000021D150404AA923DB00002122
:10159000D1500023BB600023FB607B681B7C012BC8
:1015A0000BD002DC002B05D010E0022B08D0032B5F
:1015B00009D00BE00023BB600BE00223BB6008E016
:1015C0000423BB6005E00623BB6002E00723FB6049
:1015D000C046FB68002B01D0FB684FE07B685B7C5A
:1015E000002B13D12949BB68012213432A4A8B508F
:1015F000264A7B689B7C191C284BD150234A7B6868
:10160000DB7C191CB823DB00D15010E01F49224AB3
:10161000BB688B501D4A7B689B7C191C1F4BD150AB
:101620001A4A7B68DB7C191CB823DB00D150174AAF
:1016300082235B000021D150144A94235B000021D7
:10164000D150124A80239B000421D150144B002218
:101650001A7004200021FFF7AFFE0420FFF794FE6C
:101660000A4AC1239B000F49D1500420FFF776FEA0
:10167000064AA023DB000221D150FB68181CBD469E
:1016800004B080BD7C0400207804002000400040AD
:10169000140500000C050000540500005C05000066
:1016A000900400200204000090B585B000AF304BDC
:1016B0001B78DBB2022B08D0032B2CD0012B00D0DF
:1016C00053E02C4B01225A624FE03B1C00221A705F
:1016D0003B1C00225A603B1C00229A60264B1A6871
:1016E0000F23FB18511E8A411A700F23FB181B7819
:1016F00001225340DBB2002B05D0204B0020CB2130
:101700001A1CFEF749FD1C4B1C683B1C18685968E5
:101710009A68A04729E03B1C01221A70154A184B11
:10172000D2583B1C5A60134A164BD2583B1C9A6045
:10173000114B1A680E23FB18511E8A411A700E2392
:10174000FB181B7801225340DBB2002B05D00B4B5A
:101750000020D4211A1CFEF71FFD074B1C683B1C00
:10176000186859689A68A047C046BD4605B090BD44
:10177000900400200040004094040020D02000008D
:101780003C0500004C05000080B582B000AF021C93
:10179000FB1D1A70044BFA1D12781A70FFF784FFB4
:1017A000BD4602B080BDC0469004002080B586B022
:1017B00000AFF860B960191CFB1D1A70BB1D0A1C34
:1017C0001A70FB68002B02D0BB68002B01D10E23DE
:1017D00025E0154B1B78DBB2012B19D002DC002B66
:1017E00002D018E0032B16DC104BFA681A60104B7D
:1017F000BA681A60FB1D1A780E4B1A60BB1D1A7866
:101800000D4B1A6000237B610120FFF7BDFF05E04F
:1018100008237B6102E003237B61C0467B69181CBF
:10182000BD4606B080BDC046900400208004002064
:1018300084040020880400208C04002080B500AFC0
:10184000234A94235B00D358002B29D0204A9423A9
:101850005B000021D1501F4B1B78DBB2012B00D065
:101860001EE01B4A1C4B1B68191C1C4BD150184A0C
:101870001B4B1B68191C1B4BD15015491A4B1A687E
:10188000A723DB00CA501249184B1A68A923DB00B2
:10189000CA500F4B01229A620220FFF775FFC04623
:1018A0000B4A82235B00D358002B0ED0084A8223B8
:1018B0005B000021D150074B1B78DBB2022B00D01C
:1018C00003E00320FFF760FFC046BD4680BDC04671
:1018D00000400040900400208004002044050000E7
:1018E00084040020340500008C04002088040020BB
:1018F00080B500AF024B034A1A60BD4680BDC046AA
:10190000040000200024F40080B500AF00F01CF8B3
:10191000031E06D0094B0A4A1A600A4B80221202A3
:101920001A6000F051F8031E05D08023DA05C123A8
:10193000DB000121D150BD4680BDC04604050040FA
:10194000DFFF07C0186C004080B500AF1A4B1B6862
:10195000FF221340012B2AD1184B1B680F22134082
:1019600025D1174B1B68F022134006D1154B1B687D
:10197000F022134001D101231AE0114B1B68F02221
:101980001340102B06D10F4B1B68F022134001D1DE
:1019900001230DE00A4B1B68F0221340302B06D1C7
:1019A000084B1B68F022134001D1012300E0002303
:1019B000181CBD4680BDC046E00F00F0E40F00F0EB
:1019C000E80F00F0EC0F00F080B500AF0D4B1B6886
:1019D000FF221340012B11D10B4B1B680F22134028
:1019E0000CD10A4B1B68F0221340402B06D1084B48
:1019F0001B68F022134001D1012300E00023181CD2
:101A0000BD4680BDE00F00F0E40F00F0E80F00F0ED
:101A1000EC0F00F003210A4802680A4302600948FB
:101A200002680A4302600849084A094B9B1A03DD11
:101A3000043BC858D050FBDC0648804706480047A6
:101A40002405004054050040102100000000002043
:101A5000440400200919000021010000FEE7FEE710
:101A6000FEE7FEE7FEE7FEE7002243088B4274D361
:101A700003098B425FD3030A8B4244D3030B8B428F
:101A800028D3030C8B420DD3FF22090212BA030C98
:101A90008B4202D31212090265D0030B8B4219D379
:101AA00000E0090AC30B8B4201D3CB03C01A524199
:101AB000830B8B4201D38B03C01A5241430B8B42E1
:101AC00001D34B03C01A5241030B8B4201D30B03CA
:101AD000C01A5241C30A8B4201D3CB02C01A5241F1
:101AE000830A8B4201D38B02C01A5241430A8B42B4
:101AF00001D34B02C01A5241030A8B4201D30B029D
:101B0000C01A5241CDD2C3098B4201D3CB01C01AB6
:101B1000524183098B4201D38B01C01A52414309C0
:101B20008B4201D34B01C01A524103098B4201D3AE
:101B30000B01C01A5241C3088B4201D3CB00C01A1B
:101B4000524183088B4201D38B00C01A5241430893
:101B50008B4201D34B00C01A5241411A00D20146B8
:101B6000524110467047FFE701B5002000F0FCF835
:101B700002BDC0460029F7D003B5FFF775FF0EBCC4
:101B80004243891A1847C04603460B437FD40022BC
:101B900043088B4274D303098B425FD3030A8B4201
:101BA00044D3030B8B4228D3030C8B420DD3FF226B
:101BB000090212BA030C8B4202D31212090265D039
:101BC000030B8B4219D300E0090AC30B8B4201D3EC
:101BD000CB03C01A5241830B8B4201D38B03C01A33
:101BE0005241430B8B4201D34B03C01A5241030BAA
:101BF0008B4201D30B03C01A5241C30A8B4201D35B
:101C0000CB02C01A5241830A8B4201D38B02C01A05
:101C10005241430A8B4201D34B02C01A5241030A7C
:101C20008B4201D30B02C01A5241CDD2C3098B4261
:101C300001D3CB01C01A524183098B4201D38B01DE
:101C4000C01A524143098B4201D34B01C01A524181
:101C500003098B4201D30B01C01A5241C3088B42C6
:101C600001D3CB00C01A524183088B4201D38B00B1
:101C7000C01A524143088B4201D34B00C01A524153
:101C8000411A00D201465241104670475DE0CA0F2A
:101C900000D04942031000D34042534000229C46EA
:101CA00003098B422DD3030A8B4212D3FC228901F4
:101CB00012BA030A8B420CD3890192118B4208D3CA
:101CC000890192118B4204D389013AD0921100E02C
:101CD0008909C3098B4201D3CB01C01A5241830940
:101CE0008B4201D38B01C01A524143098B4201D36D
:101CF0004B01C01A524103098B4201D30B01C01A98
:101D00005241C3088B4201D3CB00C01A5241830811
:101D10008B4201D38B00C01A5241D9D243088B4267
:101D200001D34B00C01A5241411A00D2014663460A
:101D300052415B10104601D34042002B00D549426E
:101D4000704763465B1000D3404201B5002000F0AD
:101D50000BF802BD0029F8D003B5FFF715FF0EBC44
:101D60004243891A1847C0467047C04610B5002143
:101D7000041C00F081F8044B1868C36B002B00D0E2
:101D80009847201C00F088F90021000070B50D4E26
:101D90000D4D0024AD1BAD1005D0A300F358013448
:101DA0009847A542F9D100F079F9084E084D002472
:101DB000AD1BAD1005D0A300F35801349847A542E0
:101DC000F9D170BD34040020340400203404002014
:101DD0003C04002070B583073FD0541E002A3BD03E
:101DE000CEB2031C032503E0621E002C34D0141C69
:101DF00001335A1E16702B42F6D1032C24D9FF252D
:101E00000D402A0215432A0415430F2C11D9261C14
:101E1000103E3609013636011A1C9B1915605560B3
:101E20009560D56010329342F8D10F221440032CF4
:101E30000AD9261FB6080136B6001A1C9B1920C203
:101E40009342FCD103221440002C05D0C9B21C19C6
:101E500019700133A342FBD170BD141C031CCCE7E5
:101E600008B5034B002B02D0024800F089F808BDEA
:101E700000000000911F0000F0B556465F464D4639
:101E80004446F0B40E1C3C4B87B01B680190039392
:101E90004933FF330493A422039B52009F58002F21
:101EA0004CD0049B984600239B46C4235B009C4671
:101EB000BC4463460293C6235B009A467C68BA44DE
:101EC000A5007D19013C08D526E06B1DFF331B687A
:101ED000B34204D0043D013C1ED3002EF5D17B68F3
:101EE0006A68013BA3423AD05B466B60002AF1D09E
:101EF0007B68029999460123A3400968059119421C
:101F000023D190477B684B45C5D143461B68BB42F4
:101F1000C1D1043D013CE0D2184B002B0ED07B68B0
:101F2000002B23D13B68002B24D04246381C136081
:101F300000E000BF43461F68002FB6D107B03CBC8D
:101F400090469946A246AB46F0BD514609681942F3
:101F500007D12B1C8433196801989047D2E77C6025
:101F6000C4E72B1C843318689047CBE73B68B8461E
:101F70001F1CE1E70023FAE7002100000000000039
:101F800008B5011C00220020002300F01BF808BD4A
:101F900038B5094B094CE41AA41009D0084AA51811
:101FA000AD00ED182B68013C9847043D002CF9D199
:101FB00000F07AF838BDC0463C0400204004002000
:101FC000FFFFFF3FF8B544465F4656464D469B46E9
:101FD0002F4BF0B41C68A4235B00051CE0580E1CBA
:101FE000904600284BD043681F2B0DDC5C1C002D55
:101FF00021D102339B0044601E5000203CBC90461F
:102000009946A246AB46F8BD224B002B3CD0C820D7
:10201000400000E000BF002836D0A4220023520078
:10202000A15843600160A050403283500432835075
:102030000124002DDDD09A0091468144424688213A
:102040004F467A50C4225200904680444246873917
:10205000994012688A460A43944642466146116096
:10206000842249465F4652008F50022DC1D1021C86
:1020700055468D32FF3211680D431560B9E7201CBB
:102080004D30FF30E050AEE701204042B6E7C04699
:102090000021000000000000FEE7C046F8B5C04681
:1020A000F8BC08BC9E467047F8B5C046F8BC08BCF2
:1020B0009E4670472E2E2F6D61696E5F636D2E6395
:1020C000000000002E2E2F7370692E6300000000A8
:1020D0002E2E2F2E2E2F2E2E2F2E2E2F2F536F756E
:1020E0007263652F7370695F736C6176652F7370AF
:1020F000695F736C6176652E630000004300000029
:082100000800002000000000AF
:0821080018E0FF7F0100000058
:10211000000000000024F40000000000F402002091
:102120005C030020C4030020000000000000000049
:10213000000000000000000000000000000000009F
:10214000000000000000000000000000FC20000073
:10215000000000000000000000000000000000007F
:10216000000000000000000000000000000000006F
:10217000000000000000000000000000000000005F
:10218000000000000000000000000000000000004F
:10219000000000000000000000000000000000003F
:1021A000000000000000000000000000000000002F
:1021B000000000000000000000000000000000001F
:1021C00001000000000000000E33CDAB34126DE6BC
:1021D000ECDE05000B000000000000000000000025
:1021E00000000000000000000000000000000000EF
:1021F00000000000000000000000000000000000DF
:1022000000000000000000000000000000000000CE
:1022100000000000000000000000000000000000BE
:1025400008000020611E0000E9000000C10000003A
:042550000000000087
:0400000300001A15CA
:00000001FF
