:1000000000400020B90400000105000003050000C5
:1000100000000000000000000000000000000000E0
:1000200000000000000000000000000005050000C6
:1000300000000000000000000705000009050000A6
:100040000B0500000B0500000B0500000B05000070
:100050000B050000000000000B0500000B05000070
:100060000B0500000B0500000B0500000B05000050
:100070000B0500000B0500000B0500000B05000040
:100080000B0500000B0500000B0500000B05000030
:100090000B0500000B0500000B0500000B05000020
:1000A0000B0500000B050000000000000000000030
:1000B0000000000000000000000000000000000040
:1000C00010B5064C2378002B07D1054B002B02D02E
:1000D000044800E000BF0123237010BD4404002049
:1000E000000000005C08000008B5084B002B03D09E
:1000F0000748084900E000BF07480368002B00D10B
:1001000008BD064B002BFBD09847F9E70000000024
:100110005C080000480400204004002000000000AB
:10012000164B002B00D1144B9D46402292029A1A86
:10013000924600218B460F461348144A121A00F0CB
:1001400019FA0F4B002B00D098470E4B002B00D014
:1001500098470020002104000D000D48002802D01F
:100160000C4800F0DDFA00F0E1F92000290000F071
:1001700043F800F0CBF9C046000008000040002022
:1001800000000000000000004404002028050020BA
:10019000210700003107000080B582B000AF802346
:1001A000DA0580235B000021D1508023DB0501228A
:1001B0001A60C0468023DA0580235B00D358002BE9
:1001C000F8D000F037F8FB1D00221A700AE0FB1D82
:1001D0001B78084AF91D0978D154FB1D1A78FB1DBC
:1001E00001321A70FB1D1B78C72BF0D962B6BD46D1
:1001F00002B080BD6004002080B500AFFFF7CCFFE7
:1002000009490A4B0A4A8B50074A88235B000021A0
:10021000D150054B01221A60C046034A88235B0077
:10022000D358002BF9D0EFE7001000406004002005
:100230000405000080B500AF304A314B0421D15095
:100240002E4AA123DB000721D1502C4AA223DB0038
:100250000121D150294A2B4B2B49D150274AA523A4
:10026000DB002A49D150254A294B2A49D150234A3B
:10027000A423DB002849D150204A284B0021D1502B
:100280001E4AA623DB000121D1501C4A244B002129
:10029000D1501A4AA323DB002249D150174A224BDE
:1002A0000221D150154A204BD35803221340022B70
:1002B00009D1124A1D4B1E49D150104AA723DB0019
:1002C0001C49D15010E00D4A174BD358032213405C
:1002D000012B09D1094A154BFF21D1500749A7230A
:1002E000DB000822FF32CA50044A80239B0003210E
:1002F000D150032000F03AF8BD4680BD0010004008
:100300000C05000024050000E7C2C3C4C8C7C6C569
:100310001C050000E7E7E7E7C2C2C2002C050000A9
:1003200014050000C8C80401340500003C050000A5
:10033000FFFF00002110010080B582B000AF78609F
:10034000C046C046C046C046C046C046C046C0467D
:10035000C046C046C046C046C046C0467B68013B5A
:100360007B60002BECD1BD4602B080BD80B582B071
:1003700000AF786006E07B68013B7B60044B181C93
:10038000FFF7DAFF7B68002BF5D1BD4602B080BDD8
:10039000E703000080B500AF024B034A1A60BD4678
:1003A00080BDC046040000200024F40080B500AFEA
:1003B00000F01CF8031E06D0094B0A4A1A600A4BCB
:1003C000802212021A6000F051F8031E05D080232B
:1003D000DA05C123DB000121D150BD4680BDC046F6
:1003E00004050040DFFF07C0186C004080B500AF77
:1003F0001A4B1B68FF221340012B2AD1184B1B6894
:100400000F22134025D1174B1B68F022134006D151
:10041000154B1B68F022134001D101231AE0114B48
:100420001B68F0221340102B06D10F4B1B68F022E3
:10043000134001D101230DE00A4B1B68F022134049
:10044000302B06D1084B1B68F022134001D1012349
:1004500000E00023181CBD4680BDC046E00F00F040
:10046000E40F00F0E80F00F0EC0F00F080B500AFF3
:100470000D4B1B68FF221340012B11D10B4B1B6846
:100480000F2213400CD10A4B1B68F0221340402B63
:1004900006D1084B1B68F022134001D1012300E074
:1004A0000023181CBD4680BDE00F00F0E40F00F0F3
:1004B000E80F00F0EC0F00F003210A4802680A433D
:1004C0000260094802680A4302600849084A094B69
:1004D0009B1A03DD043BC858D050FBDC064880471C
:1004E0000648004724050040540500406808000005
:1004F0000000002044040020AD03000021010000A2
:10050000FEE7FEE7FEE7FEE7FEE7FEE710B50021A7
:10051000041C00F081F8044B1868C36B002B00D05A
:100520009847201C00F088F95808000070B50D4E5F
:100530000D4D0024AD1BAD1005D0A300F3580134C0
:100540009847A542F9D100F079F9084E084D0024EA
:10055000AD1BAD1005D0A300F35801349847A54258
:10056000F9D170BD3404002034040020340400208C
:100570003C04002070B583073FD0541E002A3BD0B6
:10058000CEB2031C032503E0621E002C34D0141CE1
:1005900001335A1E16702B42F6D1032C24D9FF25A5
:1005A0000D402A0215432A0415430F2C11D9261C8D
:1005B000103E3609013636011A1C9B19156055602C
:1005C0009560D56010329342F8D10F221440032C6D
:1005D0000AD9261FB6080136B6001A1C9B1920C27C
:1005E0009342FCD103221440002C05D0C9B21C193F
:1005F00019700133A342FBD170BD141C031CCCE75E
:1006000008B5034B002B02D0024800F089F808BD62
:100610000000000031070000F0B556465F464D4629
:100620004446F0B40E1C3C4B87B01B68019003930A
:100630004933FF330493A422039B52009F58002F99
:100640004CD0049B984600239B46C4235B009C46E9
:10065000BC4463460293C6235B009A467C68BA4456
:10066000A5007D19013C08D526E06B1DFF331B68F2
:10067000B34204D0043D013C1ED3002EF5D17B686B
:100680006A68013BA3423AD05B466B60002AF1D016
:100690007B68029999460123A34009680591194294
:1006A00023D190477B684B45C5D143461B68BB426D
:1006B000C1D1043D013CE0D2184B002B0ED07B6829
:1006C000002B23D13B68002B24D04246381C1360FA
:1006D00000E000BF43461F68002FB6D107B03CBC06
:1006E00090469946A246AB46F0BD5146096819426C
:1006F00007D12B1C8433196801989047D2E77C609E
:10070000C4E72B1C843318689047CBE73B68B84696
:100710001F1CE1E70023FAE7580800000000000072
:1007200008B5011C00220020002300F01BF808BDC2
:1007300038B5094B094CE41AA41009D0084AA51889
:10074000AD00ED182B68013C9847043D002CF9D111
:1007500000F07AF838BDC0463C0400204004002078
:10076000FFFFFF3FF8B544465F4656464D469B4661
:100770002F4BF0B41C68A4235B00051CE0580E1C32
:10078000904600284BD043681F2B0DDC5C1C002DCD
:1007900021D102339B0044601E5000203CBC904697
:1007A0009946A246AB46F8BD224B002B3CD0C82050
:1007B000400000E000BF002836D0A42200235200F1
:1007C000A15843600160A0504032835004328350EE
:1007D0000124002DDDD09A009146814442468821B3
:1007E0004F467A50C4225200904680444246873990
:1007F000994012688A460A4394464246614611600F
:10080000842249465F4652008F50022DC1D1021CFE
:1008100055468D32FF3211680D431560B9E7201C33
:100820004D30FF30E050AEE701204042B6E7C04611
:100830005808000000000000FEE7C046F8B5C046BA
:10084000F8BC08BC9E467047F8B5C046F8BC08BC6A
:100850009E46704743000000080000200000000092
:08086000C0F8FF7F0100000059
:10086800000000000024F40000000000F402002052
:100878005C030020C403002000000000000000000A
:100888000000000000000000000000000000000060
:1008980000000000000000000000000054080000F4
:1008A8000000000000000000000000000000000040
:1008B8000000000000000000000000000000000030
:1008C8000000000000000000000000000000000020
:1008D8000000000000000000000000000000000010
:1008E8000000000000000000000000000000000000
:1008F80000000000000000000000000000000000F0
:1009080000000000000000000000000000000000DF
:1009180001000000000000000E33CDAB34126DE67C
:10092800ECDE05000B0000000000000000000000E5
:1009380000000000000000000000000000000000AF
:10094800000000000000000000000000000000009F
:10095800000000000000000000000000000000008F
:10096800000000000000000000000000000000007F
:100C98000800002001060000E9000000C100000073
:040CA8000000000048
:04000003000004B93C
:00000001FF
