:1000000000400020D912000021130000231300003B
:1000100000000000000000000000000000000000E0
:100020000000000000000000000000002513000098
:10003000000000000000000027130000291300004A
:100040002B130000090600002B1300002B130000E7
:100050002B130000000000002B1300002B130000E6
:100060002B1300002B1300002B1300002B13000098
:100070002B1300002B1300002B1300002B13000088
:100080002B1300002B1300002B1300002B13000078
:100090002B1300002B1300002B1300002B13000068
:1000A0002B1300002B1300000000000000000000D4
:1000B0000000000000000000000000000000000040
:1000C00010B5064C2378002B07D1054B002B02D02E
:1000D000044800E000BF0123237010BD4404002049
:1000E000000000006018000008B5084B002B03D08A
:1000F0000748084900E000BF07480368002B00D10B
:1001000008BD064B002BFBD09847F9E70000000024
:100110006018000048040020400400200000000097
:10012000164B002B00D1144B9D46402292029A1A86
:10013000924600218B460F461348144A121A01F0CA
:100140001BFA0F4B002B00D098470E4B002B00D012
:1001500098470020002104000D000D48002802D01F
:100160000C4801F0DFFA01F0E3F92000290000F06B
:1001700033F801F0CDF9C04600000800004000202F
:10018000000000000000000044040020E42E0020D5
:10019000251700003517000080B500AF8023DA0571
:1001A00080235B000021D1508023DB0501221A60EF
:1001B000C0468023DA0580235B00D358002BF8D09B
:1001C000044B00221A6000F0D1FE00F057F9BD4642
:1001D00080BDC0469804002080B500AFFFF7DCFF6B
:1001E00000F036FF021C454B1A60444B1B68002B85
:1001F00051D0424B1B685A78414B1A70404B1B78C8
:10020000802B1DD13D4B1B680133AA221A703B4B3A
:100210001B68823355221A70384B1B685A1C384BA6
:100220001B780233DBB2101C191C00F0BDFD344BEF
:100230001B781A1C334B1B68D218324B1A6028E00B
:100240002F4B1B78042B11D12C4B1B689A1C2C4B69
:100250001B78101C191C00F0A7FD294B1B781A1CD9
:10026000284B1B68D218274B1A6012E0244B1B78CE
:10027000AA2B05D1244B1B685A1C234B1A6008E09B
:100280001F4B1B78002B04D0204B1B685A1C1F4BA4
:100290001A6000F007FF00F0D9FB031E2DD023E009
:1002A00000F016FF021C1A4B1A60194B1B68002B3A
:1002B0001AD0184B00221A7010E0154B1B68154A13
:1002C00012789B18134A1278111C134A525C1A7048
:1002D000104B1B780133DAB20E4B1A700D4B1B78A2
:1002E000042BEAD900F01CFF0B4B181C052100F071
:1002F00091FC031ED4D100F09FFB71E79404002011
:100300008804002098040020640400206004002079
:1003100084040020910400208C04002080B582B069
:1003200000AF021CFB1D1A70064BFA1D1278111C3F
:100330001F220A40012191400A1C1A60BD4602B0EA
:1003400080BDC04600E100E080B582B000AF021C75
:10035000FB1D1A70074AFB1D1B78191C1F230B403D
:10036000012199400B1C191C8023D150BD4602B0BD
:1003700080BDC04600E100E080B582B000AF021C45
:10038000FB1D1A70074AFB1D1B78191C1F230B400D
:10039000012199400B1C191CC0235B00D150BD46A4
:1003A00002B080BD00E100E0B0B582B000AF021C39
:1003B0003960FB1D1A70FB1D1B787F2B2FD92D4C2C
:1003C000FB1D1B781A1C0F231340083B9908294A70
:1003D000FB1D1B78181C0F230340083B9B080633AA
:1003E0009B00D3185B68FA1D1278101C0322024090
:1003F000D200101CFF228240D2431A403B689B016E
:10040000FF200340F81D0078051C03202840C00091
:1004100083401A438B1D9B00E3185A6026E0164C5C
:10042000FB1D1B785BB29B081349FA1D127852B270
:100430009208C03292005258F91D0978081C032115
:100440000140C900081CFF218140C94311403A689E
:100450009201FF200240F81D0078051C032028406F
:10046000C00082400A43C0339B001A51BD4602B00F
:10047000B0BDC04600ED00E000E100E080B500AF97
:100480004B4B00221A604B4B00221A604A4A4B4BDE
:100490000421D150484AA123DB000721D150464A0C
:1004A000A223DB000121D150434A454B4549D1509D
:1004B000414AA523DB004449D1503F4A434B4449BC
:1004C000D1503D4AA423DB004249D1503A4A424B25
:1004D0000021D150384AA623DB000121D150364AF1
:1004E0003E4B0021D150344AA323DB003C49D1507C
:1004F000314A3C4B0221D1502F4A3A4BD358032268
:100500001340022B09D12C4A374B3849D1502A4A83
:10051000A723DB003649D15010E0274A314BD3588E
:1005200003221340012B09D1234A2F4BFF21D15025
:100530002149A723DB000822FF32CA501E4A80232C
:100540009B002121D1501C4AC1239B000921D1507D
:1005500001200021FFF728FF0120FFF7DFFE00F058
:1005600041FD021C234B1A60224B1B68002B0DD04F
:10057000114A204B1B68191C1F4BD1501D4B1A6888
:100580001E4B1A601E4B00221A7009E00A491D4BCF
:10059000194A8B50194B1B4A1A60194B01221A70C9
:1005A000032000F0D1F9044B01225A60BD4680BD02
:1005B000B40500202C050020001000400C050000B0
:1005C00024050000E7C2C3C4C8C7C6C51C05000097
:1005D000E7E7E7E7C2C2C2002C05000014050000EF
:1005E00082820401340500003C050000FFFF00008A
:1005F0002110010024050020040500002005002032
:10060000680400203005002080B582B000AFB34AF6
:1006100080235B00D358012B2CD1B04AC1239B000F
:10062000D3580122134025D000F0DCFC021CAC4B57
:100630001A60AB4B1B68002B0AD1A849A94BAA4AE8
:100640008B50AA4BA74A1A60A94B01221A700CE0E2
:10065000A24AA34B1B68191CA34BD150A04B1A688C
:10066000A24B1A60A24B00221A709C4A80235B00A6
:100670000021D150994A86235B00D358012B00D02A
:1006800028E1964AC1239B00D3580822134000D189
:1006900020E1924A8023DB00D358012B04D0954BF4
:1006A0001B685A1C934B1A60934B1B7801225340D2
:1006B000DBB2002B16D000F0BFFC904B1B6801335F
:1006C0001B781A1C8E4B1B68D2188D4B1A608B4BF3
:1006D0001B6801331B78AA2B04D18A4B1B685A1C58
:1006E000884B1A60854B1B6801331B781A1C864B9C
:1006F0001B68D218844B1A60844B1B685A1C834BAE
:100700001A607B4B1A787C4B1A707C4B1B681B78E9
:10071000012B05D0794B1B681B78022B00D0AFE072
:100720000120FFF711FE00F07DF96C4A80239B0049
:100730000321D150694AC2239B000921D150674A45
:1007400088235B000021D150644B01221A61C0460E
:10075000624A88235B00D358002BF9D0674B1B6893
:100760001B78012B51D1FB1D00221A7009E0FB1DE3
:100770001B78674A0021D154FB1D1A78FB1D0132FA
:100780001A70FB1D1B78812BF1D9BB1D01221A7039
:100790007B1D00221A702CE000F0CEFC031C3B6095
:1007A0003B68002B00D128E0FB1D00221A7010E0EE
:1007B000BB1D1A78FB1D1B78D318FA1D12783968F7
:1007C0008A181178524AD154FB1D1A78FB1D013248
:1007D0001A70FB1D1B78042BEAD9BB1DBA1D1278B9
:1007E00005321A7000F0D0FC7B1D1A787B1D013297
:1007F0001A707B1D1B78182BCED97B1D1B781A1CF9
:100800009200D318DAB2424B1A703449404B364A40
:100810008B50324A88235B000021D1502F4B01229C
:100820001A60C0462D4A88235B00D358002BF9D0AC
:100830002A4A86235B000021D150284A80235B008E
:100840000021D150254A80239B002121D150234AE9
:10085000C1239B000921D150204A244B1B68191C3D
:10086000214BD150214B1A68244B1A600120FFF70D
:1008700083FD0120FFF752FD184B01225A6024E04E
:100880001A4B1A681D4B1A6000F0ACFB021C144B8B
:100890001A60134B1B68002B0AD11049114B124AE6
:1008A0008B50124B0F4A1A60114B01221A700CE048
:1008B0000A4A0B4B1B68191C0B4BD150084B1A688A
:1008C0000A4B1A600A4B00221A70044A86235B0006
:1008D0000021D150BD4602B080BDC046001000408E
:1008E0002405002030050020040500002805002014
:1008F0006904002070040020680400202005002006
:10090000B40500206C0400202C0500207804002091
:100910009C04002080B582B000AF7860C046C0461D
:10092000C046C046C046C046C046C046C046C04697
:10093000C046C046C046C0467B68013B7B60002B7A
:10094000ECD1BD4602B080BD80B582B000AF78600A
:1009500006E07B68013B7B60044B181CFFF7DAFF65
:100960007B68002BF5D1BD4602B080BDE7030000D7
:1009700080B582B000AF7860A023DB057A68C13211
:10098000FF3292000321D150BD4602B080BDC04667
:1009900080B582B000AF78600A1CFB1C1A70A023DF
:1009A000DB05FA1C12789200111C7A68C132FF3202
:1009B0009200D150BD4602B080BDC04680B582B025
:1009C00000AF7860A023DA057B6801219940A1235C
:1009D000DB00D150BD4602B080BDC04680B582B0BC
:1009E00000AF7860A023DB057A68012191400A1CE2
:1009F00002495A50BD4602B080BDC0460C050000F9
:100A000080B582B000AF7860A023DA05A223DB00B6
:100A1000D2587B68DA40131C01221340181CBD46D3
:100A200002B080BD80B500AF024B01221A70BD46F6
:100A300080BDC046B805002080B500AF024B002243
:100A40001A70BD4680BDC046B805002080B500AF15
:100A5000024B1B78181CBD4680BDC046B80500205F
:100A600080B584B000AF78600A1CFB1C1A70FB1CB8
:100A70001B78002B4FD00120FFF7B0FF274A8423BB
:100A80005B000021D150254A254B0021D1500F2376
:100A9000FB1800221A7022E020490F23FB181B7854
:100AA0007A68D3181B781A1C1D4BCA50C0461B4AC3
:100AB00084235B00D358002BF9D0184A84235B00B1
:100AC0000021D150154AA323DB00D258154B1A60E0
:100AD0000F23FB181A780F23FB1801321A700F230B
:100AE000FA18FB1C12781B789A42D5D3C0460B4AE1
:100AF00084235B00D358002BF9D0084A84235B0081
:100B00000021D150054AA323DB00D258054B1A60BF
:100B10000120FFF753FFBD4604B080BD0030004008
:100B20001C050000BC05002080B584B000AF7860D3
:100B30000A1CFB1C1A70FB1C1B78002B60D00120C8
:100B4000FFF74CFF304A84235B000021D1502E4A2E
:100B50002E4B0221D1500F23FB1800221A702EE0D9
:100B6000294A2A4B0021D150C046274A84235B00E2
:100B7000D358002BF9D0244A84235B000021D150A4
:100B80000F23FB181B78002B06D11F4AA323DB0081
:100B9000D2581F4B1A600BE00F23FB181B78013B48
:100BA0007A68D3181849A322D2008A58D2B21A7090
:100BB0000F23FB181A780F23FB1801321A700F232A
:100BC000FA18FB1C12781B789A42C9D3C0460E4A09
:100BD00084235B00D358002BF9D00B4A84235B009D
:100BE0000021D150FB1C1B78013B7A68D3180649C1
:100BF000A322D2008A58D2B21A700120FFF7DEFE7B
:100C0000BD4604B080BDC046003000401C05000059
:100C1000BC05002080B584B000AF78600A1CFB1CC6
:100C20001A700E23FB1801221A70FB1C1B78002B74
:100C300000D1ACE00420FFF7E3FE031E00D0A2E0E9
:100C40000120FFF7CBFE554A84235B000021D150E1
:100C5000524A534B0221D1500F23FB1800221A7025
:100C60006FE00D23FB1800221A7006E00120FFF749
:100C7000A5FE0D23FB1801221A700420FFF7C0FE09
:100C8000031EF3D00D23FB181B78002B2AD0C0467F
:100C9000424A84235B00D358002BF9D03F4A842377
:100CA0005B000021D1500F23FB181B78002B06D1CD
:100CB0003A4AA323DB00D2583A4B1A600BE00F23C9
:100CC000FB181B78013B7A68D3183449A322D20061
:100CD0008A58D2B21A700120FFF780FE2F4A304B9B
:100CE0000221D1502D4A2E4B0021D150C0462B4A13
:100CF00084235B00D358002BF9D0284A84235B005F
:100D00000021D1500F23FB181B78002B06D1234A5A
:100D1000A323DB00D258234B1A600BE00F23FB18F0
:100D20001B78013B7A68D3181C49A322D2008A5849
:100D3000D2B21A700F23FB181A780F23FB18013256
:100D40001A700F23FA18FB1C12781B789A4288D36A
:100D5000C046124A84235B00D358002BF9D00F4AB7
:100D600084235B000021D150FB1C1B78013B7A6877
:100D7000D3180A49A322D2008A58D2B21A7001208D
:100D8000FFF71CFE03E00E23FB1800221A700E234F
:100D9000FB181B78181CBD4604B080BD0030004015
:100DA0001C050000BC05002080B584B000AF786051
:100DB0000A1CFB1C1A700E23FB1800221A70FB1C65
:100DC0001B78002B00D1C8E00120FFF707FE644A22
:100DD00084235B000021D150614A624B0021D15035
:100DE0000F23FB1800221A705DE05D490F23FB18EA
:100DF0001B787A68D3181B781A1C5A4BCA50C04605
:100E0000574A84235B00D358002BF9D0544A8423DB
:100E10005B000021D150524AA323DB00D258524B31
:100E20001A601FE00120FFF7C9FDC0464C4A842329
:100E30005B00D358002BF9D0494A84235B00002182
:100E4000D150474AA323DB00D258474B1A600120F8
:100E5000FFF7C4FD424A434B0021D1500E23FB183B
:100E600001221A700420FFF7CBFD031EDAD00E23F7
:100E7000FB181B78002B0FD00F23FB181B78002BBF
:100E800006D00F23FB181A780F23FB18013A1A70AB
:100E90000E23FB1800221A700F23FB181A780F2359
:100EA000FB1801321A700F23FA18FB1C12781B78FA
:100EB0009A429AD337E00120FFF780FDC046284AC6
:100EC00084235B00D358002BF9D0254A84235B0090
:100ED0000021D150224AA323DB00D258224B1A60B2
:100EE0000120FFF77BFD1E4A1E4B0021D1501C49FB
:100EF000FB1C1B78013B7A68D3181B781A1C194B12
:100F0000CA50C046164A84235B00D358002BF9D040
:100F1000134A84235B000021D150114AA323DB0034
:100F2000D258114B1A600420FFF76AFD031EC2D08D
:100F3000C0460B4A84235B00D358002BF9D0084AE3
:100F400084235B000021D150054AA323DB00D25843
:100F5000054B1A600120FFF731FDBD4604B080BD8E
:100F6000003000401C050000BC05002080B500AF2B
:100F7000174B00221A70174AA123DB000021D15021
:100F8000144A154B0221D150124AA223DB0003213F
:100F9000D1500120FFF7ECFC0120FFF70FFD0420EA
:100FA0000021FFF7F5FC04200021FFF7F1FC0949BF
:100FB0000A4A80239B058B50064A094B0221D150D7
:100FC000044AA023DB000121D150BD4680BDC046AC
:100FD000B8050020003000400C050000240500008A
:100FE0005405000080B582B000AF104B1B784F2B2A
:100FF00017D80F4B1B781A1C131C9B019B185B0006
:101000009B180C4A9B187B60094B1B780133181CFA
:10101000502100F071FA0B1CDAB2054B1A707B6894
:1010200000E00023181CBD4602B080BD7E040020F5
:101030007D040020C005002080B500AF034B1B7865
:101040000133DAB2014B1A70BD4680BD7E04002028
:1010500080B582B000AF104B1B78002B17D00F4B20
:101060001B781A1C131C9B019B185B009B180C4AD5
:101070009B187B60094B1B780133181C502100F032
:101080003BFA0B1CDAB2054B1A707B6800E00023B8
:10109000181CBD4602B080BD7E0400207C040020E8
:1010A000C005002080B500AF034B1B78013BDAB2CE
:1010B000014B1A70BD4680BD7E04002080B500AF94
:1010C000024B1B78181CBD4680BDC0467E04002024
:1010D00080B582B000AF0F4B1B78092B15D80E4B93
:1010E0001B781A1C131C9B009B180C4A9B187B60D6
:1010F000094B1B780133181C0A2100F0FDF90B1C69
:10110000DAB2054B1A707B6800E00023181CBD465C
:1011100002B080BD8104002080040020B02E002099
:1011200080B500AF034B1B780133DAB2014B1A7064
:10113000BD4680BD8104002080B582B000AF0F4B5A
:101140001B78002B15D00E4B1B781A1C131C9B0010
:101150009B180C4A9B187B60094B1B780133181CA9
:101160000A2100F0C9F90B1CDAB2054B1A707B6832
:1011700000E00023181CBD4602B080BD81040020A1
:101180007F040020B02E002080B500AF034B1B78F9
:10119000013BDAB2014B1A70BD4680BD81040020CC
:1011A00080B500AF024B1B78181CBD4680BDC04601
:1011B0008104002080B500AF024B034A1A60BD468F
:1011C00080BDC046040000200024F40080B500AFBC
:1011D00000F01CF8031E06D0094B0A4A1A600A4B9D
:1011E000802212021A6000F051F8031E05D08023FD
:1011F000DA05C123DB000121D150BD4680BDC046C8
:1012000004050040DFFF07C0186C004080B500AF48
:101210001A4B1B68FF221340012B2AD1184B1B6865
:101220000F22134025D1174B1B68F022134006D123
:10123000154B1B68F022134001D101231AE0114B1A
:101240001B68F0221340102B06D10F4B1B68F022B5
:10125000134001D101230DE00A4B1B68F02213401B
:10126000302B06D1084B1B68F022134001D101231B
:1012700000E00023181CBD4680BDC046E00F00F012
:10128000E40F00F0E80F00F0EC0F00F080B500AFC5
:101290000D4B1B68FF221340012B11D10B4B1B6818
:1012A0000F2213400CD10A4B1B68F0221340402B35
:1012B00006D1084B1B68F022134001D1012300E046
:1012C0000023181CBD4680BDE00F00F0E40F00F0C5
:1012D000E80F00F0EC0F00F003210A4802680A430F
:1012E0000260094802680A4302600849084A094B3B
:1012F0009B1A03DD043BC858D050FBDC06488047EE
:101300000648004724050040540500406C180000C2
:101310000000002044040020CD1100002101000045
:10132000FEE7FEE7FEE7FEE7FEE7FEE703460B43C8
:101330007FD4002243088B4274D303098B425FD3CE
:10134000030A8B4244D3030B8B4228D3030C8B42FA
:101350000DD3FF22090212BA030C8B4202D31212E0
:10136000090265D0030B8B4219D300E0090AC30BB5
:101370008B4201D3CB03C01A5241830B8B4201D362
:101380008B03C01A5241430B8B4201D34B03C01A4B
:101390005241030B8B4201D30B03C01A5241C30AC3
:1013A0008B4201D3CB02C01A5241830A8B4201D334
:1013B0008B02C01A5241430A8B4201D34B02C01A1E
:1013C0005241030A8B4201D30B02C01A5241CDD2C3
:1013D000C3098B4201D3CB01C01A524183098B420E
:1013E00001D38B01C01A524143098B4201D34B01F7
:1013F000C01A524103098B4201D30B01C01A52415A
:10140000C3088B4201D3CB00C01A524183088B42E0
:1014100001D38B00C01A524143088B4201D34B00C9
:10142000C01A5241411A00D201465241104670473B
:101430005DE0CA0F00D04942031000D34042534040
:1014400000229C4603098B422DD3030A8B4212D300
:10145000FC22890112BA030A8B420CD38901921132
:101460008B4208D3890192118B4204D389013AD06F
:10147000921100E08909C3098B4201D3CB01C01A44
:10148000524183098B4201D38B01C01A5241430957
:101490008B4201D34B01C01A524103098B4201D345
:1014A0000B01C01A5241C3088B4201D3CB00C01AB2
:1014B000524183088B4201D38B00C01A5241D9D2CA
:1014C00043088B4201D34B00C01A5241411A00D24B
:1014D0000146634652415B10104601D34042002B47
:1014E00000D54942704763465B1000D3404201B5C6
:1014F000002000F00BF802BD0029F8D003B5FFF77B
:1015000015FF0EBC4243891A1847C0467047C046B3
:1015100010B50021041C00F081F8044B1868C36B5F
:10152000002B00D09847201C00F088F95C180000C0
:1015300070B50D4E0D4D0024AD1BAD1005D0A300B0
:10154000F35801349847A542F9D100F079F9084ED3
:10155000084D0024AD1BAD1005D0A300F358013495
:101560009847A542F9D170BD34040020340400200E
:10157000340400203C04002070B583073FD0541E83
:10158000002A3BD0CEB2031C032503E0621E002CD0
:1015900034D0141C01335A1E16702B42F6D1032C82
:1015A00024D9FF250D402A0215432A0415430F2C88
:1015B00011D9261C103E3609013636011A1C9B191A
:1015C000156055609560D56010329342F8D10F22B6
:1015D0001440032C0AD9261FB6080136B6001A1C7F
:1015E0009B1920C29342FCD103221440002C05D049
:1015F000C9B21C1919700133A342FBD170BD141C70
:10160000031CCCE708B5034B002B02D0024800F0C6
:1016100089F808BD0000000035170000F0B55646F7
:101620005F464D464446F0B40E1C3C4B87B01B68E9
:10163000019003934933FF330493A422039B520088
:101640009F58002F4CD0049B984600239B46C423F0
:101650005B009C46BC4463460293C6235B009A46EB
:101660007C68BA44A5007D19013C08D526E06B1DB5
:10167000FF331B68B34204D0043D013C1ED3002E4F
:10168000F5D17B686A68013BA3423AD05B466B6048
:10169000002AF1D07B68029999460123A34009688A
:1016A0000591194223D190477B684B45C5D14346EC
:1016B0001B68BB42C1D1043D013CE0D2184B002B5A
:1016C0000ED07B68002B23D13B68002B24D04246F0
:1016D000381C136000E000BF43461F68002FB6D1DE
:1016E00007B03CBC90469946A246AB46F0BD514679
:1016F0000968194207D12B1C843319680198904757
:10170000D2E77C60C4E72B1C843318689047CBE792
:101710003B68B8461F1CE1E70023FAE75C180000AD
:101720000000000008B5011C00220020002300F08A
:101730001BF808BD38B5094B094CE41AA41009D0B0
:10174000084AA518AD00ED182B68013C9847043DE8
:10175000002CF9D100F07AF838BDC0463C040020D6
:1017600040040020FFFFFF3FF8B544465F46564661
:101770004D469B462F4BF0B41C68A4235B00051C10
:10178000E0580E1C904600284BD043681F2B0DDC00
:101790005C1C002D21D102339B0044601E500020B0
:1017A0003CBC90469946A246AB46F8BD224B002B66
:1017B0003CD0C820400000E000BF002836D0A42262
:1017C00000235200A15843600160A0504032835072
:1017D000043283500124002DDDD09A0091468144CB
:1017E000424688214F467A50C42252009046804497
:1017F00042468739994012688A460A4394464246CF
:1018000061461160842249465F4652008F50022D86
:10181000C1D1021C55468D32FF3211680D4315604F
:10182000B9E7201C4D30FF30E050AEE701204042C8
:10183000B6E7C0465C18000000000000FEE7C046A6
:10184000F8B5C046F8BC08BC9E467047F8B5C0461F
:10185000F8BC08BC9E46704743000000080000200A
:041860000000000084
:08186400BCE8FF7F0100000059
:10186C00000000000024F40000000000F40200203E
:10187C005C030020C40300200000000000000000F6
:10188C00000000000000000000000000000000004C
:10189C0000000000000000000000000058180000CC
:1018AC00000000000000000000000000000000002C
:1018BC00000000000000000000000000000000001C
:1018CC00000000000000000000000000000000000C
:1018DC0000000000000000000000000000000000FC
:1018EC0000000000000000000000000000000000EC
:1018FC0000000000000000000000000000000000DC
:10190C0000000000000000000000000000000000CB
:10191C0001000000000000000E33CDAB34126DE668
:10192C00ECDE05000B0000000000000000000000D1
:10193C00000000000000000000000000000000009B
:10194C00000000000000000000000000000000008B
:10195C00000000000000000000000000000000007B
:10196C00000000000000000000000000000000006B
:101C9C000800002005160000E9000000C10000004B
:041CAC000000000034
:04000003000012D90E
:00000001FF
