:100000000040002021130000691300006B13000062
:1000100000000000000000000000000000000000E0
:100020000000000000000000000000006D13000050
:1000300000000000000000006F13000071130000BA
:1000400073130000FD05000073130000731300001C
:10005000731300000000000073130000731300000E
:100060007313000073130000731300007313000078
:100070007313000073130000731300007313000068
:100080007313000073130000731300007313000058
:100090007313000073130000731300007313000048
:1000A0007313000073130000000000000000000044
:1000B0000000000000000000000000000000000040
:1000C00010B5064C2378002B07D1054B002B02D02E
:1000D000044800E000BF0123237010BD4404002049
:1000E00000000000A818000008B5084B002B03D042
:1000F0000748084900E000BF07480368002B00D10B
:1001000008BD064B002BFBD09847F9E70000000024
:10011000A81800004804002040040020000000004F
:10012000164B002B00D1144B9D46402292029A1A86
:10013000924600218B460F461348144A121A01F0CA
:100140003FFA0F4B002B00D098470E4B002B00D0EE
:1001500098470020002104000D000D48002802D01F
:100160000C4801F003FB01F007FA2000290000F021
:100170002DF801F0F1F9C046000008000040002011
:10018000000000000000000044040020682F002050
:100190006D1700007D17000080B500AF8023DA05E1
:1001A00080235B000021D1508023DB0501221A60EF
:1001B000C0468023DA0580235B00D358002BF8D09B
:1001C00000F0C2FE00F05EF9BD4680BD80B500AF14
:1001D000FFF7E2FF72B600F047FF021C484B1A60BF
:1001E00062B6474B1B68002B57D0454B1B685A78AB
:1001F000444B1A70434B1B781A1C434B1B68D21894
:10020000414B1A603F4B1B78C62B1DD13C4B1B68E2
:100210000133AA221A703A4B1B68C83355221A7050
:10022000374B1B685A1C374B1B780233DBB2101C50
:10023000191C00F003FC334B1B781A1C334B1B6852
:10024000D218324B1A6028E02E4B1B78042B11D1A8
:100250002B4B1B689A1C2B4B1B78101C191C00F095
:1002600091FD284B1B781A1C284B1B68D218274B72
:100270001A6012E0234B1B78AA2B05D1244B1B6874
:100280005A1C234B1A6008E01E4B1B78002B04D02D
:10029000204B1B685A1C1F4B1A6000F0C5FB031E45
:1002A0002DD023E000F038FF021C1B4B1A601A4BC4
:1002B0001B68002B1AD0194B00221A7010E0164B45
:1002C0001B68164A12789B18144A1278111C144A9B
:1002D000525C1A70114B1B780133DAB20F4B1A7053
:1002E0000E4B1B78042BEAD900F03EFF0C4B181C78
:1002F000052100F07DFC031ED4D100F08BFB69E7E3
:10030000B8040020AC0400206C0400206804002025
:100310006404002060040020A8040020B50400202C
:10032000B004002080B582B000AF021CFB1D1A7023
:10033000064BFA1D1278111C1F220A400121914020
:100340000A1C1A60BD4602B080BDC04600E100E054
:1003500080B582B000AF021CFB1D1A70074AFB1D5E
:100360001B78191C1F230B40012199400B1C191CE1
:100370008023D150BD4602B080BDC04600E100E000
:1003800080B582B000AF021CFB1D1A70074AFB1D2E
:100390001B78191C1F230B40012199400B1C191CB1
:1003A000C0235B00D150BD4602B080BD00E100E03B
:1003B000B0B582B000AF021C3960FB1D1A70FB1D86
:1003C0001B787F2B2FD92D4CFB1D1B781A1C0F235C
:1003D0001340083B9908294AFB1D1B78181C0F2362
:1003E0000340083B9B0806339B00D3185B68FA1D4B
:1003F0001278101C03220240D200101CFF228240FF
:10040000D2431A403B689B01FF200340F81D00784F
:10041000051C03202840C00083401A438B1D9B000D
:10042000E3185A6026E0164CFB1D1B785BB29B0854
:100430001349FA1D127852B29208C03292005258F3
:10044000F91D0978081C03210140C900081CFF217F
:100450008140C94311403A689201FF200240F81DD3
:100460000078051C03202840C00082400A43C033A6
:100470009B001A51BD4602B0B0BDC04600ED00E081
:1004800000E100E080B500AF484A494B0421D1505B
:10049000464AA123DB000721D150444AA223DB00B6
:1004A0000121D150414A434B4349D1503F4AA523F2
:1004B000DB004249D1503D4A414B4249D1503B4A71
:1004C000A423DB004049D150384A404B0021D15091
:1004D000364AA623DB000121D150344A3C4B00218F
:1004E000D150324AA323DB003A49D1502F4A3A4B2C
:1004F0000221D1502D4A384BD35803221340022BEE
:1005000009D12A4A354B3649D150284AA723DB0066
:100510003449D15010E0254A2F4BD35803221340C1
:10052000012B09D1214A2D4BFF21D1501F49A7236F
:10053000DB000822FF32CA501C4A80239B00212185
:10054000D1501A4AC1239B000921D150012000211A
:10055000FFF72EFF0120FFF7E5FE00F031FD021C42
:10056000214B1A60204B1B68002B0DD00F4A1E4BED
:100570001B68191C1D4BD1501B4B1A681C4B1A6071
:100580001C4B00221A7009E008491B4B174A8B507C
:10059000174B194A1A60174B01221A70032000F0FA
:1005A000C1F9024B01225A60BD4680BD00100040D7
:1005B0000C05000024050000E7C2C3C4C8C7C6C5B7
:1005C0001C050000E7E7E7E7C2C2C2002C050000F7
:1005D00014050000C8C80401340500003C050000F3
:1005E000FFFF000021100100880500200405000025
:1005F00084050020700400209005002080B582B0A2
:1006000000AFAE4A80235B00D358012B2CD1AB4AFC
:10061000C1239B00D3580122134025D000F0D0FC09
:10062000021CA74B1A60A64B1B68002B0AD1A349DA
:10063000A44BA54A8B50A54BA24A1A60A44B012299
:100640001A700CE09D4A9E4B1B68191C9E4BD150A2
:100650009B4B1A689D4B1A609D4B00221A70974A5B
:1006600080235B000021D150944A86235B00D3583D
:10067000012B00D01FE1914AC1239B00D3580822CF
:10068000134000D117E18D4A8023DB00D358012BA2
:1006900004D0904B1B685A1C8E4B1A608E4B1B78F3
:1006A00001225340DBB2002B09D08C4B1B68013375
:1006B0001B781A1C8A4B1B68D218894B1A60874B0F
:1006C0001B6801331B781A1C864B1B68D218854B9C
:1006D0001A60854B1B685A1C834B1A607F4B1B6842
:1006E0001B78012B05D07D4B1B681B78022B00D09B
:1006F000B3E00120FFF72CFE00F082F96F4A80235F
:100700009B000321D1506D4AC2239B000921D15087
:100710006A4A88235B000021D150684B01221A618C
:10072000C046664A88235B00D358002BF9D06B4B38
:100730001B681B78012B51D1FB1D00221A7009E0A8
:10074000FB1D1B78694A0021D154FB1D1A78FB1D43
:1007500001321A70FB1D1B78C72BF1D9BB1D01227A
:100760001A707B1D00221A702CE000F009FD031C9A
:100770003B603B68002B00D128E0FB1D00221A7073
:1007800010E0BB1D1A78FB1D1B78D318FA1D1278D8
:1007900039688A181178554AD154FB1D1A78FB1D07
:1007A00001321A70FB1D1B78042BEAD9BB1DBA1D40
:1007B000127805321A7000F00BFD7B1D1A787B1D34
:1007C00001321A707B1D1B78182BCED97B1D1B782C
:1007D0001A1C9200D318DAB2444B1A703749434BB3
:1007E000394A8B50354A88235B000021D150334B66
:1007F00001221A60C046314A88235B00D358002B7F
:10080000F9D02E4A86235B000021D1502B4A802349
:100810005B000021D150294A80239B002121D15027
:10082000264AC1239B000921D150244A274B1B682B
:10083000191C254BD150254B1A68284B1A60244BA4
:100840001A78254B1A700120FFF79AFD0120FFF757
:1008500069FD1A4B01225A6028E01C4B1A681F4B95
:100860001A601B4B1A781C4B1A7000F0A9FB021C73
:10087000134B1A60124B1B68002B0AD10F49114B06
:10088000114A8B50114B0F4A1A60114B01221A70FA
:100890000CE00A4A0A4B1B68191C0B4BD150084B41
:1008A0001A680A4B1A600A4B00221A70034A862300
:1008B0005B000021D150BD4602B080BD0010004059
:1008C0008805002090050020040500008C0500200C
:1008D00071040020740400207004002084050020AE
:1008E0007C0400208004002078040020BC04002048
:1008F00080B582B000AF7860C046C046C046C046F2
:10090000C046C046C046C046C046C046C046C046B7
:10091000C046C0467B68013B7B60002BECD1BD46E6
:1009200002B080BD80B582B000AF786006E07B6821
:10093000013B7B60044B181CFFF7DAFF7B68002B40
:10094000F5D1BD4602B080BDE703000080B582B09E
:1009500000AF7860A023DB057A68C132FF329200D5
:100960000321D150BD4602B080BDC04680B582B0E3
:1009700000AF78600A1CFB1C1A70A023DB05FA1C70
:1009800012789200111C7A68C132FF329200D15065
:10099000BD4602B080BDC04680B582B000AF786071
:1009A000A023DA057B6801219940A123DB00D15007
:1009B000BD4602B080BDC04680B582B000AF786051
:1009C000A023DB057A68012191400A1C02495A5094
:1009D000BD4602B080BDC0460C05000080B582B0A7
:1009E00000AF7860A023DA05A223DB00D2587B6831
:1009F000DA40131C01221340181CBD4602B080BD12
:100A000080B500AF024B01221A70BD4680BDC046C2
:100A10005806002080B500AF024B00221A70BD4678
:100A200080BDC0465806002080B500AF024B1B7841
:100A3000181CBD4680BDC0465806002080B584B055
:100A400000AF78600A1CFB1C1A70FB1C1B78002B83
:100A50004FD00120FFF7B0FF274A84235B0000211D
:100A6000D150254A254B0021D1500F23FB180022DD
:100A70001A7022E020490F23FB181B787A68D318DC
:100A80001B781A1C1D4BCA50C0461B4A84235B00AE
:100A9000D358002BF9D0184A84235B000021D15091
:100AA000154AA323DB00D258154B1A600F23FB18FD
:100AB0001A780F23FB1801321A700F23FA18FB1C47
:100AC00012781B789A42D5D3C0460B4A84235B0028
:100AD000D358002BF9D0084A84235B000021D15061
:100AE000054AA323DB00D258054B1A600120FFF70B
:100AF00053FFBD4604B080BD003000401C0500001F
:100B00005C06002080B584B000AF78600A1CFB1C36
:100B10001A70FB1C1B78002B60D00120FFF74CFFE4
:100B2000304A84235B000021D1502E4A2E4B0221F3
:100B3000D1500F23FB1800221A702EE0294A2A4BAD
:100B40000021D150C046274A84235B00D358002B94
:100B5000F9D0244A84235B000021D1500F23FB18D5
:100B60001B78002B06D11F4AA323DB00D2581F4B52
:100B70001A600BE00F23FB181B78013B7A68D3182F
:100B80001849A322D2008A58D2B21A700F23FB1838
:100B90001A780F23FB1801321A700F23FA18FB1C66
:100BA00012781B789A42C9D3C0460E4A84235B0050
:100BB000D358002BF9D00B4A84235B000021D1507D
:100BC000FB1C1B78013B7A68D3180649A322D2008C
:100BD0008A58D2B21A700120FFF7DEFEBD4604B07B
:100BE00080BDC046003000401C0500005C060020AF
:100BF00080B584B000AF78600A1CFB1C1A700E230D
:100C0000FB1801221A70FB1C1B78002B00D1ACE0F2
:100C10000420FFF7E3FE031E00D0A2E00120FFF74F
:100C2000CBFE554A84235B000021D150524A534BDE
:100C30000221D1500F23FB1800221A706FE00D2300
:100C4000FB1800221A7006E00120FFF7A5FE0D2315
:100C5000FB1801221A700420FFF7C0FE031EF3D018
:100C60000D23FB181B78002B2AD0C046424A842350
:100C70005B00D358002BF9D03F4A84235B0000214E
:100C8000D1500F23FB181B78002B06D13A4AA3231F
:100C9000DB00D2583A4B1A600BE00F23FB181B788D
:100CA000013B7A68D3183449A322D2008A58D2B2C1
:100CB0001A700120FFF780FE2F4A304B0221D150DD
:100CC0002D4A2E4B0021D150C0462B4A84235B0075
:100CD000D358002BF9D0284A84235B000021D1503F
:100CE0000F23FB181B78002B06D1234AA323DB001C
:100CF000D258234B1A600BE00F23FB181B78013BE3
:100D00007A68D3181C49A322D2008A58D2B21A702A
:100D10000F23FB181A780F23FB1801321A700F23C8
:100D2000FA18FB1C12781B789A4288D3C046124AE4
:100D300084235B00D358002BF9D00F4A84235B0037
:100D40000021D150FB1C1B78013B7A68D3180A495B
:100D5000A322D2008A58D2B21A700120FFF71CFEDB
:100D600003E00E23FB1800221A700E23FB181B78D9
:100D7000181CBD4604B080BD003000401C050000BA
:100D80005C06002080B584B000AF78600A1CFB1CB4
:100D90001A700E23FB1800221A70FB1C1B78002B04
:100DA00000D1C8E00120FFF707FE644A84235B00FE
:100DB0000021D150614A624B0021D1500F23FB1812
:100DC00000221A705DE05D490F23FB181B787A68DA
:100DD000D3181B781A1C5A4BCA50C046574A842352
:100DE0005B00D358002BF9D0544A84235B000021C8
:100DF000D150524AA323DB00D258524B1A601FE055
:100E00000120FFF7C9FDC0464C4A84235B00D3583C
:100E1000002BF9D0494A84235B000021D150474A76
:100E2000A323DB00D258474B1A600120FFF7C4FD13
:100E3000424A434B0021D1500E23FB1801221A7065
:100E40000420FFF7CBFD031EDAD00E23FB181B781E
:100E5000002B0FD00F23FB181B78002B06D00F237D
:100E6000FB181A780F23FB18013A1A700E23FB188F
:100E700000221A700F23FB181A780F23FB18013277
:100E80001A700F23FA18FB1C12781B789A429AD317
:100E900037E00120FFF780FDC046284A84235B002D
:100EA000D358002BF9D0254A84235B000021D15070
:100EB000224AA323DB00D258224B1A600120FFF7FD
:100EC0007BFD1E4A1E4B0021D1501C49FB1C1B7888
:100ED000013B7A68D3181B781A1C194BCA50C046BC
:100EE000164A84235B00D358002BF9D0134A84237D
:100EF0005B000021D150114AA323DB00D258114BD3
:100F00001A600420FFF76AFD031EC2D0C0460B4AD8
:100F100084235B00D358002BF9D0084A84235B005C
:100F20000021D150054AA323DB00D258054B1A609B
:100F30000120FFF731FDBD4604B080BD0030004008
:100F40001C0500005C06002080B500AF174B002296
:100F50001A70174AA123DB000021D150144A154B07
:100F60000221D150124AA223DB000321D1500120DB
:100F7000FFF7ECFC0120FFF70FFD04200021FFF735
:100F8000F5FC04200021FFF7F1FC09490A4AA023DF
:100F90009B058B50064A094B0221D150044AA023DD
:100FA000DB000121D150BD4680BDC046580600205F
:100FB000003000400C05000024050000540500002E
:100FC00080B582B000AF164B1B68322B1EDC154B70
:100FD0001B685A1C134B1A60134B1B781A1CC9232D
:100FE0005A43124BD3187B600F4B1B780133181CEC
:100FF000342100F0A5FA0B1CDAB20B4B1A70084B27
:101000001B685A1C064B1A607B6805E0084B1B687E
:101010005A1C074B1A600023181CBD4602B080BD45
:10102000880400208C040020850400206006002035
:10103000A004002080B500AF084B1B685A1C074B6A
:101040001A60074B1B685A1C054B1A60054B1B683E
:101050005A1C044B1A60BD4680BDC046880400205F
:10106000900400209C04002080B582B000AF144B97
:101070001B68022B1EDD134B1B685A1C114B1A6098
:10108000114B1B781A1CC9235A43104BD3187B6091
:101090000D4B1B780133181C342100F051FA0B1C46
:1010A000DAB2094B1A70064B1B685A1E044B1A60C1
:1010B0007B6800E00023181CBD4602B080BDC0461E
:1010C000880400209404002084040020600600208E
:1010D00080B500AF084B1B685A1E074B1A60074BC0
:1010E0001B685A1C054B1A60054B1B685A1E044BA3
:1010F0001A60BD4680BDC0468804002098040020C8
:101100009C04002080B500AF024B1B68DBB2181CAA
:10111000BD4680BD8804002080B582B000AF0F4B73
:101120001B78092B15D80E4B1B781A1C131C9B001F
:101130009B180C4A9B187B60094B1B780133181CC9
:101140000A2100F0FDF90B1CDAB2054B1A707B681E
:1011500000E00023181CBD4602B080BDA60400209C
:10116000A5040020342F002080B500AF034B1B786E
:101170000133DAB2014B1A70BD4680BDA6040020CF
:1011800080B582B000AF0F4B1B78002B15D00E4BF3
:101190001B781A1C131C9B009B180C4A9B187B6025
:1011A000094B1B780133181C0A2100F0C9F90B1CEC
:1011B000DAB2054B1A707B6800E00023181CBD46AC
:1011C00002B080BDA6040020A4040020342F00201B
:1011D00080B500AF034B1B78013BDAB2014B1A70AC
:1011E000BD4680BDA604002080B500AF024B1B7831
:1011F000181CBD4680BDC046A604002080B500AFC7
:10120000024B034A1A60BD4680BDC0460400002060
:101210000024F40080B500AF00F01CF8031E06D0D7
:10122000094B0A4A1A600A4B802212021A6000F027
:1012300051F8031E05D08023DA05C123DB0001210C
:10124000D150BD4680BDC04604050040DFFF07C049
:10125000186C004080B500AF1A4B1B68FF2213408A
:10126000012B2AD1184B1B680F22134025D1174B95
:101270001B68F022134006D1154B1B68F022134067
:1012800001D101231AE0114B1B68F0221340102BEF
:1012900006D10F4B1B68F022134001D101230DE052
:1012A0000A4B1B68F0221340302B06D1084B1B68F9
:1012B000F022134001D1012300E00023181CBD4699
:1012C00080BDC046E00F00F0E40F00F0E80F00F032
:1012D000EC0F00F080B500AF0D4B1B68FF221340F0
:1012E000012B11D10B4B1B680F2213400CD10A4B61
:1012F0001B68F0221340402B06D1084B1B68F022DC
:10130000134001D1012300E00023181CBD4680BD1D
:10131000E00F00F0E40F00F0E80F00F0EC0F00F039
:1013200003210A4802680A430260094802680A4326
:1013300002600849084A094B9B1A03DD043BC85860
:10134000D050FBDC06488047064800472405004093
:1013500054050040B41800000000002044040020A0
:101360001512000021010000FEE7FEE7FEE7FEE7A0
:10137000FEE7FEE703460B437FD4002243088B427F
:1013800074D303098B425FD3030A8B4244D3030B0C
:101390008B4228D3030C8B420DD3FF22090212BAD1
:1013A000030C8B4202D31212090265D0030B8B424D
:1013B00019D300E0090AC30B8B4201D3CB03C01A37
:1013C0005241830B8B4201D38B03C01A5241430B12
:1013D0008B4201D34B03C01A5241030B8B4201D302
:1013E0000B03C01A5241C30A8B4201D3CB02C01A6D
:1013F0005241830A8B4201D38B02C01A5241430AE5
:101400008B4201D34B02C01A5241030A8B4201D3D3
:101410000B02C01A5241CDD2C3098B4201D3CB017A
:10142000C01A524183098B4201D38B01C01A524129
:1014300043098B4201D34B01C01A524103098B422D
:1014400001D30B01C01A5241C3088B4201D3CB0018
:10145000C01A524183088B4201D38B00C01A5241FB
:1014600043088B4201D34B00C01A5241411A00D2AB
:1014700001465241104670475DE0CA0F00D0494214
:10148000031000D34042534000229C4603098B4284
:101490002DD3030A8B4212D3FC22890112BA030A0C
:1014A0008B420CD3890192118B4208D3890192118E
:1014B0008B4204D389013AD0921100E08909C30913
:1014C0008B4201D3CB01C01A524183098B4201D315
:1014D0008B01C01A524143098B4201D34B01C01A00
:1014E000524103098B4201D30B01C01A5241C30878
:1014F0008B4201D3CB00C01A524183088B4201D3E7
:101500008B00C01A5241D9D243088B4201D34B0001
:10151000C01A5241411A00D20146634652415B1043
:10152000104601D34042002B00D549427047634624
:101530005B1000D3404201B5002000F00BF802BD63
:101540000029F8D003B5FFF715FF0EBC4243891AF6
:101550001847C0467047C04610B50021041C00F073
:1015600081F8044B1868C36B002B00D09847201CEF
:1015700000F088F9A418000070B50D4E0D4D002440
:10158000AD1BAD1005D0A300F35801349847A54218
:10159000F9D100F079F9084E084D0024AD1BAD10CB
:1015A00005D0A300F35801349847A542F9D170BD86
:1015B0003404002034040020340400203C040020C3
:1015C00070B583073FD0541E002A3BD0CEB2031C17
:1015D000032503E0621E002C34D0141C01335A1E74
:1015E00016702B42F6D1032C24D9FF250D402A0278
:1015F00015432A0415430F2C11D9261C103E360919
:10160000013636011A1C9B19156055609560D5602E
:1016100010329342F8D10F221440032C0AD9261F0E
:10162000B6080136B6001A1C9B1920C29342FCD1A1
:1016300003221440002C05D0C9B21C1919700133C3
:10164000A342FBD170BD141C031CCCE708B5034BAF
:10165000002B02D0024800F089F808BD000000000D
:101660007D170000F0B556465F464D464446F0B43F
:101670000E1C3C4B87B01B68019003934933FF332A
:101680000493A422039B52009F58002F4CD0049B2C
:10169000984600239B46C4235B009C46BC4463469B
:1016A0000293C6235B009A467C68BA44A5007D1964
:1016B000013C08D526E06B1DFF331B68B34204D004
:1016C000043D013C1ED3002EF5D17B686A68013BC6
:1016D000A3423AD05B466B60002AF1D07B68029946
:1016E00099460123A34009680591194223D19047E7
:1016F0007B684B45C5D143461B68BB42C1D1043D05
:10170000013CE0D2184B002B0ED07B68002B23D17C
:101710003B68002B24D04246381C136000E000BF19
:1017200043461F68002FB6D107B03CBC904699468F
:10173000A246AB46F0BD51460968194207D12B1CA1
:101740008433196801989047D2E77C60C4E72B1C6A
:10175000843318689047CBE73B68B8461F1CE1E725
:101760000023FAE7A41800000000000008B5011CDF
:1017700000220020002300F01BF808BD38B5094BFB
:10178000094CE41AA41009D0084AA518AD00ED18B8
:101790002B68013C9847043D002CF9D100F07AF801
:1017A00038BDC0463C04002040040020FFFFFF3F3E
:1017B000F8B544465F4656464D469B462F4BF0B41F
:1017C0001C68A4235B00051CE0580E1C90460028F2
:1017D0004BD043681F2B0DDC5C1C002D21D1023344
:1017E0009B0044601E5000203CBC90469946A24697
:1017F000AB46F8BD224B002B3CD0C820400000E097
:1018000000BF002836D0A42200235200A158436014
:101810000160A05040328350043283500124002DD7
:10182000DDD09A0091468144424688214F467A5045
:10183000C42252009046804442468739994012683B
:101840008A460A43944642466146116084224946CC
:101850005F4652008F50022DC1D1021C55468D3279
:10186000FF3211680D431560B9E7201C4D30FF3081
:10187000E050AEE701204042B6E7C046A4180000A1
:1018800000000000FEE7C046F8B5C046F8BC08BC42
:101890009E467047F8B5C046F8BC08BC9E467047E7
:0C18A000430000000800002000000000D1
:0818AC0074E8FF7F0100000059
:1018B400000000000024F40000000000F4020020F6
:1018C4005C030020C40300200000000000000000AE
:1018D4000000000000000000000000000000000004
:1018E400000000000000000000000000A01800003C
:1018F40000000000000000000000000000000000E4
:1019040000000000000000000000000000000000D3
:1019140000000000000000000000000000000000C3
:1019240000000000000000000000000000000000B3
:1019340000000000000000000000000000000000A3
:101944000000000000000000000000000000000093
:101954000000000000000000000000000000000083
:1019640001000000000000000E33CDAB34126DE620
:10197400ECDE05000B000000000000000000000089
:101984000000000000000000000000000000000053
:101994000000000000000000000000000000000043
:1019A4000000000000000000000000000000000033
:1019B4000000000000000000000000000000000023
:101CE400080000204D160000E9000000C1000000BB
:041CF40000000000EC
:0400000300001321C5
:00000001FF
