:1000000000400020E9130000311400003314000008
:1000100000000000000000000000000000000000E0
:100020000000000000000000000000003514000087
:100030000000000000000000371400003914000028
:100040003B140000E90400003B1400003B140000D6
:1000500011120000000000003B1400003B140000DF
:100060003B1400003B1400003B1400003B14000054
:100070003B1400003B1400003B1400003B14000044
:100080003B1400003B1400003B1400003B14000034
:100090003B1400003B1400003B1400003B14000024
:1000A0003B1400003B1400000000000000000000B2
:1000B0000000000000000000000000000000000040
:1000C00010B5064C2378002B07D1054B002B02D02E
:1000D000044800E000BF0123237010BD4404002049
:1000E00000000000B819000008B5084B002B03D031
:1000F0000748084900E000BF07480368002B00D10B
:1001000008BD064B002BFBD09847F9E70000000024
:10011000B81900004804002040040020000000003E
:10012000164B002B00D1144B9D46402292029A1A86
:10013000924600218B460F461348144A121A01F0CA
:10014000A3FA0F4B002B00D098470E4B002B00D08A
:1001500098470020002104000D000D48002802D01F
:100160000C4801F067FB01F06BFA2000290000F059
:1001700049F801F055FAC046000008000040002090
:100180000000000000000000440400208C2F00202C
:10019000351800004518000080B584B000AFF86045
:1001A000B9607A60FEE7C04680B582B000AF8023B8
:1001B000DA0580235B000021D1508023DB0501227A
:1001C0001A60C0468023DA0580235B00D358002BD9
:1001D000F8D000F0D9FB031C7B607B683B603B6878
:1001E000002B06D03A68064B101C2E211A1CFFF774
:1001F000D3FF00F0BDF862B6BD4602B080BDC04678
:100200006819000080B500AFFFF7CEFFFEE7C046DB
:1002100080B582B000AF021CFB1D1A70064BFA1DA0
:100220001278111C1F220A40012191400A1C1A60F9
:10023000BD4602B080BDC04600E100E080B582B09E
:1002400000AF021CFB1D1A70074AFB1D1B78191C0E
:100250001F230B40012199400B1C191C8023D150F6
:10026000BD4602B080BDC04600E100E080B582B06E
:1002700000AF021CFB1D1A70074AFB1D1B78191CDE
:100280001F230B40012199400B1C191CC0235B004C
:10029000D150BD4602B080BD00E100E0B0B582B0F3
:1002A00000AF021C3960FB1D1A70FB1D1B787F2BF1
:1002B0002FD92D4CFB1D1B781A1C0F231340083B14
:1002C0009908294AFB1D1B78181C0F230340083B83
:1002D0009B0806339B00D3185B68FA1D1278101C2C
:1002E00003220240D200101CFF228240D2431A4057
:1002F0003B689B01FF200340F81D0078051C03208C
:100300002840C00083401A438B1D9B00E3185A60AD
:1003100026E0164CFB1D1B785BB29B081349FA1DA7
:10032000127852B29208C03292005258F91D0978E0
:10033000081C03210140C900081CFF218140C9435A
:1003400011403A689201FF200240F81D0078051C18
:1003500003202840C00082400A43C0339B001A514A
:10036000BD4602B0B0BDC04600ED00E000E100E0D7
:1003700080B500AF484A494B0421D150464AA123D9
:10038000DB000021D150444AA223DB000121D150DF
:10039000414A434B4349D1503F4AA523DB004249E0
:1003A000D1503D4A414B4249D1503B4AA423DB0046
:1003B0004049D150384A404B0021D150364AA623FB
:1003C000DB000121D150344A3C4B0021D150324A4C
:1003D000A323DB003A49D1502F4A3A4B0221D15096
:1003E0002D4A384BD35803221340022B09D12A4AF5
:1003F000354B3649D150284AA723DB003449D15028
:1004000010E0254A2F4BD35803221340012B09D16A
:10041000214A2D4BFF21D1501F49A723DB00082281
:10042000FF32CA501C4A80239B002121D1501A4A16
:10043000C1239B000921D15001200021FFF72EFF8D
:100440000120FFF7E5FE00F071FB021C214B1A6052
:10045000204B1B68002B0DD00F4A1E4B1B68191C2C
:100460001D4BD1501B4B1A681C4B1A601C4B0022B1
:100470001A7009E008491B4B174A8B50174B194A51
:100480001A60174B01221A70032000F0D1F9024BB9
:1004900001225A60BD4680BD001000400C050000DE
:1004A00024050000E7C2C3C4C8C7C6C51C050000B8
:1004B000E7E7E7E7C2C2C2002C0500001405000010
:1004C000C8C80401340500003C050000FFFF00001F
:1004D0002110010070060020040500006C060020B9
:1004E000740400207806002080B582B000AFB54AC1
:1004F00080235B00D358012B2CD1B24AC1239B002F
:10050000D3580122134025D000F010FB021CAE4B43
:100510001A60AD4B1B68002B0AD1AA49AB4BAC4A01
:100520008B50AC4BA94A1A60AB4B01221A700CE0FD
:10053000A44AA54B1B68191CA54BD150A24B1A68A5
:10054000A44B1A60A44B00221A709E4A80235B00C1
:100550000021D1509B4A86235B00D358012B00D049
:100560002CE1984AC1239B00D3580822134000D1A4
:1005700024E19A4B1B681B78012B04D0974B1B6816
:100580001B78022B01D1012300E000231A1C012358
:100590001340DAB2924B1A708A4A8023DB00D35898
:1005A000012B09D08F4B1B685A1C8E4B1A608B4B4A
:1005B0001B68FF221A7003E0884B1B6800221A7028
:1005C000894B1B7801225340DBB2002B09D0834BAF
:1005D0001B6801331B781A1C844B1B68D218834B91
:1005E0001A607E4B1B6801331B781A1C804B1B68FA
:1005F000D2187F4B1A607F4B1B685A1C7D4B1A60C8
:10060000774B1B78002B00D1AAE00120FFF716FEE4
:100610006C4A80239B000321D1506A4AC2239B006D
:100620000921D150674A88235B000021D150654BD6
:1006300001221A61C046634A88235B00D358002B0D
:10064000F9D0FB1D00221A7009E0FB1D1B786A4AD5
:100650000021D154FB1D1A78FB1D01321A70FB1DBD
:100660001B78C72BF1D9BB1D01221A707B1D0022FC
:100670001A702AE000F02EFB031C3B603B68002B45
:1006800000D126E0FB1D00221A7010E0BB1D1A7875
:10069000FB1D1B78D318FA1D127839688A18117857
:1006A000554AD154FB1D1A78FB1D01321A70FB1DEF
:1006B0001B78042BEAD9BB1DBA1D127805321A70BB
:1006C0007B1D1A787B1D01321A707B1D1B78182B3D
:1006D000D0D97B1D1B781A1C9200D318DAB2464B76
:1006E0001A703849444B3A4A8B50364A88235B008B
:1006F0000021D150334B01221A60C046314A882371
:100700005B00D358002BF9D02E4A86235B000021D2
:10071000D1502C4A80235B000021D150294A8023EC
:100720009B002121D150274AC1239B000921D15090
:10073000244A284B1B68191C254BD150254B1A689D
:10074000264B1A60244B1A78274B1A700120FFF7AA
:100750008DFD0120FFF75CFD1A4B01225A6028E055
:100760001C4B1A681D4B1A601B4B1A781E4B1A70D3
:1007700000F0DCF9021C144B1A60134B1B68002BB1
:100780000AD11049114B124A8B50124B0F4A1A6072
:10079000114B01221A700CE00A4A0B4B1B68191C02
:1007A0000B4BD150084B1A680A4B1A600A4B0022B7
:1007B0001A70044A86235B000021D150BD4602B066
:1007C00080BDC04600100040700600207806002062
:1007D0000405000074060020750400206C0600204B
:1007E00068060020780400207404002080040020A3
:1007F000840400207C040020A005002080B582B085
:1008000000AF7860C046C046C046C046C046C0463D
:10081000C046C046C046C046C046C046C046C046A8
:100820007B68013B7B60002BECD1BD4602B080BDF4
:1008300080B582B000AF786006E07B68013B7B60EA
:10084000044B181CFFF7DAFF7B68002BF5D1BD467F
:1008500002B080BDE703000080B582B000AF7860D1
:10086000A023DB057A68C132FF3292000321D15008
:10087000BD4602B080BDC04680B582B000AF786092
:10088000A023DA057B6801219940A123DB00D15028
:10089000BD4602B080BDC04680B586B000AF3B1DEE
:1008A000186059609A603B1D1B78012B5DD13B1D80
:1008B0009B68052B1BD12E4B1B681B78AA2B02D1E2
:1008C00000F0C0F939E02A4B1A682A4B9A4201D04D
:1008D00000F0F4F900F0CAF9021C254B1A60244B11
:1008E0001B68002B29D1224B224A1A6025E03B1DB0
:1008F0009B68C82B21D1204B1B685A1C1E4B1A60C9
:1009000000F040F9021C1D4B1A601C4B1B68002BA9
:1009100002D11A4B1A4A1A60154B1A68154B9A42A3
:100920000BD100F0A3F9021C114B1A60104B1B688D
:10093000002B02D10E4B0F4A1A60104B1A680C4B59
:100940001B68101C191CC822052300F019FC031C8D
:100950007B617B693B613B69002B06D03A69094B9F
:10096000101C55211A1CFFF717FCBD4606B080BDB0
:1009700044070020500500205805002048070020AB
:10098000880400207819000080B58AB000AF464B7B
:1009900000221A70454B181C00F062FA031C3B62DF
:1009A0003B6AFB61FB69002B06D0FA69404B101CC7
:1009B0006A211A1CFFF7F0FB3B1C16221A603B1C35
:1009C00015225A603B1C14229A603B1C1722DA60E5
:1009D0003B1C00221A743B1C01225A743B1CAA22A5
:1009E0009A743B1C5522DA743B1C181C00F068FA00
:1009F000031C3B623B6ABB61BB69002B06D0BA6932
:100A00002B4B101C77211A1CFFF7C6FB1820FFF791
:100A100023FF1820FFF730FF00237B6207E0254A01
:100A20007B6AD31800221A707B6A01337B627B6A6F
:100A3000C72BF4DD00237B6207E01F4A7B6AD318D3
:100A400000221A707B6A01337B627B6A042BF4DD1F
:100A500000F00CF9021C194B1A60184B1B68002B94
:100A600002D1164B144A1A60154B124A1A60144BE5
:100A70001A68124B1B68101C191CC822052300F0B1
:100A80007FFB031C3B623B6A7B617B69002B06D0CA
:100A90007A69074B101C90211A1CFFF77DFB00237D
:100AA000181CBD460AB080BD400700209908000010
:100AB0007819000088040020500500204407002019
:100AC0004807002080B582B000AF154B1B7801228B
:100AD0005340DBB2002B20D000F054F8031C7B60A5
:100AE0007B68002B19D00E4B01221A700D4B1B682E
:100AF0007A68101C191CC822052300F041FB031C56
:100B00003B603B68002B03D1074B7A681A6004E016
:100B100000F072F8024B00221A70BD4602B080BD90
:100B200040070020440700204807002080B582B01D
:100B300000AF114B1B68312B19DC104B1B781A1CB2
:100B4000C9235A430E4BD3187B600C4B1B780133DF
:100B5000181C332100F058FD0B1CDAB2074B1A7039
:100B6000054B1B685A1C044B1A607B6800E000238D
:100B7000181CBD4602B080BD600500205D05002048
:100B80004C07002080B582B000AFFB1D00221A7018
:100B900022E0164B1B68022B1CDD154B1B781A1C20
:100BA000C9235A43134BD3183B60114B1B780133B5
:100BB000181C332100F028FD0B1CDAB20C4B1A7004
:100BC0000A4B1B685A1E094B1A60FB1D3A68527883
:100BD0001A7001E0002304E0FB1D1B78002BD8D025
:100BE0003B68181CBD4602B080BDC04660050020B1
:100BF0005C0500204C07002080B500AF0A4B1B6845
:100C00005A1C094B1A60094B1B78002B03D1074B68
:100C100032221A7005E0054B1B78013BDAB2034B18
:100C20001A70BD4680BDC046600500205C050020EE
:100C300080B500AF024B1B68DBB2181CBD4680BDFF
:100C40006005002080B500AF054B00221A70054BEF
:100C500000221A70044B00221A60BD4680BDC046B7
:100C60005C0500205D0500206005002080B582B095
:100C700000AF0F4B1B78092B15D80E4B1B781A1C95
:100C8000131C9B009B180C4A9B187B60094B1B781C
:100C90000133181C0A2100F0B7FC0B1CDAB2054B1B
:100CA0001A707B6800E00023181CBD4602B080BDAE
:100CB0006605002065050020582F002080B500AF94
:100CC000034B1B780133DAB2014B1A70BD4680BD6D
:100CD0006605002080B582B000AF124B1B78002B58
:100CE0001BD0114B1B781A1C131C9B009B180F4A1E
:100CF0009B187B600C4B1B780133181C0A2100F0F9
:100D000083FC0B1CDAB2084B1A70064B1B78013BB4
:100D1000DAB2044B1A707B6800E00023181CBD4651
:100D200002B080BD6605002064050020582F002019
:100D300080B582B000AF021CFB1D1A70064BFA1D75
:100D40001278111C1F220A40012191400A1C1A60CE
:100D5000BD4602B080BDC04600E100E080B582B073
:100D600000AF021CFB1D1A70074AFB1D1B78191CE3
:100D70001F230B40012199400B1C191CC0235B0051
:100D8000D150BD4602B080BD00E100E0B0B582B0F8
:100D900000AF021C3960FB1D1A70FB1D1B787F2BF6
:100DA0002FD92D4CFB1D1B781A1C0F231340083B19
:100DB0009908294AFB1D1B78181C0F230340083B88
:100DC0009B0806339B00D3185B68FA1D1278101C31
:100DD00003220240D200101CFF228240D2431A405C
:100DE0003B689B01FF200340F81D0078051C032091
:100DF0002840C00083401A438B1D9B00E3185A60B3
:100E000026E0164CFB1D1B785BB29B081349FA1DAC
:100E1000127852B29208C03292005258F91D0978E5
:100E2000081C03210140C900081CFF218140C9435F
:100E300011403A689201FF200240F81D0078051C1D
:100E400003202840C00082400A43C0339B001A514F
:100E5000BD4602B0B0BDC04600ED00E000E100E0DC
:100E600080B582B000AF7860064B7A681A60054B97
:100E70001B68002B01D0002300E00E23181CBD4688
:100E800002B080BD8405002080B582B000AF7860DC
:100E9000034B7A681A60C046BD4602B080BDC046AA
:100EA0006805002080B582B000AF7860034B7A6897
:100EB0001A60C046BD4602B080BDC0466C05002029
:100EC00080B584B000AF78607B68002B01D10E2321
:100ED000BEE0A023DA057B6818685F4B1B68190227
:100EE000031CC133FF339B009950A023DA057B68B4
:100EF000D8685A4B1B689900031CC133FF339B0011
:100F00009950A023DA057B685B68C133FF339B00EF
:100F100000219950A023DA057B689B68C133FF3319
:100F20009B00002199504E497B68DB684D4A8B50ED
:100F30004B497B689A68A123DB00CA5048497B680B
:100F40005A68A223DB00CA5045497B681B68464AA1
:100F50008B50434AA723DB000021D150404AA923EC
:100F6000DB000021D1500023BB600023FB607B68C5
:100F70001B7C012B0BD002DC002B05D010E0022BD8
:100F800008D0032B09D00BE00023BB600BE0022349
:100F9000BB6008E00423BB6005E00623BB6002E001
:100FA0000723FB60C046FB68002B01D0FB684FE0C5
:100FB0007B685B7C002B13D12949BB68012213435A
:100FC0002A4A8B50264A7B689B7C191C284BD1509F
:100FD000234A7B68DB7C191CB823DB00D15010E06E
:100FE0001F49224ABB688B501D4A7B689B7C191C99
:100FF0001F4BD1501A4A7B68DB7C191CB823DB00DD
:10100000D150174A82235B000021D150144A942307
:101010005B000021D150124A80239B000421D15053
:10102000144B00221A7004200021FFF7AFFE0420A9
:10103000FFF794FE0A4AC1239B000F49D1500420B8
:10104000FFF776FE064AA023DB000221D150FB68A1
:10105000181CBD4604B080BD6C050020680500204A
:1010600000400040140500000C050000540500007D
:101070005C050000800500200204000090B585B0EA
:1010800000AF304B1B78DBB2022B08D0032B2CD0E7
:10109000012B00D053E02C4B01225A624FE03B1C45
:1010A00000221A703B1C00225A603B1C00229A60EE
:1010B000264B1A680F23FB18511E8A411A700F2302
:1010C000FB181B7801225340DBB2002B05D0204BCC
:1010D0000020CB211A1CFFF75FF81C4B1C683B1C3F
:1010E000186859689A68A04729E03B1C01221A70C9
:1010F000154A184BD2583B1C5A60134A164BD2580B
:101100003B1C9A60114B1A680E23FB18511E8A4132
:101110001A700E23FB181B7801225340DBB2002B00
:1011200005D00B4B0020D4211A1CFFF735F8074BD4
:101130001C683B1C186859689A68A047C046BD46A1
:1011400005B090BD800500200040004084050020CF
:10115000841900003C0500004C05000080B582B0F9
:1011600000AF021CFB1D1A70044BFA1D12781A7096
:10117000FFF784FFBD4602B080BDC0468005002059
:1011800080B586B000AFF860B960191CFB1D1A70FD
:10119000BB1D0A1C1A70FB68002B02D0BB68002B19
:1011A00001D10E2325E0154B1B78DBB2012B19D0A2
:1011B00002DC002B02D018E0032B16DC104BFA687F
:1011C0001A60104BBA681A60FB1D1A780E4B1A6031
:1011D000BB1D1A780D4B1A6000237B610120FFF7BD
:1011E000BDFF05E008237B6102E003237B61C0466D
:1011F0007B69181CBD4606B080BDC0468005002036
:101200007005002074050020780500207C05002072
:1012100080B500AF234A94235B00D358002B29D01C
:10122000204A94235B000021D1501F4B1B78DBB276
:10123000012B00D01EE01B4A1C4B1B68191C1C4BC9
:10124000D150184A1B4B1B68191C1B4BD150154918
:101250001A4B1A68A723DB00CA501249184B1A68A8
:10126000A923DB00CA500F4B01229A620220FFF72C
:1012700075FFC0460B4A82235B00D358002B0ED06B
:10128000084A82235B000021D150074B1B78DBB258
:10129000022B00D003E00320FFF760FFC046BD46ED
:1012A00080BDC04600400040800500207005002041
:1012B0004405000074050020340500007C05002072
:1012C0007805002080B500AF024B034A1A60BD4686
:1012D00080BDC046040000200024F40080B500AFAB
:1012E00000F01CF8031E06D0094B0A4A1A600A4B8C
:1012F000802212021A6000F051F8031E05D08023EC
:10130000DA05C123DB000121D150BD4680BDC046B6
:1013100004050040DFFF07C0186C004080B500AF37
:101320001A4B1B68FF221340012B2AD1184B1B6854
:101330000F22134025D1174B1B68F022134006D112
:10134000154B1B68F022134001D101231AE0114B09
:101350001B68F0221340102B06D10F4B1B68F022A4
:10136000134001D101230DE00A4B1B68F02213400A
:10137000302B06D1084B1B68F022134001D101230A
:1013800000E00023181CBD4680BDC046E00F00F001
:10139000E40F00F0E80F00F0EC0F00F080B500AFB4
:1013A0000D4B1B68FF221340012B11D10B4B1B6807
:1013B0000F2213400CD10A4B1B68F0221340402B24
:1013C00006D1084B1B68F022134001D1012300E035
:1013D0000023181CBD4680BDE00F00F0E40F00F0B4
:1013E000E80F00F0EC0F00F003210A4802680A43FE
:1013F0000260094802680A4302600849084A094B2A
:101400009B1A03DD043BC858D050FBDC06488047DC
:10141000064800472405004054050040C419000058
:101420000000002044040020DD1200002101000023
:10143000FEE7FEE7FEE7FEE7FEE7FEE703460B43B7
:101440007FD4002243088B4274D303098B425FD3BD
:10145000030A8B4244D3030B8B4228D3030C8B42E9
:101460000DD3FF22090212BA030C8B4202D31212CF
:10147000090265D0030B8B4219D300E0090AC30BA4
:101480008B4201D3CB03C01A5241830B8B4201D351
:101490008B03C01A5241430B8B4201D34B03C01A3A
:1014A0005241030B8B4201D30B03C01A5241C30AB2
:1014B0008B4201D3CB02C01A5241830A8B4201D323
:1014C0008B02C01A5241430A8B4201D34B02C01A0D
:1014D0005241030A8B4201D30B02C01A5241CDD2B2
:1014E000C3098B4201D3CB01C01A524183098B42FD
:1014F00001D38B01C01A524143098B4201D34B01E6
:10150000C01A524103098B4201D30B01C01A524148
:10151000C3088B4201D3CB00C01A524183088B42CF
:1015200001D38B00C01A524143088B4201D34B00B8
:10153000C01A5241411A00D201465241104670472A
:101540005DE0CA0F00D04942031000D3404253402F
:1015500000229C4603098B422DD3030A8B4212D3EF
:10156000FC22890112BA030A8B420CD38901921121
:101570008B4208D3890192118B4204D389013AD05E
:10158000921100E08909C3098B4201D3CB01C01A33
:10159000524183098B4201D38B01C01A5241430946
:1015A0008B4201D34B01C01A524103098B4201D334
:1015B0000B01C01A5241C3088B4201D3CB00C01AA1
:1015C000524183088B4201D38B00C01A5241D9D2B9
:1015D00043088B4201D34B00C01A5241411A00D23A
:1015E0000146634652415B10104601D34042002B36
:1015F00000D54942704763465B1000D3404201B5B5
:10160000002000F00BF802BD0029F8D003B5FFF769
:1016100015FF0EBC4243891A1847C0467047C046A2
:1016200010B50021041C00F081F8044B1868C36B4E
:10163000002B00D09847201C00F088F9B419000056
:1016400070B50D4E0D4D0024AD1BAD1005D0A3009F
:10165000F35801349847A542F9D100F079F9084EC2
:10166000084D0024AD1BAD1005D0A300F358013484
:101670009847A542F9D170BD3404002034040020FD
:10168000340400203C04002070B583073FD0541E72
:10169000002A3BD0CEB2031C032503E0621E002CBF
:1016A00034D0141C01335A1E16702B42F6D1032C71
:1016B00024D9FF250D402A0215432A0415430F2C77
:1016C00011D9261C103E3609013636011A1C9B1909
:1016D000156055609560D56010329342F8D10F22A5
:1016E0001440032C0AD9261FB6080136B6001A1C6E
:1016F0009B1920C29342FCD103221440002C05D038
:10170000C9B21C1919700133A342FBD170BD141C5E
:10171000031CCCE708B5034B002B02D0024800F0B5
:1017200089F808BD0000000045180000F0B55646D5
:101730005F464D464446F0B40E1C3C4B87B01B68D8
:10174000019003934933FF330493A422039B520077
:101750009F58002F4CD0049B984600239B46C423DF
:101760005B009C46BC4463460293C6235B009A46DA
:101770007C68BA44A5007D19013C08D526E06B1DA4
:10178000FF331B68B34204D0043D013C1ED3002E3E
:10179000F5D17B686A68013BA3423AD05B466B6037
:1017A000002AF1D07B68029999460123A340096879
:1017B0000591194223D190477B684B45C5D14346DB
:1017C0001B68BB42C1D1043D013CE0D2184B002B49
:1017D0000ED07B68002B23D13B68002B24D04246DF
:1017E000381C136000E000BF43461F68002FB6D1CD
:1017F00007B03CBC90469946A246AB46F0BD514668
:101800000968194207D12B1C843319680198904745
:10181000D2E77C60C4E72B1C843318689047CBE781
:101820003B68B8461F1CE1E70023FAE7B419000043
:101830000000000008B5011C00220020002300F079
:101840001BF808BD38B5094B094CE41AA41009D09F
:10185000084AA518AD00ED182B68013C9847043DD7
:10186000002CF9D100F07AF838BDC0463C040020C5
:1018700040040020FFFFFF3FF8B544465F46564650
:101880004D469B462F4BF0B41C68A4235B00051CFF
:10189000E0580E1C904600284BD043681F2B0DDCEF
:1018A0005C1C002D21D102339B0044601E5000209F
:1018B0003CBC90469946A246AB46F8BD224B002B55
:1018C0003CD0C820400000E000BF002836D0A42251
:1018D00000235200A15843600160A0504032835061
:1018E000043283500124002DDDD09A0091468144BA
:1018F000424688214F467A50C42252009046804486
:1019000042468739994012688A460A4394464246BD
:1019100061461160842249465F4652008F50022D75
:10192000C1D1021C55468D32FF3211680D4315603E
:10193000B9E7201C4D30FF30E050AEE701204042B7
:10194000B6E7C046B419000000000000FEE7C0463C
:10195000F8B5C046F8BC08BC9E467047F8B5C0460E
:10196000F8BC08BC9E4670472E2E2F6D61696E5FD5
:101970006775692E630000002E2E2F7370692E6329
:10198000000000002E2E2F2E2E2F2E2E2F2E2E2F2B
:101990002F536F757263652F7370695F736C617617
:1019A000652F7370695F736C6176652E630000004C
:0C19B000430000000800002000000000C0
:0819BC0064E7FF7F0100000059
:1019C400000000000024F40000000000F4020020E5
:1019D4005C030020C403002000000000000000009D
:1019E40000000000000000000000000000000000F3
:1019F400000000000000000000000000B01900001A
:101A040000000000000000000000000000000000D2
:101A140000000000000000000000000000000000C2
:101A240000000000000000000000000000000000B2
:101A340000000000000000000000000000000000A2
:101A44000000000000000000000000000000000092
:101A54000000000000000000000000000000000082
:101A64000000000000000000000000000000000072
:101A740001000000000000000E33CDAB34126DE60F
:101A8400ECDE05000B000000000000000000000078
:101A94000000000000000000000000000000000042
:101AA4000000000000000000000000000000000032
:101AB4000000000000000000000000000000000022
:101AC4000000000000000000000000000000000012
:101DF4000800002015170000E9000000C1000000E1
:041E040000000000DA
:04000003000013E9FD
:00000001FF
