:1000000000400020B5090000FD090000FF090000C4
:1000100000000000000000000000000000000000E0
:10002000000000000000000000000000010A0000C5
:100030000000000000000000030A0000050A0000A4
:10004000070A0000A9070000070A0000070A0000CD
:10005000070A000000000000070A0000070A00006D
:10006000070A0000070A0000070A0000070A00004C
:10007000070A0000070A0000070A0000070A00003C
:10008000070A0000070A0000070A0000070A00002C
:10009000070A0000070A0000070A0000070A00001C
:1000A000070A0000070A000000000000000000002E
:1000B0000000000000000000000000000000000040
:1000C00010B5064C2378002B07D1054B002B02D02E
:1000D000044800E000BF0123237010BDD0080020B9
:1000E00000000000AC82000008B5084B002B03D0D4
:1000F0000748084900E000BF07480368002B00D10B
:1001000008BD064B002BFBD09847F9E70000000024
:10011000AC820000D4080020CC08002000000000C1
:10012000164B002B00D1144B9D46402292029A1A86
:10013000924600218B460F461348144A121A00F0CB
:1001400067FD0F4B002B00D098470E4B002B00D0C3
:1001500098470020002104000D000D48002802D01F
:100160000C4802F01DF900F0F1FC2000290000F01D
:1001700061F800F0DBFCC0460000080000400020F1
:100180000000000000000000D0080020080A002045
:10019000A1230000BD34000080B582B000AF7860BC
:1001A000C046C046C046C046C046C046C046C0461F
:1001B000C046C046C046C046C046C0467B68013BFC
:1001C0007B60002BECD1BD4602B080BD80B582B013
:1001D00000AFFB1D00221A7009E0FB1D1B78074AC7
:1001E0000021D154FB1D1A78FB1D01321A70FB1D32
:1001F0001B78632BF1D9BD4602B080BD9409002065
:1002000080B500AF8023DA0580235B000021D15048
:100210008023DB0501221A60C0468023DA05802393
:100220005B00D358002BF8D0FFF7D0FF00F01AFA8C
:10023000BD4680BD80B588B000AFFFF7E1FFB8498B
:10024000B84BB94A8B50B64A80239B000321D1504A
:100250001F23FB1800221A701EE0B14A88235B009E
:100260000021D150AE4B01225A60C046AC4A8823CF
:100270005B00D358002BF9D0A94A8023DB00D35868
:100280001F22BA181F21791809781170012B03D188
:100290001F23FB1801221A701F23FB181B78012251
:1002A0005340DBB2002BD8D19E4B1A789F4B1A706B
:1002B0009C4BFF221A709B4BAA225A70984A8823A3
:1002C0005B000021D150964B01221A60C046944A2F
:1002D00088235B00D358002BF9D0914A934B1B78AD
:1002E000191CA123DB00D1508D4A80239B001121D2
:1002F000D1500023BB611723FB1800221A70002382
:10030000BB6000F047FA864A86235B000021D1508B
:10031000834B01225A6045E0FA239B003B6109E0D0
:100320003B695A1E3A61002B03DB6420FFF734FF60
:1003300000E005E07A4A86235B00D358002BEFD01B
:100340003B69002B1BDB764A8023DB00D358012B53
:1003500003D0BB690133BB6102E0BB680133BB6002
:100360006F4A86235B000021D1506D4B01229A60B9
:100370001723FB181722BA1812781A7012E01723E5
:10038000FB1801221A70664A88235B000021D150B5
:10039000634B01221A61C046614A88235B00D3582F
:1003A000002BF9D01723FB181B7801225340DBB236
:1003B000002BB1D100F0E4F9031C7B60FFF706FFCE
:1003C000584A5B4B111C1A1C0323081C111C1A1CD5
:1003D00000F0E0FB554B1B789133FF335549564AEB
:1003E000081C042100F098FC544A554B111C1A1C9F
:1003F0000423081C111C1A1C00F0CCFB7B6851491B
:100400004D4A081C042100F087FC4F4A4F4B111C39
:100410001A1C0323081C111C1A1C00F0BBFBBB692F
:100420004B49454A081C052100F076FC494A474BD8
:10043000111C1A1C0323081C111C1A1C00F0AAFB17
:10044000BB6845493C4A081C052100F065FC434A4D
:10045000434B111C1A1C0323081C111C1A1C00F00E
:1004600099FB2F4A80239B000321D1500F23FB18B7
:1004700000221A704BE02A492A4B2B4A8B50284AFB
:1004800088235B000021D150254B01221A60C04611
:10049000234A88235B00D358002BF9D0FA239B0012
:1004A0003B611F4A88235B000021D1501C4B012275
:1004B0005A6009E03B695A1E3A61002B03DB642055
:1004C000FFF76AFE00E005E0154A88235B00D35879
:1004D000002BEFD03B69002B04DB0F23FB1801221C
:1004E0001A7014E00E4A88235B000021D1500C4B97
:1004F00001221A61C0460A4A88235B00D3580F22A2
:10050000BA180F21791809781170002BF3D00F2336
:10051000FB181B7801225340DBB2002BABD192E6D3
:10052000001000409409002004050000F809002094
:10053000807D000096090020847D0000990900203C
:10054000887D00009C0900209F0900208C7D000010
:10055000A1090020A5090020A7090020AB0900205F
:10056000907D000080B582B000AF021CFB1D1A70A8
:10057000064BFA1D1278111C1F220A4001219140DE
:100580000A1C1A60BD4602B080BDC04600E100E012
:10059000B0B582B000AF021C3960FB1D1A70FB1DA4
:1005A0001B787F2B2FD92D4CFB1D1B781A1C0F237A
:1005B0001340083B9908294AFB1D1B78181C0F2380
:1005C0000340083B9B0806339B00D3185B68FA1D69
:1005D0001278101C03220240D200101CFF2282401D
:1005E000D2431A403B689B01FF200340F81D00786E
:1005F000051C03202840C00083401A438B1D9B002C
:10060000E3185A6026E0164CFB1D1B785BB29B0872
:100610001349FA1D127852B29208C0329200525811
:10062000F91D0978081C03210140C900081CFF219D
:100630008140C94311403A689201FF200240F81DF1
:100640000078051C03202840C00082400A43C033C4
:100650009B001A51BD4602B0B0BDC04600ED00E09F
:1006600000E100E080B500AF364A374B0421D1509D
:10067000344AA123DB003221D150324AA223DB00CD
:100680000121D1502F4A314B3149D1502D4AA52358
:10069000DB003049D1502B4A2F4B3049D150294AE9
:1006A000A423DB002E49D150264A2E4B0021D150E5
:1006B000244AA623DB000121D150224A2A4B0021E3
:1006C000D150204AA323DB002849D1501D4A284B92
:1006D0000221D1501B4A264BD35803221340022B30
:1006E00009D1184A234B2449D150164AA723DB00CD
:1006F0002249D15010E0134A1D4BD3580322134016
:10070000012B09D10F4A1B4BFF21D1500D49A723C3
:10071000DB000822FF32CA500A4A80239B001121C5
:10072000D150084AC1239B008021D15001200021D3
:10073000FFF72EFF0120FFF715FF032000F094F8CC
:10074000BD4680BD001000400C05000024050000DF
:10075000E7C2C3C4C8C7C6C51C050000E7E7E7E792
:10076000C2C2C2002C05000014050000646404012C
:10077000340500003C050000FFFF000021100100CF
:1007800080B500AF024B1B68181CBD4680BDC0463B
:10079000000A002080B500AF024B00221A60BD465F
:1007A00080BDC046FC09002080B582B000AF1E4A63
:1007B0008E235B00D358012B32D11B4AC1239B00EF
:1007C000D358802213402BD0174A8E235B00002180
:1007D000D150164B1B68002B06D1134AA923DB000E
:1007E000D258134B1A6016E00F4AA923DB00D358E6
:1007F0007B600F4B1A680D4B1B685A437B68D218FD
:100800000A4B1B680133101C191C00F0FDF8031C77
:100810001A1C074B1A60054B1B685A1C034B1A60C5
:10082000BD4602B080BDC04600100040FC0900205B
:10083000000A002080B582B000AF7860C046C04694
:10084000C046C046C046C046C046C046C046C04678
:10085000C046C046C046C0467B68013B7B60002B5B
:10086000ECD1BD4602B080BD80B582B000AF7860EB
:1008700006E07B68013B7B60044B181CFFF7DAFF46
:100880007B68002BF5D1BD4602B080BDE7030000B8
:1008900080B500AF024B034A1A60BD4680BDC0461A
:1008A000040000200024F40080B500AF00F01CF824
:1008B000031E06D0094B0A4A1A600A4B8022120214
:1008C0001A6000F051F8031E05D08023DA05C12319
:1008D000DB000121D150BD4680BDC046040500406B
:1008E000DFFF07C0186C004080B500AF1A4B1B68D3
:1008F000FF221340012B2AD1184B1B680F221340F3
:1009000025D1174B1B68F022134006D1154B1B68ED
:10091000F022134001D101231AE0114B1B68F02291
:100920001340102B06D10F4B1B68F022134001D14E
:1009300001230DE00A4B1B68F0221340302B06D137
:10094000084B1B68F022134001D1012300E0002373
:10095000181CBD4680BDC046E00F00F0E40F00F05B
:10096000E80F00F0EC0F00F080B500AF0D4B1B68F6
:10097000FF221340012B11D10B4B1B680F22134098
:100980000CD10A4B1B68F0221340402B06D1084BB8
:100990001B68F022134001D1012300E00023181C42
:1009A000BD4680BDE00F00F0E40F00F0E80F00F05E
:1009B000EC0F00F003210A4802680A43026009486C
:1009C00002680A4302600849084A094B9B1A03DD82
:1009D000043BC858D050FBDC064880470648004717
:1009E0002405004054050040E08200000000002083
:1009F000D0080020A908000021010000FEE7FEE762
:100A0000FEE7FEE7FEE7FEE7002243088B4274D3D1
:100A100003098B425FD3030A8B4244D3030B8B42FF
:100A200028D3030C8B420DD3FF22090212BA030C08
:100A30008B4202D31212090265D0030B8B4219D3E9
:100A400000E0090AC30B8B4201D3CB03C01A524109
:100A5000830B8B4201D38B03C01A5241430B8B4251
:100A600001D34B03C01A5241030B8B4201D30B033A
:100A7000C01A5241C30A8B4201D3CB02C01A524161
:100A8000830A8B4201D38B02C01A5241430A8B4224
:100A900001D34B02C01A5241030A8B4201D30B020D
:100AA000C01A5241CDD2C3098B4201D3CB01C01A27
:100AB000524183098B4201D38B01C01A5241430931
:100AC0008B4201D34B01C01A524103098B4201D31F
:100AD0000B01C01A5241C3088B4201D3CB00C01A8C
:100AE000524183088B4201D38B00C01A5241430804
:100AF0008B4201D34B00C01A5241411A00D2014629
:100B0000524110467047FFE701B5002000F00CF895
:100B100002BDC0460029F7D003B5FFF775FF0EBC34
:100B20004243891A1847C0467047C04610B5002195
:100B3000041C01F0B1FB044B1868C36B002B00D000
:100B40009847201C07F00EF9987D000070B50D4EF7
:100B50000D4D0024AD1BAD1005D0A300F35801349A
:100B60009847A542F9D107F0FFF8084E084D002438
:100B7000AD1BAD1005D0A300F35801349847A54232
:100B8000F9D170BDC0080020C0080020C0080020B6
:100B9000C808002070B50F2A32D9041C0C430B1C66
:100BA000A40731D1151C041C103D2D0901352D0160
:100BB00049191E6826605E6866609E68A660DE68E9
:100BC0001033E66010349942F3D10F2345191340D6
:100BD000032B1BD91C1F0023A4080134A400CE58EA
:100BE000EE500433A342FAD1ED18C91803231A407A
:100BF00005D00023CC5CEC5401339342FAD170BD94
:100C0000051C002AF5D1FAE7051CF2E71A1CF8E7E3
:100C100070B583073FD0541E002A3BD0CEB2031CD0
:100C2000032503E0621E002C34D0141C01335A1E2D
:100C300016702B42F6D1032C24D9FF250D402A0231
:100C400015432A0415430F2C11D9261C103E3609D2
:100C5000013636011A1C9B19156055609560D560E8
:100C600010329342F8D10F221440032C0AD9261FC8
:100C7000B6080136B6001A1C9B1920C29342FCD15B
:100C800003221440002C05D0C9B21C19197001337D
:100C9000A342FBD170BD141C031CCCE708B410B5F3
:100CA0009DB0002A33DB041C82200B1C800002A9AB
:100CB000888102930B61002A11D00123013A5B4223
:100CC0008A604A61CB81201C20AB1F9A019300F0FF
:100CD00065F8431C18DB0023029A13700CE0012313
:100CE0005B428A604A61CB81201C20AB1F9A019332
:100CF00000F054F8431C04DB1DB010BC08BC01B06C
:100D000018478B232360F7E78B232360E3E78B23CC
:100D1000036001204042EFE70CB410B51E4B9CB0BD
:100D20001C68002932DB82220B1C920002A98A81F6
:100D300002900861002B11D0013B8B604B610123B5
:100D40005B42CB81201C1FAB1E9A019300F026F85A
:100D5000431C18DB0023029A13700CE08B604B617C
:100D600001235B42CB81201C1FAB1E9A019300F034
:100D700015F8431C04DB1CB010BC08BC02B01847BB
:100D80008B232360F7E78B232360E3E78B2301208A
:100D900023604042EFE7C04630040020F0B55F46D4
:100DA000444656464D46F0B4C3B00C1C07919346DA
:100DB0000F93099002F0CEFB0368181C199303F0FF
:100DC000F3FB1A90A3891B0606D5079B1B690893A2
:100DD000002B01D101F086F832AB25930023DA46CF
:100DE00025AFBB607B6016931793189332AE1093B8
:100DF0001B930B9353461B785446002B1CD0252B7A
:100E000002D119E0252B03D001342378002BF9D12E
:100E10005346E51A10D053463360BB687560EB1833
:100E2000BB607B6801337B60072B27DC08360B9B9C
:100E30009C46AC4463460B932378002B27D00023B9
:100E400016A90120621CCB77637810244042002150
:100E50008046A446002070344025A14692460A9060
:100E6000834608912030514601311A1C203A582AF5
:100E700000D904E3D64C9200A258974609980799E6
:100E80003A1C03F0C5FB002809D132AECFE7BB689E
:100E9000002B04D0099807993A1C03F0B9FB079B73
:100EA0009B895B0607D40B9843B03CBC904699469F
:100EB000A246AB46F0BD01204042F5E78A46042336
:100EC0005A461A4393460B78CDE70B784A1C2A2BD7
:100ED00001D101F0A0F9302149428A469A44544692
:100EE000111C0022092C12D8B046161C5246B30021
:100EF0009B195B000131D6184B1E1B781A1C303A27
:100F0000092AF4D9321E464601DA00F0E6FF90467F
:100F1000ABE75B464A4613439B468A460B78A2E7FB
:100F20000022141C303A92469A445246B246261C7D
:100F3000B3009B195B0001319E184B1E1B781A1CD5
:100F4000303A092AF4D90A9656468EE78A46089915
:100F5000149316AB5A46D97710231A4393465B462F
:100F60009B0600D48FE107230F9A07329A4301337F
:100F70009C46944463460F93536812680D930C92F9
:100F8000002B00DA8EE10C980D9916ABDD7F4346FD
:100F9000021C139301230A434146002903DB5846F0
:100FA000802188438346002A00D09FE34246002ADE
:100FB00001D100F09CFC012B00D1C9E3022B01D12F
:100FC00000F0D0FC32AB1C1CB1465B46AB4608932C
:100FD0000C9A0D9B5807D6080721DD0830432B1CBF
:100FE000051C1140013C30312170021C1D43F1D120
:100FF0000C920D930B1C08995D4611944E468B463E
:10100000221CC90700D49FE3302B01D100F08FFFD1
:10101000119B013A013B191C11933023137032AA22
:10102000531A0E930E9A131E434500DA4346089353
:1010300000231593002D02D0089B0133089302234F
:101040005A461A40914602D0089B023308938423E3
:101050005A461A40129200D026E20A9B089A9C1A1D
:10106000002C00DC20E2BA687B685A4D102C20DD91
:1010700010218846311C099E03E0103C0831102CD9
:1010800016DD4046103201330D604860BA607B6067
:10109000072BF2DD301C07993A1C03F0B9FA00283F
:1010A00000D0FCE6103CBA687B6832A9102CE8DC62
:1010B0000E1C74600133A4183560BC607B60072B84
:1010C00001DD00F0BCFC16AB0836DD7FEDE1072248
:1010D0008A460899149316ABD9770F9B4546073378
:1010E0009343013294469C4462460F921A681792C9
:1010F0005B6817981893189903F0D2F9012801D06A
:1011000000F0A3FD179818990022002304F088FD31
:10111000002801D000F0ACFF16ABDD7F149B472BFD
:1011200001DC00F0D6FE2C4B11935A4680239A43E3
:101130009346032308930E9300231393159379E7A3
:101140005B46082213439B468A460B788BE65A4639
:10115000149310231A4393465B468A469B0600D499
:1011600063E107220F9B07339343013294469C446B
:1011700062465C681B68181C211C0F92021C00232D
:101180000C900D912243002116A8C17741460025FD
:10119000139101E75A46149310231A4393465B4672
:1011A0008A469B0600D458E107220F9B07339343DE
:1011B000013294469C4462465C681B68181C0F927E
:1011C000211C021C0C900D9101232243DBE7C04639
:1011D0009C7D0000107F0000247F00008A46089953
:1011E000149316ABD977CC4B10935B469B0600D477
:1011F000FCE007220F9B07339343013294469C4443
:1012000062465C681B680C930D945B460F92DB078B
:1012100000D4FEE00C9B0D9C1A1C02232243B2D08A
:1012200030201EA9087050246846001900784870C4
:10123000594619438B46A6E78A460F990B1C0A6844
:1012400004330F9300230C925A460D9302331A4332
:10125000934630221EAB1A7048325A70AF4B14922C
:1012600010930C9A02238EE75B4603439B468A4603
:101270000B78F8E58A460899149316ABD9775B4644
:101280009B0600D56FE65B46DB0601D400F00BFD44
:101290000F9A136808930C930432DB170D930F9287
:1012A00000D470E60C990D9A00244B429441191C0D
:1012B0002D2316A8221CC377081C43460C910D92BF
:1012C000021C13932D250123224365E65B462B4325
:1012D0009B468A460B78C6E50B786C2B01D100F053
:1012E00062FD5A466446224393468A46BBE58A46D7
:1012F000089916ABD9775B469B0601D400F0BAFC7F
:101300000F990B9A0B681A60D2175A600B1C0433A2
:101310000F936FE58A460F9914930B6828AA1370F0
:10132000002304310F9116A9CB77013308930E9354
:101330000023002513931593119280E6089B002B40
:1013400001D000F0BAFC20220B788A4608928AE588
:1013500001235A461A4393460B788A4683E50F9B2E
:101360001A1D1B680A93002B01DA00F015FD0B789B
:101370000F928A4677E52B220B788A46089272E50F
:1013800014930F9B8A461C1D1B6816A91A1C1193E7
:101390000023CB77002A01D100F053FE4346119879
:1013A000002B01DA00F0E3FD0021424602F084FB4D
:1013B000002801D100F076FE119BC31A1A1C0E936F
:1013C000DB43DB171A40002316A9CD7F08920F9448
:1013D000139315932EE68A460899149316ABD97782
:1013E0004E4B10935B469B0600D502E75B46DB063F
:1013F00000D587E35B465B0600D483E30F9B1A8826
:1014000004330C9200220F930D925B46DB0700D54C
:1014100000E70C980D99021C02230A43B3E61493CB
:101420005B468A469B0600D59BE65B46DB0600D5FD
:101430005DE35B465B0600D459E30F9B1A880433D7
:101440000C9200220F930D9200230C9A9BE61493AA
:101450005B468A469B0600D5A6E65B46DB0600D5C2
:1014600058E35B465B0600D454E30F9B1A880433B1
:101470000C9200220F930D9201230C9A83E68A4668
:10148000089916A81A1E1493C17700D1FFE428AB5F
:101490001A700022C277013208920E9200220025B3
:1014A000139215921193CAE5BC68002D0FD016AAAD
:1014B0001F23944663443360012373607B680134C7
:1014C0000133BC607B60072B00DD2DE208364B4604
:1014D000002B0CD01EAB3360022373607B68023498
:1014E0000133BC607B60072B00DD29E20836129BCC
:1014F000802B00D197E1139B0E9A9D1A002D3ADDA7
:10150000074A7B689046102D2ADD1022211C914647
:10151000099C321C464609E0307F0000447F0000F1
:10152000007F0000103D0832102D16DD48461031B6
:10153000013316605060B9607B60072BF2DD201C20
:1015400007993A1C03F064F8002800D0A7E4103D86
:10155000B9687B6832AA102DE8DCB0460C1C161C5A
:1015600042466419013332607560BC607B60072BB2
:1015700000DDC7E108365B46DB0500D5F6E0119BD0
:1015800033600E9B9C4673607B6864440133BC608F
:101590007B60072B00DD9DE008365B465B0746D588
:1015A0000A9B089A9B1A9846002B40DD102B01DC01
:1015B00000F05AFD1022D94D9146211C321C7B6847
:1015C0004646099CA846079D03E0103E0832102EAF
:1015D00017DDD24810311060484601335060B960C1
:1015E0007B60072BF1DD201C291C3A1C03F010F84E
:1015F000002800D053E4103EB9687B6832AA102E50
:10160000E7DC45460C1CB046161C424644440133F8
:1016100035607260BC607B60072B08DD0998079914
:101620003A1C02F0F5FF002800D038E4BC68089BA3
:101630000A9A934200DA131C0B9A94469C44634620
:101640000B93002C00D048E1002332AE7B60FFF703
:10165000D1FB169B012B00DC22E1119B013433608E
:10166000012373607B68BC605D1C7D60072D00DD1D
:10167000C5E20836199B013533601A9B7D609C4694
:1016800064447360BC60072D00DDC5E2083617981E
:1016900018990022002304F0BDFA002800D0DCE1F4
:1016A000119B013501333360169B7D60013BE418CB
:1016B0007360BC60072D00DD02E1083621AB3360AA
:1016C0001B9B01359C4664447360BC607D60072DA4
:1016D00000DC61E7099807993A1C02F099FF00289D
:1016E00001D0FFF7DCFBBC6832AE56E7012B00D01F
:1016F00064E40D9B002B02D10C9B092B28D95B467F
:1017000032AC0893B146AB46261C0C9C0D9D201CA8
:10171000291C0A22002304F0ABFA013E3032327059
:10172000201C291C00230A2204F0A2FA031C041C1A
:101730000D1C0B43EBD10C940D95341C089B5D469E
:101740004E469B46221C119432AB9B1A0E9369E4C1
:1017500027220C9B28A930338B546F2316AA94465A
:1017600032AA6344D21A0E9211935BE4149B652B48
:1017700000DC6EE7179818990022002304F04AFA5B
:10178000002800D10EE1664B013433600123736001
:101790007B68BC6001337B60072B00DDA0E208366C
:1017A0001F9B169A934203DB5B46DB0700D4F4E6EB
:1017B000199B33601A9B9C4673607B6864440133B9
:1017C000BC607B60072B00DD77E30836169B5D1E4F
:1017D000002D00DCE1E6534A7B689046102D00DCCA
:1017E0007AE11022211C9146099C321C464604E0F5
:1017F0000832103D102D00DC6BE1484610310133FA
:1018000016605060B9607B60072BF1DD201C0799E2
:101810003A1C02F0FDFE002801D0FFF740FBB9683A
:101820007B6832AAE5E70A9B089A9D1A002D00DC26
:1018300061E63C4A7B689046102D25DD1022211C74
:101840009146099C321C464603E0103D0832102D9B
:1018500017DD48461031013316605060B9607B6077
:10186000072BF2DD201C07993A1C02F0D1FE00285C
:1018700001D0FFF714FB103DB9687B6832AA102D28
:10188000E7DCB0460C1C161C42466419013332607A
:101890007560BC607B60072B00DDCAE108362AE674
:1018A00001235A46134200D0D7E673607B68119A31
:1018B00001345D1C3260BC607D60072D00DCFCE6FD
:1018C000099807993A1C02F0A3FE002801D0FFF7FF
:1018D000E6FABC687D6832AEF0E6099807993A1CD2
:1018E00002F096FE002800D1AEE6FFF7D8FA002BF2
:1018F00032D15B46DB072FD52723302128AAD154CC
:1019000048332BE7099807993A1C02F081FE00281A
:1019100001D0FFF7C4FABC6832AE2CE6107F00009D
:10192000607F0000007F0000099807993A1C02F0D0
:101930006FFE002801D0FFF7B2FABC6832AEC6E5F0
:10194000099807993A1C02F063FE002801D0FFF7BE
:10195000A6FABC6832AECAE500230E9332AB1193EF
:10196000FFF760FB0F20B446A94632AB191C0C9A56
:101970000D9B041C109D14402C5D1E071509013998
:101980002E430C701C09231C341C321C1C43F0D148
:101990000C920D9332AA531A66464D4611910E933E
:1019A000FFF740FB1F9D002D00DCA5E1119B169A5F
:1019B000191C9446159B61440E91151E9D4200DD35
:1019C0001D1C002D0BDD119B641933607B68756055
:1019D0000133BC607B60072B00DDFDE20836EB4382
:1019E000DB171D40159B5D1B002D00DCA8E0DA4ACB
:1019F0007B689046102D00DC66E11022211C914688
:101A0000099C321C464604E00832103D102D00DCD3
:101A100057E148461031013316605060B9607B6071
:101A2000072BF1DD201C07993A1C02F0F1FD00287C
:101A300001D0FFF734FAB9687B6832AAE5E7099864
:101A400007993A1C02F0E4FD002801D0FFF727FABD
:101A500016ABDD7FBC6832AE27E5169B013B99468D
:101A6000002B00DC2AE6102B00DCBCE3BA4B221C66
:101A70009846331C44464E4603E0103E0833102E71
:101A800017DD1021103201351C605960BA607D608D
:101A9000072DF2DD099807993A1C02F0B9FD0028DC
:101AA00001D0FFF7FCF9103EBA687D6832AB102E0A
:101AB000E7DCB146A0461E1C141C434633604B466F
:101AC0004C4401357360BC607D60072D00DCF4E59B
:101AD000F6E6B0460C1C161C42466419013332600F
:101AE0007560BC607B60072B00DC55E5F2E50F9B61
:101AF0001A6804330C9200220F930D9200230C9A63
:101B0000FFF741FB0F9B1A6804330C9200220F93DE
:101B10000D927AE40F9B1A6804330C9200220F9303
:101B20000D9201230C9AFFF72EFB099807993A1C96
:101B300002F06EFD002801D0FFF7B1F9BC6832AEAB
:101B4000159A119B944663449846169A1F9B93429C
:101B500046DB5A46D20743D441460E9A521A16998A
:101B6000CB1A1D1E954200DD151C002D0BDD4246D3
:101B700032607A68641901327560BC607A60072A45
:101B800000DD4FE20836EA43D21715405D1B002DF9
:101B900000DC02E5704A7B689046102D9CDD102227
:101BA000211C9146099C321C464603E00832103D38
:101BB000102D8EDD48461031013316605060B9603B
:101BC0007B60072BF2DD201C07993A1C02F020FDF8
:101BD000002801D0FFF763F9B9687B6832AAE6E70D
:101BE000199A32601A9A944672607A686444013293
:101BF000BC607A60072A00DDFAE10836ACE7099894
:101C000007993A1C02F004FD002801D0FFF747F9BC
:101C1000BC687D6832AE2DE5099807993A1C02F040
:101C2000F7FC002801D0FFF73AF9BC687D6832AEB6
:101C30002DE5099807993A1C02F0EAFC002801D02A
:101C4000FFF72DF9BC6832AE55E41798189902F0E9
:101C500027FC002800D0AEE0149B472B00DC50E1AD
:101C60003E4B119380235A469A4316AB9346DD7F31
:101C7000FFF75FFA5B46DB060CD45B465B0609D5D3
:101C800069460F9B898D1A680433089211800F935F
:101C9000FFF7B0F80F9A0B9913681960131C0433FF
:101CA0000F93FFF7A7F85B460F9A5B0601D4FFF787
:101CB000F0FA0021535EFFF7EEFA0B788A46FFF741
:101CC000D2F8B0460C1C161C42466419013332602F
:101CD0007560BC607B60072B00DD26E708362FE7C8
:101CE000099807993A1C02F093FC002801D0FFF7ED
:101CF000D6F8BC6832AE53E5194B0134336001238A
:101D000073607B68BC6001337B60072B00DDFBE008
:101D10000836002D06D1169B002B03D15B46DB074E
:101D200000D43AE4199B33601A9BE21873607B6815
:101D3000BA6001337B60072B00DD12E208366D428A
:101D4000002D00DC05E104498846102D00DC5EE131
:101D5000311C102446460AE0007F00002C7F000062
:101D6000607F00000831103D102D00DC4DE1103285
:101D700001330E604C60BA607B60072BF2DD09987E
:101D800007993A1C02F044FC002801D0FFF787F8BD
:101D9000BA687B6832A9E6E70A9B8A465B420A93E7
:101DA0000F92FFF78CF84B1C9A465B4603439B4609
:101DB0004B78FFF758F84346013300D1B1E02023B8
:101DC000149A9A430E92472A00D1D8E180235A46AA
:101DD0005B001A43189B1292002B00DAE2E1179A7B
:101DE0009846002391461393149C662C00D1C5E0BD
:101DF000462C00D1C2E00E9B0998453B59425941FF
:101E00006B181A1C0893022300931FAB029320AB9C
:101E1000039323AB019204934A46434600F074FBBC
:101E20001190672C02D0472C00D0B7E0119A089B84
:101E3000944663441C1C5B46DB0700D4CAE10023C4
:101E400048464146002203F0E5FE231C002809D144
:101E5000239B9C4206D930215A1C23921970239B44
:101E60009C42F9D8119A9B1A16930E9B472B00D1CE
:101E700004E1149B652B00DC00E2149B662B00D16F
:101E80009BE11F9B1593169B159A934200DD7BE106
:101E90005B46DB0700D5A9E1D343DB1713400E9265
:101EA000139A002A00D0F2E00893129B16AA9B46D0
:101EB0000023D57F1393FFF7BDF8099807993A1CC3
:101EC00002F0A6FB002801D0FEF7E9FFBC6832AEA5
:101ED0007CE4DC4B1193FFF728F901225242904633
:101EE000FEF7C3FF0998402101F048FB079B1860EB
:101EF0001861002800D1BBE14023079A5361FEF727
:101F00006BFFD14B1193ADE6099807993A1C02F08B
:101F10007FFB002801D0FEF7C2FF1F9DBC6832AED8
:101F2000F7E62023149A06259A430E924EE7119A5B
:101F300032AB9B1A0E93FFF775F8099807993A1C74
:101F400002F066FB002801D0FEF7A9FFBA687B68A3
:101F500032AE11990133316016997B60541871606B
:101F6000BC60072B01DCFFF717FBFFF7B3FB02F0A8
:101F70001BFB021C0E90031CFFF722FA03230093A5
:101F80001FAB029320AB039323AB049301950998F5
:101F90004A46434600F0B8FA08951190089A119BFA
:101FA000944663441C1C0E9B462B00D047E7119BB4
:101FB0001B78302B02D01F9BE41840E7484641466F
:101FC0000022002303F026FE0028F4D10123089A02
:101FD0009B1A1F93E41832E7099807993A1C02F0FC
:101FE00017FB002801D0FEF75AFFBC6832AEF6E4BA
:101FF000099807993A1C02F00BFB002801D0FEF764
:102000004EFF1F9BBC6832AEA6E5B0460E1C414693
:102010005219013331607560BA607B60072B8CDC2C
:10202000083696E7099807993A1C02F0F1FA002859
:1020300001D0FEF734FF169B1F9ABC689B1A32AE84
:10204000A1E54046062800D90620C343021CDB1741
:102050001A400023139315937C4B0E9008920F9413
:1020600000251193FEF7EBFF7B68794DFFF7CDFA62
:102070002D2316AAD3772D25FFF750F81F9CE31CBC
:102080001BDBA54219DB672315941493FBE6089329
:10209000129B2D229B46002316A9CA772D25139348
:1020A000FEF7CAFF16ABDD7F434608930E9300236D
:1020B0000F9413931593FEF7BDFF149B023B1493EB
:1020C0006A4650215218127821AB013C1F94984661
:1020D0001A70002C00DA90E02B2342465370092C32
:1020E0007ADD16AA3B239446634499461D1C201CA6
:1020F0000A2103F075FD013D30312970201C0A21B1
:1021000003F088FC041E092CF1DC30346A1EE4B2B2
:1021100014704A4500D3A6E0791B4346414400E0D1
:1021200014789C70013301328B42F9D116AA94467F
:102130002E2363449C467D1B654443461699EB1A47
:102140000A1C9C4662441B930E9201296EDD0E9B75
:1021500001331A1C0E93DB43DB1713400022159248
:102160009EE6099807993A1C02F052FA002801D01D
:10217000FEF795FE1F9DBA687B6832AEDFE5002D45
:1021800000D023E6012521E6159B0120002B55DD1B
:10219000031C169A944663441A1C0E93DB43DB1708
:1021A00013407DE6802212069446179B9946189BA1
:1021B000634498462D23139316E61F9B1593002B1B
:1021C00020DD002D15D15B46DB0712D4159A131CB8
:1021D0000E9265E6239B45E64246302330349370E9
:1021E000D47022ADA9E71B4B984666E4159B0133DA
:1021F000D2E701352B1C159ACCE72D2342466442C9
:1022000053706CE7002D17D15B46DB0714D4012215
:1022100001230E9244E60F9B92461A1D1B689846B6
:10222000002B19DB4B780F92FEF71DFE5B46DB0798
:102230008DD40E9A131C8EE7AB1CADE70130C01A8B
:10224000A6E7C046207F0000287F0000587F0000DE
:10225000107F0000007F00000F92012252424B7855
:102260009046FEF700FE16AB2E259C46654464E7BB
:102270000C23099A01381360FEF716FE1F9C1FE716
:1022800008B5034B002B02D0024800F089F808BDC6
:1022900000000000BD340000F0B556465F464D46D4
:1022A0004446F0B40E1C3C4B87B01B68019003936E
:1022B0004933FF330493A422039B52009F58002FFD
:1022C0004CD0049B984600239B46C4235B009C464D
:1022D000BC4463460293C6235B009A467C68BA44BA
:1022E000A5007D19013C08D526E06B1DFF331B6856
:1022F000B34204D0043D013C1ED3002EF5D17B68CF
:102300006A68013BA3423AD05B466B60002AF1D079
:102310007B68029999460123A340096805911942F7
:1023200023D190477B684B45C5D143461B68BB42D0
:10233000C1D1043D013CE0D2184B002B0ED07B688C
:10234000002B23D13B68002B24D04246381C13605D
:1023500000E000BF43461F68002FB6D107B03CBC69
:1023600090469946A246AB46F0BD514609681942CF
:1023700007D12B1C8433196801989047D2E77C6001
:10238000C4E72B1C843318689047CBE73B68B846FA
:102390001F1CE1E70023FAE7987D00000000000021
:1023A00008B5011C00220020002302F0E5FE08BD54
:1023B000F0B54D4644465F465646F0B403690C6995
:1023C00085B000259C4200DD95E00B1C1422013CE9
:1023D0001433A6009F1902939446031C6344984645
:1023E0003B68464403910190591C3068FEF70CFB92
:1023F000B346051E45D0029B002699460020231CAB
:10240000BC46041C2F1C4846351C9946464604C849
:102410001104090C7943120C7A4369180B0C9A18B1
:10242000336809041B041B0C1C19090C631A31685E
:10243000150C1204090C120C8A1A191452181B04D8
:1024400014141B0C1204134308C68445DFD25B46E8
:102450001B683D1C4C466746002B12D15E46043E6D
:10246000B0450CD23368002B09D1434602E03268F4
:10247000002A03D1043E013CB342F8D39846019BA5
:102480001C610198039901F0E7FD002833DB029BF2
:1024900000209C466646A4463C1C474601353968E8
:1024A00004CE0B041B0C181813041B0CC31A090CC4
:1024B000120C18148A1A12181B0410141B0C120484
:1024C000134308C7B442EAD26446A30043441A68DF
:1024D000002A10D1043B98450BD21A68002A08D173
:1024E000424602E01968002903D1043B013C9A42AC
:1024F000F8D3019B1C61281C05B03CBC9046994652
:10250000A246AB46F0BDC046F0B556465F464D46C6
:102510004446F0B4016C99B082461D1C161C1F1C69
:10252000002909D00123426C93404A608B6001F07E
:1025300031FB002352461364B846002F32DB0023E0
:10254000259A13604246D84B1A409A4218D0301C44
:10255000391C0022002303F05DFB00282AD0012350
:10256000249A1360269B002B00D13FE2CF481860CD
:10257000013819B03CBC90469946A246AB46F0BD26
:10258000CB4B249A1360002E00D10BE2C948269B46
:10259000002BEED0C278C31C002A00D00533269A47
:1025A0001360E6E70123259A13606B005B089846E9
:1025B0001F1CC7E717AB009316AB019350463B1C9B
:1025C000321C01F06DFE43468346180D00D1EFE149
:1025D0003903B94C090B0C43B849321C884616998B
:1025E000231C8946002180440991101C191C0022DB
:1025F000B34B04F093FDB34AB34B04F0F5FAB34A7E
:10260000B34B03F08BFB041C40460D1C05F036F960
:10261000B04AB14B04F0E8FA021C0B1C201C291C28
:1026200003F07CFB041C0D1C05F0F2F8291C039040
:102630000022201C002303F0F3FA002800D0CBE294
:1026400001230C93039B162B11D8A44ADB00D3184B
:1026500018685968321C3B1C03F0F6FA002801D1B7
:1026600000F0F9FB039B013B039300230C934246CC
:102670004B469B1A00220692013B049300D5B8E218
:10268000039B002B00DA9EE2049A9C46111C0D93DA
:102690000023614404910A93229B092B00D9A7E1EE
:1026A0000124052B02DD0024043B2293229B032BF3
:1026B00001D100F02EFD01DC00F0ACFC229B042BCC
:1026C00001D100F03FFC01230B93229B052B01D08D
:1026D00000F0A5FC039A239B9446634412930133B4
:1026E00007939846002B01DC00F08BFC079B1D1C18
:1026F00098460023524600215364172D0AD901221F
:1027000004335B00181C1430111C01328542F8D2CE
:1027100053465964504601F015FA5346186443462F
:1027200008900E2B00D975E1002C00D172E10398BE
:1027300010961197031E01DC00F042FD0F2267493D
:102740001340DB00CB1806111C685D68F30601D44A
:1027500000F0EDFC10981199614B16401A6A5B6A03
:1027600003F004FE032398460E900F91002E14D020
:102770000123291C9946201C4546594F4B4633429C
:1027800004D03A687B68013504F02EFA76100837D9
:10279000002EF3D1A846041C0D1C0E980F99221C84
:1027A0002B1C03F0E3FD061C0F1C0C9B002B09D017
:1027B000301C391C0022404B03F032FA002801D0B3
:1027C00000F0E1FD404605F059F8321C3B1C04F0D6
:1027D0000BFA0022434B03F0A1FA434A0B1C944628
:1027E00063440E900F910F93079B002B01D100F0D3
:1027F00065FC039B1493079B13930B9B002B01D148
:1028000000F02EFD139B354A013BDB00D3181A68FC
:102810005B680020354903F0A9FD0E9A0F9B04F078
:102820007DFC0E900F91391C301C04F0F1FF051C4B
:1028300005F024F8021C0B1C301C391C04F06EFC43
:10284000061C0F1C089A3035E9B21170541C8846DA
:102850000E980F99151C3B1C321C03F0F5F900284B
:1028600001D000F0CDFD321C3B1C0020124904F0C9
:1028700055FC021C0B1C0E980F9903F0E5F900287B
:1028800001D000F002FE139B012B01DC00F089FC5B
:10289000AC46634499465B4613935346A2460E9C4E
:1028A0000F9D159336E0C0460000F07F617F000069
:1028B0000F270000707F00000000F03F01FCFFFFC9
:1028C0000000F83F61436F63A787D23FB3C8608BB6
:1028D000288AC63FFB799F501344D33F807F000076
:1028E0005880000000001C400000C0FC0000E03FD9
:1028F000321C3B1C0020C24904F010FC221C2B1C83
:1029000003F08EF9002801D000F093FDCA4501D1F3
:1029100000F043FC201C291C0022BA4B04F064F98F
:102920000022B84B041C0D1C301C391C04F05CF94F
:102930000F1C061C04F06CFF804604F09FFF021C75
:102940000B1C301C391C04F0E9FB01239C46434658
:102950003033DBB2984601234246E2445B425344A3
:102960001A709B46221C2B1C061C0F1C03F058F9E6
:102970000028BDD0139B54469B46159B9A46149B3A
:1029800003935046594601F005F900232370039B39
:10299000249A01331360269B002B00D137E31C607F
:1029A0000898E6E543461B0300D0EFE59648EEE5C0
:1029B000169B9946179B4B441C1E944B9C4200DA75
:1029C00044E24246924B1B1B9A40131C914AA018AA
:1029D000321CC240101C184304F08CFF8E4D021CA8
:1029E0004B19611E884601210991FEE58B48C0E51F
:1029F0000023524650465364002101F0A3F8534689
:102A0000186401230B93002322932393013B089026
:102A100007931293179B002B00DAAFE0039A0E2A5C
:102A200000DDABE0D3007E4AD3185C681B680493DA
:102A30000594239B002B00DA8FE2341C3D1C301CD4
:102A4000391C049E059F321C3B1C03F08FFC04F0D4
:102A5000DFFE804604F012FF321C3B1C04F0C4F879
:102A6000021C0B1C201C291C454604F057FB089E29
:102A70003035341C3570079D021C0B1C0134012DB0
:102A80004ED000225F4B04F0AFF800220023061C5A
:102A90000F1C03F0BFF8002800D072E7089B079ACC
:102AA0009D1C9C465B46069353466244AA46049C82
:102AB000059D914607930FE00022524B04F094F8D5
:102AC00001239C4600220023061C0F1CE24403F055
:102AD000A1F8002800D0D9E2221C2B1C301C391C84
:102AE00003F044FC04F094FE804604F0C7FE221C70
:102AF0002B1C04F079F8021C0B1C301C391C5646A8
:102B0000474604F00BFB013E3037021C0B1CD3463A
:102B10003770CA45D0D1069954468B4607998A46E4
:102B2000101C191C03F0FAF8061C0F1C04980599D8
:102B3000321C3B1C03F074F800280CD10498059952
:102B4000321C3B1C03F066F8002800D119E743460D
:102B5000DB0700D415E7651E2B78089906E0A9422B
:102B600000D15AE3023C23782C1C013D2A1C392B4E
:102B7000F5D01D1C0135EBB2137002E70B9A002A49
:102B800050D0229A012A00DC22E2079B5C1E0A9B9D
:102B9000A34200DAC1E21C1B079B002B00DAD5E33D
:102BA000069B0993079B069A504694469C446246AE
:102BB0000692049A012194469C446346049301F0D2
:102BC000CFF8814633E0069A039BD21A5B420A9300
:102BD000002306920D935FE5039804F04FFE221C3C
:102BE0002B1C03F017F843424341039AD31A039373
:102BF00026E5049B5B4206930023049340E5C04610
:102C00000000F03F00002440647F0000EFFBFFFF66
:102C10000EFCFFFF12040000000010FE607F0000A9
:102C2000807F0000069B0A9C099300239946099A1D
:102C3000002A0ED004990B1E0BDD914200DD7FE1CE
:102C4000069AD21A0692099AD21A0992049AD31AAB
:102C500004930A9B002B1ADD0B9B002B00D151E241
:102C6000002C10DD4946221C504601F031F9814606
:102C70005A464946504601F07DF8051C59465046D3
:102C800000F088FFAB460A9B1A1B00D086E1504635
:102C9000012101F065F80D9B8046002B15DD4146B2
:102CA0001A1C504601F014F9229B8046012B00DCCF
:102CB0007AE1002443461B6903339B004344586870
:102CC00001F002F82023181A08E0229B0024012BAF
:102CD00000DCD0E10D9B0120002BEBD1049B9C4636
:102CE0001F236044184000D1AEE001331B1A042BAF
:102CF00000DCD1E31C23181A069B9C4684446346DF
:102D00000693099B9C46844463460993049B9C4616
:102D1000844463460493069B002B05DD59465046C8
:102D20001A1C01F033F98346049B002B05DD414654
:102D300050461A1C01F02AF980460C9B002B00D04B
:102D40008DE0079B002B00DC7AE10B9B002B00D170
:102D5000A3E0099B002B05DD494650461A1C01F0F3
:102D600015F981464B460B93002C00D05FE2079C7F
:102D7000089A013C231C944663440993434601246A
:102D800006930B9B34404D465E4690469946D3468B
:102D90000794069F301C391CFFF70AFB031C0A909E
:102DA0003033291C301C049301F056F9391C041CE3
:102DB0004A46584601F06CF9C368071C002B00D046
:102DC00017E1301C391C01F047F982465846391C7E
:102DD00000F0E0FE5346229A134303D1079B002BD9
:102DE00000D111E3002C00DAA9E1229B1C4303D19E
:102DF000079B002B00D1A2E15346002B00DD8AE2A5
:102E00006A464346127C5F1C1A70099B3C1C98451D
:102E100000D192E2311C0A220023584600F0C4FE81
:102E2000291C061C0A22584600234D4500D1DAE031
:102E300000F0BAFE4946051C0A225846002300F05D
:102E4000B3FEB8468146A4E71C2055E7301CD64B9C
:102E50001B1B9840C0E500230C93FFF708FC584665
:102E6000414601F0F9F8002800DB6AE7039B594668
:102E7000013B0393504600230A2200F095FE0B9B72
:102E80008346002B00D0E7E2129B002B04DC229B40
:102E9000022B00DDF2E2129B0793089B47460024B9
:102EA000079E5D46984606E0291C50460A220023EC
:102EB00000F07AFE051C281C391CFFF779FA4346FE
:102EC000303018550134B442EEDB079C061CAB468B
:102ED000B846002C00DC3FE2089B00279C46644477
:102EE00059465046012201F051F84146834601F00F
:102EF000B3F8002800DC45E1651E2B78089A06E04F
:102F0000AA4200D1BBE0023C23782C1C013D392BA6
:102F1000F6D001332B705046414600F03BFE4B4645
:102F2000002B00D12DE5002F05D04F4503D0504692
:102F3000391C00F02FFE5046494600F02BFE20E5DC
:102F4000131C7DE601230B93239B002B54DD1D1CDA
:102F5000984612930793FFF7CCFB079B002B00DDED
:102F60006BE500D0CAE00498059900228F4B03F06E
:102F70003BFE3B1C321C02F071FE00239846994632
:102F8000002870D0239B089CDB43039350464146A6
:102F900000F000FE4B46002BCDD1F2E459465046DE
:102FA00000F096FF834672E6002E00D081E63B03D8
:102FB0000024002B00D08DE67D4B3B4200D189E6FA
:102FC000069B013401330693049B0133049381E68D
:102FD000099A002A00D1C1E1764A0A9C9446069AD1
:102FE00063440992DFE500F0DFFDB846051C814629
:102FF000CFE601239A46E9E6012398461293079308
:1030000023930023524600215364FFF783FB089863
:10301000FFF7AFFA00230B93229B022B94D00024DE
:10302000534650465C64211C00F08CFD53461864E6
:1030300001230B93023B0890239407931293E9E436
:10304000229B022B00DC80E6079B002B9AD1414695
:103050005046052200F0A8FD80465846414600F043
:10306000FBFF00288EDD3123089A1370039B541C4C
:10307000013303938AE7002E00D02BE697E7039BEA
:10308000089A013303933123137044E7069B5C468F
:103090009B46079B9A4674E4404604F0EFFB321CC3
:1030A0003B1C03F0A1FD0022434B02F037FE434AD4
:1030B0000B1C944663440E900F910F93301C391CE7
:1030C00000223A4B04F02AF80E9E0F9F321C3B1C44
:1030D000041C0D1C02F0B8FD002800D0BCE0201C30
:1030E000291C0E9C0F9D221C2C1C80252D06AC46F5
:1030F0006444231C02F094FD002852D0002398461B
:1031000099463FE7594650460A9A00F0E1FE834649
:10311000BDE500230B93FFF7DDFA0A9B0A94E21A40
:103120000D9B00249C46944463460D9334E5109A0D
:10313000119B0E920F9302239846FFF717FB4B4605
:1031400052460B93DA46069BB346049EA946371CAB
:1031500045469846002A0FDD59465046012200F0A8
:1031600015FF4146834600F077FF002800DC6CE144
:10317000392E00D1FFE0771C0B9B2F706C1C4F4643
:103180009946C8E6002803D1F30701D5B4E61C1C14
:10319000631E1A78302AFAD0BDE6139B9B46159B16
:1031A0009A46109E119F35E4EEFBFFFF000014408D
:1031B0000000F07F3304000000001C400000C0FC51
:1031C000039B5C42002C00D1CFE0109811990F2393
:1031D000B44A2340DB00D3181A685B6803F004FD8F
:1031E0002411061C0F1C002C00D14AE10223984632
:1031F000013B99464746AC4D4B46234204D02A68D2
:103200006B68013703F0F0FC64100835002CF3D133
:10321000B846061C0F1CFFF7C8FA039B089A013337
:1032200003933023137001331370FFF7AAFB59681F
:10323000504600F087FC4B464946041C1B690C3184
:103240009A1C92000C30FDF7A5FC5046211C01226F
:1032500000F09CFE0B908AE500239846994602E711
:10326000139B904A591ECB00D318159118685968C2
:103270000E9A0F9B03F0B8FC0E900F91391C301C76
:1032800004F0C6FA051C04F0F9FA021C0B1C301CF1
:10329000391C03F043FF139B0F1C08991A1C8C4622
:1032A00030356244061C4C1C0D709146012B1ED01B
:1032B000A046301C391C00227C4B03F095FC0F1CEF
:1032C000061C04F0A5FA051C04F0D8FA3035021CDF
:1032D0000B1C301C391C03F021FF257001344C45B8
:1032E000E9D1159B44469C46061C0F1C64440022F1
:1032F0000E980F996E4B02F011FD321C3B1C02F030
:103300008FFC00286AD0651E2B7808999846149B7C
:10331000039343462AE44B46DA460B93B346069B97
:10332000049EA94645469846392E24D001362E7073
:103330000B9B4F466C1C9946EDE54B46069ADA46C8
:103340009046B3462F1C049E9946C9E5069B079AF2
:103350009B1A0993002326E40124BDE53623169A1F
:103360000A9C9B1A069A09921DE40223109E119F43
:103370009846FFF71AFA0B9B4F46994639236C1C67
:103380002B70089AC3E5079B002B00D184E6129CA2
:10339000002C00DC05E7039B0022013B1493301C4A
:1033A000424B391C03F020FC061C404601300F1C28
:1033B00004F064FA021C0B1C301C391C03F014FCD2
:1033C00000223C4B02F0AAFC3B4A0B1C944663448F
:1033D0000E900F9113940F93FFF70FFA0E9A0F9B15
:1033E0000020334903F09AFE321C3B1C02F02CFCF7
:1033F000002801D1D5E61C1C631E1A78302AFAD0A9
:10340000149B0393FFF7BDFA4B46DA460B93B34682
:10341000069B049EA94645469846392EABD0002C03
:1034200001DD0A9E31362E700B9B4F466C1C99466F
:1034300071E5159B54469A46139B5D469B46149B2B
:10344000089903934346FFF791FB002800D093E6C9
:10345000F30700D490E68BE64946002350460A2243
:1034600000F0A2FB129B8146002B01DD079370E464
:10347000229B022B02DC129B07936AE4129B0793A8
:10348000E2E502239846FFF790F9149B089903930D
:103490000D1C4346FFF76AFB042B00D13BE43C23A1
:1034A000181A29E4807F00005880000000002440A2
:1034B0000000E03F00001C400000C0FC38B5094B94
:1034C000094CE41AA41009D0084AA518AD00ED185B
:1034D0002B68013C9847043D002CF9D104F04AFCCC
:1034E00038BDC046C8080020CC080020FFFFFF3FC1
:1034F00038B5002A06D0101C0B49141C01F010F836
:10350000002802D1094D281C38BD084D201C291C5B
:1035100001F006F80028F6D0201C054901F000F85B
:103520000028F0D00020EFE7747F0000947D0000B9
:10353000407F0000004870478C040020014B186851
:103540007047C046AC040020004870473404002097
:1035500000207047004870475404002008B5031C41
:103560000A1C03490868191CFFF7C2FF08BDC046C2
:10357000300400200048704754040020F0B55F4636
:103580004D4656464446F0B40D1C0B3583B0071C1F
:10359000162D2DD907239D4300D5C7E0A94200D998
:1035A000C4E000F0CBFAF823FF339D4228D8E908A5
:1035B000CB4ECB00F318DC689C4200D1C1E1032361
:1035C00062689A43131CE268A168CA609160012294
:1035D000E3185968381C0A435A6000F0B1FA201CFD
:1035E000083003B03CBC90469946A246AB46F0BDBD
:1035F000102900D99AE0381C00F0A0FA1025D6E76F
:10360000690A00D196E0042900D93CE138239C46A0
:10361000A9098C4463465900B14E89007118CC68E1
:10362000A14215D0032362689A43131C521B0F2A30
:1036300000DD83E00320002A07DBC4E763688343DF
:103640005A1B0F2A7ADC002ABDDAE468A142F5D1C0
:10365000614601310091321C34690832944200D134
:1036600061E10323616899430B1C481B0F2800DDAF
:1036700048E1726132610028A9DA9A4A914200D980
:103680000DE10123C8088210934072681A43C300F9
:10369000F3189868E360A0609C60131C7260C460BB
:1036A0000120009A9210904098424CD818420DD1B7
:1036B00003220099400091430A1D0092184205D14F
:1036C000009A4000043200921842F9D00323984631
:1036D000009AD3009946B144CC4692466346DC68D2
:1036E000A44507D121E1002A00DB33E1E468A445C9
:1036F00000D11AE14246636893435A1B0F2AF2DD58
:10370000012163190D436560E068A5680836E8602B
:1037100011438560F360B360381CDE609E605960C1
:103720009A5000F00DFA201C08305AE70C230020B4
:103730003B6056E73F237E219C466DE701235B42B9
:103740009846C44484E70323B46862689A43904669
:10375000954203D8521B0F2A00DD86E0231C434408
:10376000614A0193614B93461B681268EB18013262
:1037700000D15CE15E4A944663441B0B1B0300933B
:10378000381C009900F0BAFE031C8146013360D05A
:10379000019B834200D9F8E0564B009A9A461B6879
:1037A0009C46534662441A60019B4B4500D14CE154
:1037B0005B461B68013300D15EE14B4601995B1A01
:1037C000D21853461A6007234A46134000D113E12A
:1037D00008218946D21A9144474AD21A009B381CC4
:1037E0004B441B051B0DD31A191C9B4600F086FE8B
:1037F000431C00D134E14B46C01A012358441843FE
:1038000053461B685B441A1C53461A604B46B36010
:103810005860B44213D043460F2B00D8F7E043461C
:10382000072160680C3B8B43063901400520194392
:103830006160E118486088600F2B00D914E12F4BBC
:1038400019688A4200D91A602D4B19688A4200D93A
:103850001A600323B46862689A43131C5A1B9D4282
:1038600000D9B9E00F2A00DCB6E00123291C651954
:10387000194313436160381CB5606B6000F060F958
:10388000201C0830ADE6142973D9542900D9A8E0CA
:103890006E239C46290B8C4463465900BCE64A0AB9
:1038A000042A6CD88A093832101C520092009446BF
:1038B000B4446246032192688846624500D19EE086
:1038C000414650688843834202D292689445F7D1BA
:1038D000D0687368E060A2608460D460E0E6C046AF
:1038E000B0040020FF010000BC08002000090020F7
:1038F0000F1000000409002008100000FC08002040
:10390000F8080020012163190D43014365607361CC
:103910003361DA609A6059601850381C00F010F971
:10392000201C08305DE67368BAE608239B46073B17
:10393000DC449B46DA4443465246134200D0CDE66F
:1039400031E0231C64698A1C08330092A34200D131
:1039500081E634E60122E3185968381C0A435A60AC
:10396000E368A268D3609A6000F0EAF8201C08308F
:1039700037E65B239C468C44634659004CE6142A88
:1039800058D85B32101C520090E7B44200D060E778
:1039900002E7009B013B00934B461A68083B9146A7
:1039A0009A4200D080E04346009A1342F1D17368F6
:1039B000834373604000984200D9C4E6002800D1D8
:1039C000C1E6184272D152460092009A4000043279
:1039D00000921842F9D07BE6381C00F0B1F80020C4
:1039E000FFE5AA235B00994217D8DD3B9C46E90B13
:1039F0008C44634659000FE680225201EEE6012313
:103A0000801083407168101C0B43736062E70123D0
:103A10004A464C465360002320E7264B994210D873
:103A20007C239C46A90C8C4463465900F4E5103372
:103A30000093A5E6542A23D80A0B6E32101C5200BC
:103A400034E77E23FC219C46E6E51B0500D0AFE66B
:103A5000009BB1684344181C012303434B60EEE60E
:103A6000002301209B46CBE6211C381C083101F0C5
:103A70006DFC53461A68E2E65B464A461A60A2E6C7
:103A8000AA204000824204D8CA0B7732101C520090
:103A90000CE70848824204D88A0C7C32101C520081
:103AA00004E7FC227E2001E7736883E75346009316
:103AB0000EE6C0465405000070B5CCB2830737D07F
:103AC000531E002A1FD00278A2421DD0032505E014
:103AD000002B18D00278013BA24215D001302842B9
:103AE000F6D1032B11D8002B0DD00278A2420BD0B7
:103AF000421CC31804E00132511E0978A14203D0D0
:103B0000101E9842F7D1002070BDFF2529400D02FC
:103B100029430D04074E0D43026807496A405118B6
:103B200091433142DFD1043B0430032BF4D8DAE770
:103B3000131CD6E780808080FFFEFEFE7047C046E3
:103B40007047C046C36C70B5041C0D1C002B0AD016
:103B5000AA009B18186800280ED002681A6000237B
:103B60000361C36070BD0421212201F06FFBE0649A
:103B7000031EEDD10020F5E70126AE40721D920034
:103B8000201C012101F062FB0028F3D04560866013
:103B9000E5E7C046002906D04B68C26C9B00D318ED
:103BA0001A680A6019607047F8B54F464646C0B4B7
:103BB0000E1C81460D1C1F1C00200C691436316838
:103BC00001300B041B0C5343090C5143DB191F0C30
:103BD00079181B040F0C1B0C0904C91802C6844277
:103BE000EDDC002F08D0AB689C420ADA231D9B0055
:103BF000EB1801345F602C61281C0CBC9046994680
:103C0000F8BD6B684846591CFFF79CFF291C2B69BF
:103C100080469A1C92000C300C31FCF7BBFF4A46E0
:103C20006B68D26C9B00D3181A682A601D604546E9
:103C3000DCE7C046F8B54F464646051C181CC0B424
:103C40000C1C08300921171C984601F0E3FE0128DE
:103C500038DD01220021520001319042FBDC281C9A
:103C6000FFF770FF089B011C436101230361092FCB
:103C700025DD08339946A1444E46E4193378281CC3
:103C8000303B0A22FFF790FF0136011CA642F5D116
:103C90004B46DC19083CB8450CDD4346DE1BA61933
:103CA0002378281C303B0A22FFF77EFF0134011CD9
:103CB000B442F5D1081C0CBC90469946F8BD0A34B4
:103CC0000927E8E70021CAE7031C010C00220029AC
:103CD00001D103041032190E01D108321B02190F51
:103CE00001D104321B01990F01D102329B00002B3C
:103CF00005DB20205B0000D47047501CFCE7101C43
:103D0000FAE7C0460368011C5A0708D00020DA070A
:103D100004D49A0720D402209B080B607047180433
:103D20000022002801D11B0C1032FF20184201D1C3
:103D300008321B0A180701D104321B09980701D168
:103D400002329B08D80704D45B082020002BE5D062
:103D500001320B60101CE1E75B080B600130DDE70E
:103D600010B50C1C0121FFF7EDFE01234461036136
:103D700010BDC046F0B55F4656464D464446F0B4C9
:103D80000C69166985B00F1C151CB44200DA9CE062
:103D9000331C261C1C1C33199846BB68796898454F
:103DA00000DD0131FFF7CEFE1422031C944663446C
:103DB0009B4643469B005B44191C029303905B4661
:103DC00000228B4503D2029904C39942FCD81423E4
:103DD000A4009A461437231CBC46AA44B600534498
:103DE0000097B44401939A4552D253461B681E046F
:103DF000360C22D05C4600276146009D236801CD29
:103E00001B041A0C03041B0C7343D318DB19070C97
:103E100077432268A446120CD2191F0CD2191B0436
:103E2000170C1B0C1204134308C4A942E6D8E14640
:103E30004B465F6053468C461B681E0C21D05B4688
:103E4000009C1B68371C1D1C261C00225C46308809
:103E50002D0C78434519A8181B0402041B0C1343AE
:103E6000236008CE65681B0C7B4329040A0C991853
:103E7000000C0B18A1461A0C0434B445E7D84F4681
:103E80007B6004239946019BCA44CB445345ACD87C
:103E90004346002B0EDD029B043B1A68002A09D121
:103EA000424603E0043B1968002902D1013A002A86
:103EB000F8D19046039B4246181C1A6105B03CBCE1
:103EC00090469946A246AB46F0BD171C0D1C62E712
:103ED000F8B546464F460323C0B480460E1C141C5A
:103EE000134037D1A41024D043469D6C002D3AD006
:103EF000002301279946274207D1641019D028686A
:103F000000281BD0051C2742F7D04046311C2A1C34
:103F1000FFF730FF002E1BD04246D26C73689446E8
:103F20009B0063441A68641032601E60061C002CFB
:103F3000E5D1301C0CBC90469946F8BD291C2A1CC2
:103F40004046FFF717FF4B4628600360051CDAE781
:103F5000061CD2E70B4A013B9B009A580023FFF74F
:103F600023FE061CBEE740460121FFF7EBFD064B92
:103F7000051C4361012303614346986400230360E9
:103F8000B6E7C0464880000071020000F0B55F4609
:103F900044464D465646F0B40D1C2B6957119B46BE
:103FA000BB445B465C1CAB6883B00190904649689B
:103FB0009C4203DD01315B009C42FBDC0198FFF772
:103FC000C1FD021C84461432002F08DD111C0023A1
:103FD0000026013340C1BB42FBD19B00D2182B1CF1
:103FE00029691433890040465E181F210840804625
:103FF00028D02021091A8946002740461968924690
:1040000081404846394302C202CBC1400F1C9E4248
:10401000F3D853465960002901D05C460234634608
:104020006046013C019A1C616B68D26C9B00D318FE
:104030001A682A601D6003B03CBC90469946A246AF
:10404000AB46F0BD02CB02C29E42E8D902CB02C20F
:104050009E42F7D8E3E7C0460B69026910B5D21A51
:1040600011D19A00143014318318891801E0984254
:104070000BD2043B04391A680C68A242F7D0A24262
:10408000924101200243101C10BD0022FBE7C046F4
:10409000F8B54F4646460C1CC0B4071C081C111C42
:1040A000151CFFF7D9FF061E5FD000239846002895
:1040B00055DB6168381CFFF745FD42468446276999
:1040C0002B69211CC2602C1CB8009B0081469846BD
:1040D00066460025143114348944A044143608C9B6
:1040E00001CC1A04120C55190204120CAA1A1D0C48
:1040F000030CEB1A15145B191204120C1D14043670
:104100001B041343321F1360A045E8D88846894535
:104110001CD9321C08C91C04240C641925141B0C5E
:10412000EB1824041D14240C1B04234308C28945E6
:10413000F0D84246D2434A449008013080003618F5
:10414000321F002B04D1043A1368013F002BFAD030
:10415000634660461F610CBC90469946F8BD231C1F
:104160002C1C1D1C01239846A3E7381C0021FFF7D7
:10417000E9FC012346610361EDE7C0460F4B10B532
:1041800019400F4B9C466144002904DD00220B1CA2
:10419000101C191C10BD49420915002200231329C7
:1041A00007DD0120322902DC3324611A8840021C19
:1041B000EEE7802000030841031CE9E70000F07FE0
:1041C0000000C0FCF0B54E46454657460469E0B4D1
:1041D000A400061CA1461436B1444B4688461F1F56
:1041E0003D68281CFFF770FD202342461B1A136010
:1041F0000A2822DC0B210B1A9A462B1C5246D3406C
:1042000026499C4688466146444621430B1C0021B2
:104210008C46BE4205D24C465146083C2468CC40F0
:10422000A44615308540614629430A1C101C191C00
:104230001CBC90469946A246F0BDBE421DD2082342
:104240005B429C46071CCC4463460B3F1968002F19
:1042500018D02B23181A0B1CBD40C3400F4C1D4314
:104260002C43231C0025664503D24C460C3C256894
:10427000C540B94029430A1CD8E70B38071C002168
:10428000002804D105480A1C2843031CCEE7BD4082
:104290000249294300250B1C291CEAE70000F03FD6
:1042A000F0B501211C1C83B0089F151CFFF74AFCC8
:1042B00021036400061C090B640D02D080235B03FC
:1042C00019430191002D19D068460095FFF71AFD9A
:1042D000002830D1009B019D7361B5616B1E9D412B
:1042E00001353561002C14D0194B9C4635236444AC
:1042F0002418181A099B3C60186019E001A8FFF700
:1043000001FD019B20307361012301253361002CE5
:10431000EAD1104B9C46104B6044EB189B00F318FD
:1043200038605869FFF7D0FC6D01099B281A1860A6
:10433000301C03B0F0BD019D20232A1C1B1A9A409B
:10434000131CC540009A019513437361C5E7C0462D
:10435000CDFBFFFFCEFBFFFFFFFFFF3FF0B5574652
:104360004E464546E0B484B0894602A98046FFF730
:1043700029FF061C0F1C484603A9FFF723FF021C58
:104380000B1C0398029900920193091A8A46414630
:1043900009698846494640460969411A490151441C
:1043A00000290CDD0905CD192F1C301C391C01F02A
:1043B000DDFF04B01CBC90469946A246F0BD09053D
:1043C0005B1A0193009A019BEFE7C04610B5041EEB
:1043D000172C09DD002007490022074B013C02F0A1
:1043E00003FC002CF8D110BD044BC4001C1920683C
:1043F0006168F8E70000F03F00002440807F000083
:10440000131C70B54C1E11696411013414338900FA
:10441000A400591804198B420AD2051C40CB40C590
:104420009942FBD8891A1539890801318900401849
:104430000023844202D908C08442FCD870BDC04623
:10444000021C036910B51432481183420FDA9B0035
:10445000D3189A4221D2043B1868002804D01AE0ED
:10446000043B1968002916D19A42F9D310BD834242
:104470000EDD1F2319408300D3180029E9D01C68E2
:10448000201CC8408840011C0120A142EED1E0E779
:104490008300D318DDE70120E8E70020E6E7C04607
:1044A0000A1C031C024330B50220002A00D130BD93
:1044B00080221206914216D00C4A04208C180C4A15
:1044C0009442F4D90B4C0C199442F0D90A4A490091
:1044D000490803209142EAD9064A00209142E6D1D8
:1044E00058425841E3E7002BE1D0EFE70000F0FF2E
:1044F000FFFFDF7F0000F07FFFFF0F0038B50023D4
:10450000064C051C081C236003F01EFC431C00D055
:1045100038BD2368002BFBD02B60F9E7040A00208C
:10452000024670B50A4392072AD11E4DEE0104C817
:1045300008C9541B9443344017D0D0B2D9B2401AA2
:104540002106014310D190B299B2401A21040143CF
:104550000AD110021902000A090A401A2102014375
:1045600002D1100E190E401A70BD9A42DFD010BA57
:1045700019BA884201D9012070BD0020C04370BD26
:1045800002780B7801300131002A09D09A4207D114
:1045900002780B7801300131002A01D09A42EFD025
:1045A000D01A70BD0101010110B5830727D003782F
:1045B000002B26D0031C032102E01A78002A1CD00D
:1045C00001330B42F9D119680F4A104C8A188A43FB
:1045D00022420FD1043319680B4A8A188A432242B7
:1045E00008D104331968084A8A188A432242F1D054
:1045F00000E001331A78002AFBD1181A10BD031C01
:10460000E1E70020FAE7C046FFFEFEFE80808080E2
:10461000F0B556464D465F464446F0B4136883B045
:104620009946936801900E1C9246002B75D000238A
:1046300000249B4608688B684F46002C48D01D1C00
:1046400098469C424ED39023B289DB001A422ED06A
:104650003169431A994673695800C318D80FC318B3
:10466000601C5B1048449846834201D28046031C7C
:104670008020C000024238D00198191CFEF77EFF4E
:10468000051E55D04A463169FCF784FAB2892A4B97
:10469000134080221343B3814346281C4A463561A8
:1046A000A046251C484473619B1A3060B3604246A3
:1046B000594600F023FF3268B36842443260101C50
:1046C000524692685B1B141B5246B360946024D020
:1046D0003A687C6893460837002CF9D01D1C984630
:1046E0009C42B0D2251CA046E1E701981A1C00F0BC
:1046F00051FF051ED0D1019C3169201C00F026FE1F
:104700000C2323604023B28901201343B381524616
:10471000002340429360536003E000235246002090
:10472000536003B03CBC90469946A246AB46F0BDF0
:104730000C23019A1360E5E77FFBFFFFF0B55F46AE
:104740004D4656464446F0B4AFB0019009938B896C
:10475000894693461B0604D50B69002B01D100F056
:10476000E6FC1EAB9846119300234746CA461393B6
:1047700012930D9308935B461B785C46002B1ED06A
:10478000252B02D11BE0252B03D001342378002BED
:10479000F9D15B46E51A12D05B463B60139B7D6006
:1047A000EB181393129B029301331293072B00DD36
:1047B000BDE30837089B9C46AC44634608932378C6
:1047C000002B01D100F090FC00230EAAD37101222E
:1047D000524203920022651C059291461032944683
:1047E0000021202080262A1C6378551C1A1C203AA0
:1047F000582A00D9E8E1CE4C9200A25897462A1CCC
:1048000004234C461C43A1462B78EEE72B782A1C48
:104810002B21EAE7099B1A1D1B6893460593002B81
:1048200001DA00F044FC09922B782A1CDDE7012311
:104830004A461A4391462B782A1CD6E72B782A1C25
:104840000029D2D12031D0E70EAAD171B94AAB46A6
:104850000D924A46920600D4FFE00721099A0732DA
:104860008A4301318C46944461460991116852682B
:10487000069107924A46D20700D4FDE0069C079DA8
:10488000211C022229431CD010A843704B4630241F
:1048900013430470994614E04B46AB469B0600D484
:1048A000F9E00722099B07339343013294469C4465
:1048B00062465C681B68191C0992012206930794E2
:1048C0002143002300260EA8C371039B0493039B7E
:1048D000002B03DB4846802398438146002900D003
:1048E000A7E2039B002B00D10FE3012A00D1ABE22A
:1048F000022A00D135E3069807994B464246072520
:10490000BC46B14602934F07C6082B1CCC08374360
:10491000211C3C1C0340013A30331370381C0C43FB
:10492000F1D10690079102990A920A1C4E466746F9
:104930008946D20700D578E343460A9A9B1A049326
:10494000049B039A0293934200DA0292731E9E41E3
:10495000029B9C46B4446346029331E0039B0EA93C
:104960000493099BAB461C1D1B681A1C0A93002369
:10497000CB71002A00D1CCE3039B002B00DABFE30C
:104980000A9D0021281C1A1CFFF796F8002801D068
:10499000431B04930EABDE79002309940393CFE706
:1049A000AB46099914AA0B680431099113700023CE
:1049B0000EA9CB710133029304930A92002303934F
:1049C00002234A461A400B9202D0029B0233029302
:1049D00084234A461A400C9200D07FE1059B029A3C
:1049E0009C1A002C00DC79E1139A129B524D102C7A
:1049F0001FDD391C1026574603E0103C0831102CEF
:104A000015DD103201330D604E6013921293072BA7
:104A1000F3DD0198391C11AAFFF7FAFD002800D038
:104A200020E2103C139A129B4146102CE9DCBA4656
:104A30000F1CA21801333D607C6013921293072B68
:104A400000DDC2E208374BE10EAAD1713B4AAB460A
:104A50000D924A46920600D5FFE64A46D20600D499
:104A6000FEE2099A116804320691099200214A4631
:104A70000791D20700D501E7069B079C191C02226B
:104A800021431EE710234A461A4391464B46AB4644
:104A90009B0600D505E74B46DB0600D4EEE2099BFA
:104AA0001A6806920022043307920993013206998C
:104AB00007E710234A461A4391464B46AB469B06EE
:104AC00000D4BBE00722099B07339343013294468D
:104AD0009C4462465C681B68191C09920693079403
:104AE00000222143EDE60EAB4A46D97110231A434A
:104AF00091464B46AB469B0600D4C0E00723099A7B
:104B000007329A4301339C469444634609935368A1
:104B1000126807930692002B00DAC2E00EABDE7932
:104B2000039B01220493069B079C191C2143CEE69C
:104B3000A8800000447F00000C820000307F00004D
:104B40000EABD9714B46AB469B0600D59DE24B465A
:104B5000DB0600D5B3E24B465B0600D4AFE2694604
:104B6000099B098C1A68043302921180099302E6AA
:104B70004B46334399462A1C2B7836E62B786A1C21
:104B80002A2B00D1E0E230246442A3469B445C46D9
:104B9000151C0022092C11D88B46111C221C8B00DD
:104BA0005B185B000135D1186B1E1B781A1C303A5C
:104BB000092AF4D90A1E594600DAA6E203921A1C01
:104BC000203A582A00D816E60EAAAB46D171002B1F
:104BD00000D189E214AAE9E60022141C303A934677
:104BE0009B445A468B46211C8B005B185B000135A9
:104BF00099186B1E1B781A1C303A092AF4D90591B2
:104C00005946F3E50999AB460B1C0A68043309932E
:104C1000002306924A46079302331A4391463022F4
:104C200010AB1A7048325A70C54B763A0D930699FC
:104C300047E64B46AB469B0600D543E74B46DB06B3
:104C400000D414E2099B1A680692002204330792EA
:104C50000993069935E64B46034399462A1C2B785F
:104C6000C3E54B464022134399462A1C2B78BCE5EA
:104C70000EABD9714B46AB469B0600D53EE74B4683
:104C8000DB0600D5E8E14B46099A5B0600D4E4E177
:104C90000021535E06930432DB170793099200D478
:104CA0003CE70699079A00244B429441181C211CAA
:104CB0002D2306900791011C0EAAD371039B2D266C
:104CC00004930122214302E62B782A1C6C2B00D18D
:104CD000E6E14C4665462C43A14686E5139A129BB5
:104CE0000EA9C97900290CD00EA90731396001211C
:104CF00001320133796013921293072B00DD4EE1EC
:104D000008370B9900290BD010A939600221023213
:104D10000133796013921293072B00DD4AE10837C3
:104D20000C99802900D1AAE0039904980D1A002D4E
:104D30002BDD844E102D1EDD391C1024574603E058
:104D4000103D0831102D14DD103201330E604C601F
:104D500013921293072BF3DD0198391C11AAFFF768
:104D600057FC00287ED1103D139A129B4146102D0E
:104D7000EADCBA460F1C521901333E607D60139283
:104D80001293072B00DDE1E008370A9901333960FF
:104D9000049912938C46624479601392072B00DDCC
:104DA000A0E008374B465B0733D5059B02995E1A96
:104DB000002E2EDD129B644D102E22DD391CA946DB
:104DC00010245746019D03E0103E0831102E15DDDA
:104DD0005D481032013308604C6013921293072B28
:104DE000F2DD281C391C11AAFFF712FC002839D16A
:104DF000103E139A129B4146102EE9DCBA464D46EE
:104E00000F1C9219013360C713921293072B00DD18
:104E100018E1029B05998B4200DA0B1C08998C461D
:104E20009C4463460893002A66D1002347461293A8
:104E3000A1E4012A00D05BE5079B002B00D0CFE066
:104E4000069B092B00D9CBE02722069B14A93033FF
:104E50008B5418320EAB9C46434662449B1A049313
:104E60000A926DE5B9464B469B895B065CD408986F
:104E70002FB03CBC90469946A246AB46F0BD059982
:104E800002980D1A002D00DC4EE72E4E102D1EDD6F
:104E9000391C1024574603E0103D0831102D14DD55
:104EA000103201330E604C6013921293072BF3DD26
:104EB0000198391C11AAFFF7ABFB0028D2D1103D95
:104EC000139A129B4146102DEADCBA460F1C521968
:104ED00001333E607D6013921293072B00DDF7E0F3
:104EE000083721E70198514611AAFFF791FB0028E6
:104EF00009D1139A474655E70198514611AAFFF781
:104F000087FB002891D0D146ADE743460A93002A9B
:104F100000D015E54B46DB0700D411E530212723EF
:104F200014AAD1543F2295E701204042A0E70198FE
:104F3000514611AAFFF76CFB0028E4D1474639E43B
:104F4000447F00001C8200000C8200000198514642
:104F500011AAFFF75DFB0028D5D1139A129B474693
:104F600013E74246069C079D0F20B44602970D9F0B
:104F7000031C2340FB5C2E072109013A0E431370EA
:104F80002B091D1C331C341C2B43F1D143469B1AA7
:104F900006940795029F66460A920493D0E401980E
:104FA000514611AAFFF734FB0028ACD1139A129B8B
:104FB0004746A6E60198514611AAFFF729FB0028AB
:104FC000A1D1139A129B4746AAE60198514611AA0D
:104FD000FFF71EFB002896D1139A129B47467FE6E7
:104FE0004B46069C079DB14646460293201C291C51
:104FF0000A22002300F03CFE013E30323270201CB9
:10500000291C00230A2200F033FE031C041C0D1C83
:105010000B43EBD1029B06940795341C4E469946F0
:1050200043461B1B0A9404938AE4302B00D183E48B
:105030000A9B013B1A1C0A933023137043469B1AA8
:1050400004937DE40198514611AAFFF7E1FA002884
:1050500000D058E7139ADCE6099A1368029319E620
:105060004A46520600D4FCE4099A1188FBE44B46F8
:105070005B0600D4E6E5099B1A88E5E54B465B062E
:1050800000D40CE5099B1A880BE50999089A0B686E
:105090001A60D2175A600B1C04330993FFF76BFB9D
:1050A0004B460343994601326B78FFF79EFB059B05
:1050B0002A1C5B4205935B460993FFF7A1FB099A03
:1050C000089913681960131C04330993FFF753FB05
:1050D0000198514611AAFFF79BFA002800D012E769
:1050E000139A129B47461FE6139BD1460293002B4F
:1050F00000D1B8E60198514611AAFFF789FAB2E645
:105100000A98FFF751FA049044E4012252420392B4
:1051100055E5039D062D00D90625EB432A1CDB1718
:105120001A40144B0495029209940A9346E44021D4
:10513000FEF724FA4B461860186100280ED0402371
:105140004A465361FFF70DFB099B1C1D1B68039327
:10515000002B08DB6B780994FFF747FB0C23019ABF
:105160000138136084E60994012464426B78039447
:10517000FFF73BFB587F0000F8B544465F465646B4
:105180004D469B462F4BF0B41C68A4235B00051CC6
:10519000E0580E1C904600284BD043681F2B0DDCB6
:1051A0005C1C002D21D102339B0044601E50002066
:1051B0003CBC90469946A246AB46F8BD224B002B1C
:1051C0003CD0C820400000E000BF002836D0A42218
:1051D00000235200A15843600160A0504032835028
:1051E000043283500124002DDDD09A009146814481
:1051F000424688214F467A50C4225200904680444D
:1052000042468739994012688A460A439446424684
:1052100061461160842249465F4652008F50022D3C
:10522000C1D1021C55468D32FF3211680D43156005
:10523000B9E7201C4D30FF30E050AEE7012040427E
:10524000B6E7C046987D00000000000010B551434D
:10525000FEF794F9041E27D0031C083B5A68032369
:105260009A43043A242A15D8031C132A05D800228D
:10527000201C1A605A609A6010BD0021083301603A
:1052800041601B2AF3D98160C160242A07D0031C26
:105290001033ECE70021FBF7BBFC201CECE7031C00
:1052A000016118334161E2E70020E5E7F8B50C1C25
:1052B000061CFEF743FC204FBB685D6803239D433B
:1052C0001E4B2C1B9C466444240B1D4B013C2403A9
:1052D0009C4207DD301C0021FFF710F9BB685B1909
:1052E000984204D0301CFEF72BFC0020F8BD614230
:1052F000301CFFF703F9431C0DD001232D1BBA68A6
:105300001D43104B55601A68301C141B1C60FEF7BF
:1053100017FC0120EAE7301C0021FFF7EFF8BB681B
:10532000C21A0F2ADEDD08490968401A05490860DB
:1053300001210A435A60D5E7B0040020EF0F0000B6
:10534000FF0F000004090020BC080020F0B547460C
:1053500080B4002949D00C1C051CFEF7EFFB211C72
:1053600008394F6801233C1C9C430A195068984631
:1053700002339843031C5B488668964252D04646E7
:1053800053603E420BD10826B4460F688444C91BC3
:10539000E4198F6867455ED0CE68FE60B76001276C
:1053A000D61876683E4208D1E4184F4E9368B3424F
:1053B00000D173E0D268DA6093604C4B27434F60B2
:1053C0000C519C4214D8E408FF3BA210FF3B9340D1
:1053D0004268E4001343436000198368C8608B602F
:1053E0008160D960281CFEF7ABFB04BC9046F0BD81
:1053F000630A042B43D8A30938331A1C5E00B60095
:105400008619B3680327B3423FD05A68BA43A24211
:1054100002D99B689E42F8D1DA68CA608B609160BD
:10542000D960DFE71C1943463B4206D10B68C91A15
:105430008A68E418CB68D3609A6001222C4B22431F
:105440001B684A6081609C42CCD32A4B281C196897
:10545000FFF72CFFC6E74646D0184068304209D116
:105460004646E418D36892682643D3609A604E603B
:105470000C51B7E7464626434E600C51B2E7142B59
:1054800014D85B331A1C5E00B9E7012492109440D3
:10549000221C4468224342601A1CBEE72743D9609D
:1054A0009960CB608B604F600C519BE7542B04D804
:1054B000230B6E331A1C5E00A1E7AA22520093420E
:1054C00004D8E30B77331A1C5E0098E70A4A93422C
:1054D00004D8A30C7C331A1C5E0090E7FC267E22C5
:1054E0008DE7C046B0040020B8040020FF01000092
:1054F000B8080020000900205405000070B588425B
:105500000BD98B18984208D2991A531E002A03D03F
:10551000CA5CC254013BFBD270BD0F2A09D8051CDE
:10552000002AF9D00023CC5CEC5401339342FAD129
:10553000F2E7041C0C430B1CA40726D1151C041C09
:10554000103D2D0901352D0149191E6826605E6840
:1055500066609E68A660DE681033E660103499428B
:10556000F3D10F2445191440032C10D90023043C17
:10557000A4080134A400CE58EE500433A342FAD15B
:105580000324ED18C9182240CAE7051CCAE7221CEB
:10559000C6E7C046F0B556464D4644465F46F0B4B1
:1055A000804685B00E1E914600D1FCE0371C083FB6
:1055B000FEF7C4FA7B684D4603221C1C0B35BA4625
:1055C0009443162D00D974E010221025A94500D966
:1055D00074E0944255DA39190191D54988680199E6
:1055E000884200D1EAE04868012103900291011C41
:1055F000012081438C4601998B46DC446146496811
:10560000014260D1032103988C46884300199042DF
:1056100000DBCCE00299194200D09BE061463B6878
:10562000FB1A9B465B688B43C1180291914255DB84
:10563000019A5F46D36892680837D3609A605B46E8
:105640005A46DB689268D3609A60221F242A00D9E8
:105650002EE13B1C132A09D95B46316899607168B9
:10566000D9601B2A00D92DE11033083632681A6040
:1056700072685A60B2689A605B463E1CDA465B68A4
:10568000029C621B0F2A52D8012152460B40234331
:105690005360221C52445368194351604046FEF740
:1056A0004FFA301C05B03CBC90469946A246AB462A
:1056B000F0BD043295432A1E00DB87E70C234246E7
:1056C00000201360EEE70299194243D13B68FB1AB0
:1056D0009B4659460323496899430B1C1B190193A8
:1056E000934237DB5B465A465F469268DB68083771
:1056F000D3609A60221F242A00D9DEE03B1C132AC3
:1057000009D95B46316899607168D9601B2A00D954
:10571000ECE01033083632681A6072685A60B2687A
:105720009A605B463E1C5B68019CDA46A9E7012053
:105730005146034049191D4353465D60131C034302
:105740008A184B6053680831184350604046FFF791
:10575000FDFDA3E749464046FDF710FF81460028BE
:1057600000D1F1E07B68011C0122181C904308392C
:105770003F18B94200D196E0221F242A00D982E0C6
:105780004B46132A65D8321C11681960516859605C
:1057900092689A604046311CFFF7D8FD4046FEF7FC
:1057A000CFF948467EE7111CFDF7E8FE7AE701993C
:1057B000041CCA688968CA60916062E74168032076
:1057C00081438446281C09191030019081424ADA2D
:1057D000DB07BFD460463B68FB1A9B465B6883438C
:1057E0000198C9180291884200DD77E75B465A4666
:1057F0005F469268DB680837D3609A60221F242ACC
:1058000000D98FE03B1C132A09D95B4631689960A7
:105810007168D9601B2A00D98CE0103308363268D1
:105820001A6072685A60B2689A605B465919404BB8
:1058300040469960029B5A1B01231A434A605A460C
:10584000526813401D435B465D60FEF779F9381CD2
:1058500028E731681960716859601B2A18D8321C12
:105860000833083290E7324B7A199A600123491BBA
:10587000194351607A68404613401D437D60FEF72E
:105880005FF9301C0EE74846311CFFF737FE81E711
:105890004B46B1689960F168D960242A1CD0321C4B
:1058A0001033103270E74A6803218A43A418E8E6EF
:1058B000381C311CFFF722FEDEE6381C311CFFF7D6
:1058C0001DFE2EE75B46B1681961F1685961242A13
:1058D00016D018331036C9E64B46326949461A616C
:1058E000321C70691833183248614DE75B46B16865
:1058F0001961F1685961242A0BD0183310360AE770
:105900005B4632699A615A4671692033D161183613
:10591000ACE65B4632699A615A4671692033D161BF
:105920001836F8E6381C311CFFF7E8FD7DE7C04665
:10593000B00400205B46B1681961F1685961242AFE
:1059400007D0183310366AE74046FEF7F9F8002012
:10595000A8E65B4632699A615A4671692033D16183
:1059600018365CE738B50C1C0968051C002901D005
:10597000FFF7F8FF281C211CFFF7E8FC38BDC046E4
:10598000234B70B51B68984235D0C36C051C002BA7
:1059900011D000269959002906D00C68281CFFF761
:1059A000D5FC211EF9D1EB6C0436802EF2D1281CD7
:1059B000191CFFF7CBFC296C002902D0281CFFF72B
:1059C000C5FCA4235B00E95800290BD02E1C4D36E2
:1059D000FF36B14206D00C68281CFFF7B7FC211C2B
:1059E000A642F8D1696D002902D0281CFFF7AEFC51
:1059F000AB6B002B00D170BDEB6B281C9847B82314
:105A00009B00E9580029F6D0281CFFF7ABFFF2E70E
:105A10003004002003460B437FD4002243088B420E
:105A200074D303098B425FD3030A8B4244D3030B25
:105A30008B4228D3030C8B420DD3FF22090212BAEA
:105A4000030C8B4202D31212090265D0030B8B4266
:105A500019D300E0090AC30B8B4201D3CB03C01A50
:105A60005241830B8B4201D38B03C01A5241430B2B
:105A70008B4201D34B03C01A5241030B8B4201D31B
:105A80000B03C01A5241C30A8B4201D3CB02C01A86
:105A90005241830A8B4201D38B02C01A5241430AFE
:105AA0008B4201D34B02C01A5241030A8B4201D3ED
:105AB0000B02C01A5241CDD2C3098B4201D3CB0194
:105AC000C01A524183098B4201D38B01C01A524143
:105AD00043098B4201D34B01C01A524103098B4247
